{
  "contractName": "TaxManagement",
  "abi": [
    {
      "inputs": [],
      "stateMutability": "nonpayable",
      "type": "constructor"
    },
    {
      "anonymous": false,
      "inputs": [
        {
          "indexed": false,
          "internalType": "uint256",
          "name": "id",
          "type": "uint256"
        },
        {
          "indexed": true,
          "internalType": "address",
          "name": "agentAddress",
          "type": "address"
        },
        {
          "indexed": false,
          "internalType": "string",
          "name": "nom",
          "type": "string"
        },
        {
          "indexed": false,
          "internalType": "string",
          "name": "prenom",
          "type": "string"
        },
        {
          "indexed": false,
          "internalType": "string",
          "name": "adresse",
          "type": "string"
        },
        {
          "indexed": false,
          "internalType": "string",
          "name": "email",
          "type": "string"
        },
        {
          "indexed": false,
          "internalType": "uint256",
          "name": "telephone",
          "type": "uint256"
        }
      ],
      "name": "AgentAjoute",
      "type": "event"
    },
    {
      "anonymous": false,
      "inputs": [
        {
          "indexed": false,
          "internalType": "uint256",
          "name": "id",
          "type": "uint256"
        },
        {
          "indexed": false,
          "internalType": "string",
          "name": "nom",
          "type": "string"
        },
        {
          "indexed": false,
          "internalType": "string",
          "name": "adresse",
          "type": "string"
        },
        {
          "indexed": true,
          "internalType": "address",
          "name": "contribuableAddress",
          "type": "address"
        },
        {
          "indexed": false,
          "internalType": "uint256",
          "name": "chiffreAffairesAnnuel",
          "type": "uint256"
        },
        {
          "indexed": false,
          "internalType": "uint256",
          "name": "typeCommerce",
          "type": "uint256"
        },
        {
          "indexed": true,
          "internalType": "address",
          "name": "agentAddress",
          "type": "address"
        }
      ],
      "name": "CommerceAjoute",
      "type": "event"
    },
    {
      "anonymous": false,
      "inputs": [
        {
          "indexed": false,
          "internalType": "uint256",
          "name": "id",
          "type": "uint256"
        },
        {
          "indexed": true,
          "internalType": "address",
          "name": "contribuableAddress",
          "type": "address"
        },
        {
          "indexed": false,
          "internalType": "string",
          "name": "nom",
          "type": "string"
        },
        {
          "indexed": false,
          "internalType": "string",
          "name": "prenom",
          "type": "string"
        },
        {
          "indexed": false,
          "internalType": "string",
          "name": "adresse",
          "type": "string"
        },
        {
          "indexed": false,
          "internalType": "string",
          "name": "email",
          "type": "string"
        },
        {
          "indexed": false,
          "internalType": "uint256",
          "name": "telephone",
          "type": "uint256"
        }
      ],
      "name": "ContribuableAjoute",
      "type": "event"
    },
    {
      "anonymous": false,
      "inputs": [
        {
          "indexed": false,
          "internalType": "uint256",
          "name": "id",
          "type": "uint256"
        },
        {
          "indexed": false,
          "internalType": "string",
          "name": "nom",
          "type": "string"
        },
        {
          "indexed": false,
          "internalType": "uint256",
          "name": "tarifAnnuel",
          "type": "uint256"
        },
        {
          "indexed": false,
          "internalType": "string",
          "name": "description",
          "type": "string"
        }
      ],
      "name": "TypeCommerceAjoute",
      "type": "event"
    },
    {
      "inputs": [],
      "name": "admin",
      "outputs": [
        {
          "internalType": "address",
          "name": "",
          "type": "address"
        }
      ],
      "stateMutability": "view",
      "type": "function",
      "constant": true
    },
    {
      "inputs": [
        {
          "internalType": "address",
          "name": "",
          "type": "address"
        }
      ],
      "name": "admins",
      "outputs": [
        {
          "internalType": "uint256",
          "name": "id",
          "type": "uint256"
        },
        {
          "internalType": "string",
          "name": "nom",
          "type": "string"
        },
        {
          "internalType": "string",
          "name": "prenom",
          "type": "string"
        },
        {
          "internalType": "string",
          "name": "adresse",
          "type": "string"
        },
        {
          "internalType": "string",
          "name": "email",
          "type": "string"
        },
        {
          "internalType": "uint256",
          "name": "telephone",
          "type": "uint256"
        },
        {
          "internalType": "bool",
          "name": "estEnregistre",
          "type": "bool"
        }
      ],
      "stateMutability": "view",
      "type": "function",
      "constant": true
    },
    {
      "inputs": [],
      "name": "agentCount",
      "outputs": [
        {
          "internalType": "uint256",
          "name": "",
          "type": "uint256"
        }
      ],
      "stateMutability": "view",
      "type": "function",
      "constant": true
    },
    {
      "inputs": [
        {
          "internalType": "address",
          "name": "",
          "type": "address"
        }
      ],
      "name": "agents",
      "outputs": [
        {
          "internalType": "uint256",
          "name": "id",
          "type": "uint256"
        },
        {
          "internalType": "address",
          "name": "ethAddress",
          "type": "address"
        },
        {
          "internalType": "string",
          "name": "nom",
          "type": "string"
        },
        {
          "internalType": "string",
          "name": "prenom",
          "type": "string"
        },
        {
          "internalType": "string",
          "name": "adresse",
          "type": "string"
        },
        {
          "internalType": "string",
          "name": "email",
          "type": "string"
        },
        {
          "internalType": "uint256",
          "name": "telephone",
          "type": "uint256"
        },
        {
          "internalType": "bool",
          "name": "estEnregistre",
          "type": "bool"
        }
      ],
      "stateMutability": "view",
      "type": "function",
      "constant": true
    },
    {
      "inputs": [],
      "name": "commerceCount",
      "outputs": [
        {
          "internalType": "uint256",
          "name": "",
          "type": "uint256"
        }
      ],
      "stateMutability": "view",
      "type": "function",
      "constant": true
    },
    {
      "inputs": [
        {
          "internalType": "uint256",
          "name": "",
          "type": "uint256"
        }
      ],
      "name": "commerces",
      "outputs": [
        {
          "internalType": "uint256",
          "name": "id",
          "type": "uint256"
        },
        {
          "internalType": "string",
          "name": "nom",
          "type": "string"
        },
        {
          "internalType": "string",
          "name": "adresse",
          "type": "string"
        },
        {
          "internalType": "address",
          "name": "contribuableAddress",
          "type": "address"
        },
        {
          "internalType": "uint256",
          "name": "chiffreAffairesAnnuel",
          "type": "uint256"
        },
        {
          "internalType": "uint256",
          "name": "typeCommerce",
          "type": "uint256"
        },
        {
          "internalType": "address",
          "name": "agentAddress",
          "type": "address"
        },
        {
          "internalType": "bool",
          "name": "estEnregistre",
          "type": "bool"
        }
      ],
      "stateMutability": "view",
      "type": "function",
      "constant": true
    },
    {
      "inputs": [],
      "name": "contribuableCount",
      "outputs": [
        {
          "internalType": "uint256",
          "name": "",
          "type": "uint256"
        }
      ],
      "stateMutability": "view",
      "type": "function",
      "constant": true
    },
    {
      "inputs": [
        {
          "internalType": "address",
          "name": "",
          "type": "address"
        }
      ],
      "name": "contribuables",
      "outputs": [
        {
          "internalType": "uint256",
          "name": "id",
          "type": "uint256"
        },
        {
          "internalType": "address",
          "name": "ethAddress",
          "type": "address"
        },
        {
          "internalType": "string",
          "name": "nom",
          "type": "string"
        },
        {
          "internalType": "string",
          "name": "prenom",
          "type": "string"
        },
        {
          "internalType": "string",
          "name": "adresse",
          "type": "string"
        },
        {
          "internalType": "string",
          "name": "email",
          "type": "string"
        },
        {
          "internalType": "uint256",
          "name": "telephone",
          "type": "uint256"
        },
        {
          "internalType": "bool",
          "name": "estEnregistre",
          "type": "bool"
        }
      ],
      "stateMutability": "view",
      "type": "function",
      "constant": true
    },
    {
      "inputs": [
        {
          "internalType": "address",
          "name": "",
          "type": "address"
        }
      ],
      "name": "estAgent",
      "outputs": [
        {
          "internalType": "bool",
          "name": "",
          "type": "bool"
        }
      ],
      "stateMutability": "view",
      "type": "function",
      "constant": true
    },
    {
      "inputs": [
        {
          "internalType": "address",
          "name": "",
          "type": "address"
        }
      ],
      "name": "estContribuable",
      "outputs": [
        {
          "internalType": "bool",
          "name": "",
          "type": "bool"
        }
      ],
      "stateMutability": "view",
      "type": "function",
      "constant": true
    },
    {
      "inputs": [],
      "name": "typeCommerceCount",
      "outputs": [
        {
          "internalType": "uint256",
          "name": "",
          "type": "uint256"
        }
      ],
      "stateMutability": "view",
      "type": "function",
      "constant": true
    },
    {
      "inputs": [
        {
          "internalType": "uint256",
          "name": "",
          "type": "uint256"
        }
      ],
      "name": "typesCommerce",
      "outputs": [
        {
          "internalType": "uint256",
          "name": "id",
          "type": "uint256"
        },
        {
          "internalType": "string",
          "name": "nom",
          "type": "string"
        },
        {
          "internalType": "uint256",
          "name": "tarifAnnuel",
          "type": "uint256"
        },
        {
          "internalType": "string",
          "name": "description",
          "type": "string"
        },
        {
          "internalType": "bool",
          "name": "estEnregistre",
          "type": "bool"
        }
      ],
      "stateMutability": "view",
      "type": "function",
      "constant": true
    },
    {
      "inputs": [
        {
          "internalType": "uint256",
          "name": "_id",
          "type": "uint256"
        },
        {
          "internalType": "address",
          "name": "_ethAddress",
          "type": "address"
        },
        {
          "internalType": "string",
          "name": "_nom",
          "type": "string"
        },
        {
          "internalType": "string",
          "name": "_prenom",
          "type": "string"
        },
        {
          "internalType": "string",
          "name": "_adresse",
          "type": "string"
        },
        {
          "internalType": "string",
          "name": "_email",
          "type": "string"
        },
        {
          "internalType": "uint256",
          "name": "_telephone",
          "type": "uint256"
        }
      ],
      "name": "ajouterAgent",
      "outputs": [],
      "stateMutability": "nonpayable",
      "type": "function"
    },
    {
      "inputs": [
        {
          "internalType": "uint256",
          "name": "_id",
          "type": "uint256"
        },
        {
          "internalType": "address",
          "name": "_ethAddress",
          "type": "address"
        },
        {
          "internalType": "string",
          "name": "_nom",
          "type": "string"
        },
        {
          "internalType": "string",
          "name": "_prenom",
          "type": "string"
        },
        {
          "internalType": "string",
          "name": "_adresse",
          "type": "string"
        },
        {
          "internalType": "string",
          "name": "_email",
          "type": "string"
        },
        {
          "internalType": "uint256",
          "name": "_telephone",
          "type": "uint256"
        }
      ],
      "name": "ajouterContribuable",
      "outputs": [],
      "stateMutability": "nonpayable",
      "type": "function"
    },
    {
      "inputs": [
        {
          "internalType": "uint256",
          "name": "_id",
          "type": "uint256"
        },
        {
          "internalType": "string",
          "name": "_nom",
          "type": "string"
        },
        {
          "internalType": "string",
          "name": "_adresse",
          "type": "string"
        },
        {
          "internalType": "address",
          "name": "_contribuableAddress",
          "type": "address"
        },
        {
          "internalType": "uint256",
          "name": "_chiffreAffairesAnnuel",
          "type": "uint256"
        },
        {
          "internalType": "uint256",
          "name": "_typeCommerce",
          "type": "uint256"
        }
      ],
      "name": "ajouterCommerce",
      "outputs": [],
      "stateMutability": "nonpayable",
      "type": "function"
    },
    {
      "inputs": [
        {
          "internalType": "uint256",
          "name": "_id",
          "type": "uint256"
        },
        {
          "internalType": "string",
          "name": "_nom",
          "type": "string"
        },
        {
          "internalType": "uint256",
          "name": "_tarifAnnuel",
          "type": "uint256"
        },
        {
          "internalType": "string",
          "name": "_description",
          "type": "string"
        }
      ],
      "name": "ajouterTypeCommerce",
      "outputs": [],
      "stateMutability": "nonpayable",
      "type": "function"
    }
  ],
  "bytecode": "0x6080604052600060085560006009556000600a556000600b5534801561002457600080fd5b50600080546001600160a01b03191633179055611a44806100466000396000f3fe608060405234801561001057600080fd5b50600436106101005760003560e01c806388fe4d8211610097578063e0a1cce611610066578063e0a1cce614610231578063e32fa53c14610254578063f851a44014610278578063fd66091e146102a357600080fd5b806388fe4d82146101c55780639209d938146101ec578063b7dc1284146101f5578063d86c73b4146101fe57600080fd5b8063429b62e5116100d3578063429b62e5146101525780635ab57b1f146101785780637b469a811461018b57806382d22bf61461019e57600080fd5b8063112007e514610105578063140b627f14610121578063335af02b1461013657806336307c2e14610149575b600080fd5b61010e60095481565b6040519081526020015b60405180910390f35b61013461012f3660046113c1565b6102b6565b005b610134610144366004611492565b610515565b61010e600a5481565b610165610160366004611509565b610687565b6040516101189796959493929190611571565b6101346101863660046115e0565b6108e6565b6101346101993660046113c1565b610b80565b6101b16101ac366004611509565b610dbb565b604051610118989796959493929190611670565b6101d86101d33660046116f2565b61102a565b60405161011898979695949392919061170b565b61010e60085481565b61010e600b5481565b61022161020c366004611509565b60016020526000908152604090205460ff1681565b6040519015158152602001610118565b61022161023f366004611509565b60026020526000908152604090205460ff1681565b6102676102623660046116f2565b61118e565b604051610118959493929190611775565b60005461028b906001600160a01b031681565b6040516001600160a01b039091168152602001610118565b6101b16102b1366004611509565b6112d0565b6000546001600160a01b031633146103305760405162461bcd60e51b815260206004820152603260248201527f5365756c206c2761646d696e69737472617465757220706575742065666665636044820152713a3ab2b91031b2ba3a329030b1ba34b7b71760711b60648201526084015b60405180910390fd5b6001600160a01b03861660009081526002602052604090205460ff16156103a55760405162461bcd60e51b8152602060048201526024808201527f436520636f6e747269627561626c65206573742064656a6120656e72656769736044820152633a39329760e11b6064820152608401610327565b60408051610100810182528881526001600160a01b0388811660208084018281528486018b8152606086018b9052608086018a905260a0860189905260c08601889052600160e0870181905260009485526002808552888620805460ff19168317905560059094529690932085518155905195810180546001600160a01b0319169690941695909517909255519192839290918201906104459082611844565b506060820151600382019061045a9082611844565b506080820151600482019061046f9082611844565b5060a082015160058201906104849082611844565b5060c0820151600682015560e0909101516007909101805460ff19169115159190911790556040516001600160a01b038816907f5377fc3a0d1acfbadf93cfb8313f7552d4d59b4a85af2e0f3879c5a77ce34839906104ee908b908a908a908a908a908a90611904565b60405180910390a2600880549060006105068361196b565b91905055505050505050505050565b6000546001600160a01b0316331461058a5760405162461bcd60e51b815260206004820152603260248201527f5365756c206c2761646d696e69737472617465757220706575742065666665636044820152713a3ab2b91031b2ba3a329030b1ba34b7b71760711b6064820152608401610327565b6040805160a081018252858152602080820186815282840186905260608301859052600160808401819052600a54600090815260079093529390912082518155905191928392908201906105de9082611844565b5060408201516002820155606082015160038201906105fd9082611844565b50608091909101516004909101805460ff1916911515919091179055600a80549060006106298361196b565b91905055507fad41b734ecb9be6df5eca3a8b8dd3ae6b6db0e040898fecf65cbdcaf60a1faf6858585856040516106639493929190611992565b60405180910390a1600a805490600061067b8361196b565b91905055505050505050565b600360205260009081526040902080546001820180549192916106a9906117bb565b80601f01602080910402602001604051908101604052809291908181526020018280546106d5906117bb565b80156107225780601f106106f757610100808354040283529160200191610722565b820191906000526020600020905b81548152906001019060200180831161070557829003601f168201915b505050505090806002018054610737906117bb565b80601f0160208091040260200160405190810160405280929190818152602001828054610763906117bb565b80156107b05780601f10610785576101008083540402835291602001916107b0565b820191906000526020600020905b81548152906001019060200180831161079357829003601f168201915b5050505050908060030180546107c5906117bb565b80601f01602080910402602001604051908101604052809291908181526020018280546107f1906117bb565b801561083e5780601f106108135761010080835404028352916020019161083e565b820191906000526020600020905b81548152906001019060200180831161082157829003601f168201915b505050505090806004018054610853906117bb565b80601f016020809104026020016040519081016040528092919081815260200182805461087f906117bb565b80156108cc5780601f106108a1576101008083540402835291602001916108cc565b820191906000526020600020905b8154815290600101906020018083116108af57829003601f168201915b50505050600583015460069093015491929160ff16905087565b3360009081526001602052604090205460ff1661096b5760405162461bcd60e51b815260206004820152603060248201527f5365756c73206c6573206167656e74732070657576656e74206566666563747560448201527f657220636574746520616374696f6e2e000000000000000000000000000000006064820152608401610327565b6001600160a01b03831660009081526002602052604090205460ff166109f95760405162461bcd60e51b815260206004820152603e60248201527f4c6520636f6e747269627561626c6520646f6974206574726520656e7265676960448201527f7374726520706f757220616a6f7574657220756e20636f6d6d657263652e00006064820152608401610327565b604080516101008101825287815260208082018881528284018890526001600160a01b03871660608401526080830186905260a083018590523360c0840152600160e0840181905260095460009081526006909352939091208251815590519192839290820190610a6a9082611844565b5060408201516002820190610a7f9082611844565b5060608201516003820180546001600160a01b0319166001600160a01b039283161790556080830151600483015560a0830151600583015560c08301516006909201805460e0909401519290911674ffffffffffffffffffffffffffffffffffffffffff1990931692909217600160a01b9115159190910217905560098054906000610b0a8361196b565b9190505550336001600160a01b0316846001600160a01b03167fc3201a38ac25c9b556d13b7a8f05dc9d6d6784045e9da7aa53e0079ff6ea6b598989898888604051610b5a9594939291906119ce565b60405180910390a360098054906000610b728361196b565b919050555050505050505050565b6000546001600160a01b03163314610bf55760405162461bcd60e51b815260206004820152603260248201527f5365756c206c2761646d696e69737472617465757220706575742065666665636044820152713a3ab2b91031b2ba3a329030b1ba34b7b71760711b6064820152608401610327565b6001600160a01b03861660009081526001602052604090205460ff1615610c5e5760405162461bcd60e51b815260206004820152601e60248201527f436574206167656e74206573742064656a6120656e72656769737472652e00006044820152606401610327565b60408051610100810182528881526001600160a01b0388811660208084018281528486018b8152606086018b9052608086018a905260a0860189905260c08601889052600160e087018190526000948552808452878520805460ff19168217905560049093529590922084518155915190820180546001600160a01b03191691909316179091559151909182916002820190610cfa9082611844565b5060608201516003820190610d0f9082611844565b5060808201516004820190610d249082611844565b5060a08201516005820190610d399082611844565b5060c0820151600682015560e0909101516007909101805460ff19169115159190911790556040516001600160a01b038816907f6bc5eee2e5fedec0fb676fcb822681fadbb0adbaf4bf1df000abfa56851d19e490610da3908b908a908a908a908a908a90611904565b60405180910390a2600b80549060006105068361196b565b60056020526000908152604090208054600182015460028301805492936001600160a01b0390921692610ded906117bb565b80601f0160208091040260200160405190810160405280929190818152602001828054610e19906117bb565b8015610e665780601f10610e3b57610100808354040283529160200191610e66565b820191906000526020600020905b815481529060010190602001808311610e4957829003601f168201915b505050505090806003018054610e7b906117bb565b80601f0160208091040260200160405190810160405280929190818152602001828054610ea7906117bb565b8015610ef45780601f10610ec957610100808354040283529160200191610ef4565b820191906000526020600020905b815481529060010190602001808311610ed757829003601f168201915b505050505090806004018054610f09906117bb565b80601f0160208091040260200160405190810160405280929190818152602001828054610f35906117bb565b8015610f825780601f10610f5757610100808354040283529160200191610f82565b820191906000526020600020905b815481529060010190602001808311610f6557829003601f168201915b505050505090806005018054610f97906117bb565b80601f0160208091040260200160405190810160405280929190818152602001828054610fc3906117bb565b80156110105780601f10610fe557610100808354040283529160200191611010565b820191906000526020600020905b815481529060010190602001808311610ff357829003601f168201915b50505050600683015460079093015491929160ff16905088565b6006602052600090815260409020805460018201805491929161104c906117bb565b80601f0160208091040260200160405190810160405280929190818152602001828054611078906117bb565b80156110c55780601f1061109a576101008083540402835291602001916110c5565b820191906000526020600020905b8154815290600101906020018083116110a857829003601f168201915b5050505050908060020180546110da906117bb565b80601f0160208091040260200160405190810160405280929190818152602001828054611106906117bb565b80156111535780601f1061112857610100808354040283529160200191611153565b820191906000526020600020905b81548152906001019060200180831161113657829003601f168201915b5050505060038301546004840154600585015460069095015493946001600160a01b039283169491935091811690600160a01b900460ff1688565b600760205260009081526040902080546001820180549192916111b0906117bb565b80601f01602080910402602001604051908101604052809291908181526020018280546111dc906117bb565b80156112295780601f106111fe57610100808354040283529160200191611229565b820191906000526020600020905b81548152906001019060200180831161120c57829003601f168201915b505050505090806002015490806003018054611244906117bb565b80601f0160208091040260200160405190810160405280929190818152602001828054611270906117bb565b80156112bd5780601f10611292576101008083540402835291602001916112bd565b820191906000526020600020905b8154815290600101906020018083116112a057829003601f168201915b5050506004909301549192505060ff1685565b60046020526000908152604090208054600182015460028301805492936001600160a01b0390921692610ded906117bb565b80356001600160a01b038116811461131957600080fd5b919050565b634e487b7160e01b600052604160045260246000fd5b600082601f83011261134557600080fd5b813567ffffffffffffffff808211156113605761136061131e565b604051601f8301601f19908116603f011681019082821181831017156113885761138861131e565b816040528381528660208588010111156113a157600080fd5b836020870160208301376000602085830101528094505050505092915050565b600080600080600080600060e0888a0312156113dc57600080fd5b873596506113ec60208901611302565b9550604088013567ffffffffffffffff8082111561140957600080fd5b6114158b838c01611334565b965060608a013591508082111561142b57600080fd5b6114378b838c01611334565b955060808a013591508082111561144d57600080fd5b6114598b838c01611334565b945060a08a013591508082111561146f57600080fd5b5061147c8a828b01611334565b92505060c0880135905092959891949750929550565b600080600080608085870312156114a857600080fd5b84359350602085013567ffffffffffffffff808211156114c757600080fd5b6114d388838901611334565b94506040870135935060608701359150808211156114f057600080fd5b506114fd87828801611334565b91505092959194509250565b60006020828403121561151b57600080fd5b61152482611302565b9392505050565b6000815180845260005b8181101561155157602081850181015186830182015201611535565b506000602082860101526020601f19601f83011685010191505092915050565b87815260e06020820152600061158a60e083018961152b565b828103604084015261159c818961152b565b905082810360608401526115b0818861152b565b905082810360808401526115c4818761152b565b60a0840195909552505090151560c09091015295945050505050565b60008060008060008060c087890312156115f957600080fd5b86359550602087013567ffffffffffffffff8082111561161857600080fd5b6116248a838b01611334565b9650604089013591508082111561163a57600080fd5b5061164789828a01611334565b94505061165660608801611302565b92506080870135915060a087013590509295509295509295565b60006101008a83526001600160a01b038a1660208401528060408401526116998184018a61152b565b905082810360608401526116ad818961152b565b905082810360808401526116c1818861152b565b905082810360a08401526116d5818761152b565b60c0840195909552505090151560e0909101529695505050505050565b60006020828403121561170457600080fd5b5035919050565b60006101008a83528060208401526117258184018b61152b565b90508281036040840152611739818a61152b565b6001600160a01b0398891660608501526080840197909752505060a0810193909352931660c082015291151560e0909201919091529392505050565b85815260a06020820152600061178e60a083018761152b565b85604084015282810360608401526117a6818661152b565b91505082151560808301529695505050505050565b600181811c908216806117cf57607f821691505b6020821081036117ef57634e487b7160e01b600052602260045260246000fd5b50919050565b601f82111561183f57600081815260208120601f850160051c8101602086101561181c5750805b601f850160051c820191505b8181101561183b57828155600101611828565b5050505b505050565b815167ffffffffffffffff81111561185e5761185e61131e565b6118728161186c84546117bb565b846117f5565b602080601f8311600181146118a7576000841561188f5750858301515b600019600386901b1c1916600185901b17855561183b565b600085815260208120601f198616915b828110156118d6578886015182559484019460019091019084016118b7565b50858210156118f45787850151600019600388901b60f8161c191681555b5050505050600190811b01905550565b86815260c06020820152600061191d60c083018861152b565b828103604084015261192f818861152b565b90508281036060840152611943818761152b565b90508281036080840152611957818661152b565b9150508260a0830152979650505050505050565b60006001820161198b57634e487b7160e01b600052601160045260246000fd5b5060010190565b8481526080602082015260006119ab608083018661152b565b84604084015282810360608401526119c3818561152b565b979650505050505050565b85815260a0602082015260006119e760a083018761152b565b82810360408401526119f9818761152b565b6060840195909552505060800152939250505056fea2646970667358221220655639e31c64b9fb0476f78ed79f89a1b238207fffebf4c0629395e34e54bbd664736f6c63430008130033",
  "immutableReferences": {},
  "source": "// SPDX-License-Identifier: MIT\npragma solidity >=0.4.22 <0.9.0;\n\n// // Contrat pour la gestion des taxes\n\ncontract TaxManagement {\n\n\n\n    event AgentAjoute(uint id, address indexed agentAddress, string nom, string prenom, string adresse, string email, uint256 telephone);\n  event ContribuableAjoute(uint id, address indexed contribuableAddress, string nom, string prenom, string adresse, string email, uint256 telephone);\n  event CommerceAjoute(uint id, string nom, string adresse, address indexed contribuableAddress, uint chiffreAffairesAnnuel, uint typeCommerce, address indexed agentAddress);\n  event TypeCommerceAjoute(uint id, string nom, uint tarifAnnuel, string description);\n    address public admin;\n    mapping(address => bool) public estAgent;\n    mapping(address => bool) public estContribuable;\n    mapping(address => Admin) public admins;\n    mapping(address => Agent) public agents;\n    mapping(address => Contribuable) public contribuables;\n    mapping(uint => Commerce) public commerces;\n    mapping(uint => TypeCommerce) public typesCommerce;\n    \n    uint public contribuableCount = 0;\n    uint public commerceCount = 0;\n    uint public typeCommerceCount = 0;\n    uint public agentCount = 0; \n    struct Admin {\n        uint id;\n        string nom;\n        string prenom;\n        string adresse;\n        string email;\n        uint telephone;\n        bool estEnregistre;\n    }\n    \n    struct Agent {\n        uint id;\n        address ethAddress; // Adresse Ethereum de l'agent\n        string nom;\n        string prenom;\n        string adresse;\n        string email;\n        uint telephone;\n        bool estEnregistre;\n    }\n    \n    struct Contribuable {\n        uint id;\n        address ethAddress; // Adresse Ethereum du contribuable\n        string nom;\n        string prenom;\n        string adresse;\n        string email;\n        uint telephone;\n        bool estEnregistre;\n    }\n    \n    struct Commerce {\n        uint id;\n        string nom;\n        string adresse;\n        address contribuableAddress; // Adresse Ethereum du contribuable qui ajoute le commerce\n        uint chiffreAffairesAnnuel;\n        uint typeCommerce;\n        address agentAddress; // Adresse Ethereum de l'agent qui ajoute le commerce\n        bool estEnregistre;\n    }\n    \n    struct TypeCommerce {\n        uint id;\n        string nom;\n        uint tarifAnnuel;\n        string description; \n        bool estEnregistre;\n    }\n    \n    constructor() {\n        admin = msg.sender;\n    }\n    \n    modifier seulementAdmin() {\n        require(msg.sender == admin, \"Seul l'administrateur peut effectuer cette action.\");\n        _;\n    }\n    \n    modifier seulementAgent() {\n        require(estAgent[msg.sender], \"Seuls les agents peuvent effectuer cette action.\");\n        _;\n    }\n    \n    modifier seulementContribuable() {\n        require(estContribuable[msg.sender], \"Seuls les contribuables peuvent effectuer cette action.\");\n        _;\n    }\n    \n    function ajouterAgent(uint _id, address _ethAddress, string memory _nom, string memory _prenom, string memory _adresse, string memory _email, uint _telephone) public seulementAdmin {\n        require(!estAgent[_ethAddress], \"Cet agent est deja enregistre.\");\n        \n        Agent memory nouvelAgent = Agent({\n            id: _id,\n            ethAddress: _ethAddress,\n            nom: _nom,\n            prenom: _prenom,\n            adresse: _adresse,\n            email: _email,\n            telephone: _telephone,\n            estEnregistre: true\n        });\n        \n        estAgent[_ethAddress] = true;\n        agents[_ethAddress] = nouvelAgent;\n\n            emit AgentAjoute(_id, _ethAddress, _nom, _prenom, _adresse, _email, _telephone);\n        agentCount++;\n    }\n\n    \n    function ajouterContribuable(uint _id, address _ethAddress, string memory _nom, string memory _prenom, string memory _adresse, string memory _email, uint _telephone) public seulementAdmin {\n        require(!estContribuable[_ethAddress], \"Ce contribuable est deja enregistre.\");\n        \n        Contribuable memory nouveauContribuable = Contribuable({\n            id: _id,\n            ethAddress: _ethAddress,\n            nom: _nom,\n            prenom: _prenom,\n            adresse: _adresse,\n            email: _email,\n            telephone: _telephone,\n            estEnregistre: true\n        });\n        estContribuable[_ethAddress] = true;\n        contribuables[_ethAddress] = nouveauContribuable;\n            emit ContribuableAjoute(_id, _ethAddress, _nom, _prenom, _adresse, _email, _telephone);\n        contribuableCount++;\n\n    }\n    \n    function ajouterCommerce(uint _id, string memory _nom, string memory _adresse, address _contribuableAddress, uint _chiffreAffairesAnnuel, uint _typeCommerce) public seulementAgent {\n        require(estContribuable[_contribuableAddress], \"Le contribuable doit etre enregistre pour ajouter un commerce.\");\n        \n        Commerce memory nouveauCommerce = Commerce({\n            id: _id,\n            nom: _nom,\n            adresse: _adresse,\n            contribuableAddress: _contribuableAddress,\n            chiffreAffairesAnnuel: _chiffreAffairesAnnuel,\n            typeCommerce: _typeCommerce,\n            agentAddress: msg.sender, // Adresse Ethereum de l'agent qui ajoute le commerce\n            estEnregistre: true\n        });\n        \n        commerces[commerceCount] = nouveauCommerce;\n        commerceCount++;\n\n    emit CommerceAjoute(_id, _nom, _adresse, _contribuableAddress, _chiffreAffairesAnnuel, _typeCommerce, msg.sender);\n    commerceCount++;\n    }\n    \n    function ajouterTypeCommerce(uint _id, string memory _nom, uint _tarifAnnuel, string memory _description) public seulementAdmin {\n        TypeCommerce memory nouveauTypeCommerce = TypeCommerce({\n            id: _id,\n            nom: _nom,\n            tarifAnnuel: _tarifAnnuel,\n            description: _description,\n            estEnregistre: true\n        });\n        \n        typesCommerce[typeCommerceCount] = nouveauTypeCommerce;\n        typeCommerceCount++;\n     emit TypeCommerceAjoute(_id, _nom, _tarifAnnuel, _description);\n    typeCommerceCount++;\n    }\n}\n",
  "sourcePath": "D:\\PFE\\pfe_block\\smartContracts\\contracts\\TaxManagement.sol",
  "compiler": {
    "name": "solc",
    "version": "0.8.19+commit.7dd6d404.Emscripten.clang"
  },
  "schemaVersion": "3.4.15",
  "updatedAt": "2023-09-02T17:26:28.039Z",
  "networkType": "ethereum",
  "devdoc": {
    "kind": "dev",
    "methods": {},
    "version": 1
  },
  "userdoc": {
    "kind": "user",
    "methods": {},
    "version": 1
  }
}