{
  "contractName": "TaxManagement",
  "abi": [
    {
      "inputs": [],
      "stateMutability": "nonpayable",
      "type": "constructor"
    },
    {
      "anonymous": false,
      "inputs": [
        {
          "indexed": false,
          "internalType": "uint256",
          "name": "id",
          "type": "uint256"
        },
        {
          "indexed": true,
          "internalType": "address",
          "name": "agentAddress",
          "type": "address"
        },
        {
          "indexed": false,
          "internalType": "string",
          "name": "nom",
          "type": "string"
        },
        {
          "indexed": false,
          "internalType": "string",
          "name": "prenom",
          "type": "string"
        },
        {
          "indexed": false,
          "internalType": "string",
          "name": "adresse",
          "type": "string"
        },
        {
          "indexed": false,
          "internalType": "string",
          "name": "email",
          "type": "string"
        },
        {
          "indexed": false,
          "internalType": "uint256",
          "name": "telephone",
          "type": "uint256"
        }
      ],
      "name": "AgentAjoute",
      "type": "event"
    },
    {
      "anonymous": false,
      "inputs": [
        {
          "indexed": false,
          "internalType": "uint256",
          "name": "id",
          "type": "uint256"
        },
        {
          "indexed": false,
          "internalType": "string",
          "name": "nom",
          "type": "string"
        },
        {
          "indexed": false,
          "internalType": "string",
          "name": "adresse",
          "type": "string"
        },
        {
          "indexed": true,
          "internalType": "address",
          "name": "contribuableAddress",
          "type": "address"
        },
        {
          "indexed": false,
          "internalType": "uint256",
          "name": "chiffreAffairesAnnuel",
          "type": "uint256"
        },
        {
          "indexed": false,
          "internalType": "uint256",
          "name": "typeCommerce",
          "type": "uint256"
        },
        {
          "indexed": true,
          "internalType": "address",
          "name": "agentAddress",
          "type": "address"
        }
      ],
      "name": "CommerceAjoute",
      "type": "event"
    },
    {
      "anonymous": false,
      "inputs": [
        {
          "indexed": false,
          "internalType": "uint256",
          "name": "id",
          "type": "uint256"
        },
        {
          "indexed": true,
          "internalType": "address",
          "name": "contribuableAddress",
          "type": "address"
        },
        {
          "indexed": false,
          "internalType": "string",
          "name": "nom",
          "type": "string"
        },
        {
          "indexed": false,
          "internalType": "string",
          "name": "prenom",
          "type": "string"
        },
        {
          "indexed": false,
          "internalType": "string",
          "name": "adresse",
          "type": "string"
        },
        {
          "indexed": false,
          "internalType": "string",
          "name": "email",
          "type": "string"
        },
        {
          "indexed": false,
          "internalType": "uint256",
          "name": "telephone",
          "type": "uint256"
        }
      ],
      "name": "ContribuableAjoute",
      "type": "event"
    },
    {
      "anonymous": false,
      "inputs": [
        {
          "indexed": false,
          "internalType": "uint256",
          "name": "id",
          "type": "uint256"
        },
        {
          "indexed": false,
          "internalType": "string",
          "name": "nom",
          "type": "string"
        },
        {
          "indexed": false,
          "internalType": "uint256",
          "name": "tarifAnnuel",
          "type": "uint256"
        },
        {
          "indexed": false,
          "internalType": "string",
          "name": "description",
          "type": "string"
        }
      ],
      "name": "TypeCommerceAjoute",
      "type": "event"
    },
    {
      "inputs": [],
      "name": "admin",
      "outputs": [
        {
          "internalType": "address",
          "name": "",
          "type": "address"
        }
      ],
      "stateMutability": "view",
      "type": "function",
      "constant": true
    },
    {
      "inputs": [
        {
          "internalType": "address",
          "name": "",
          "type": "address"
        }
      ],
      "name": "admins",
      "outputs": [
        {
          "internalType": "uint256",
          "name": "id",
          "type": "uint256"
        },
        {
          "internalType": "string",
          "name": "nom",
          "type": "string"
        },
        {
          "internalType": "string",
          "name": "prenom",
          "type": "string"
        },
        {
          "internalType": "string",
          "name": "adresse",
          "type": "string"
        },
        {
          "internalType": "string",
          "name": "email",
          "type": "string"
        },
        {
          "internalType": "uint256",
          "name": "telephone",
          "type": "uint256"
        },
        {
          "internalType": "bool",
          "name": "estEnregistre",
          "type": "bool"
        }
      ],
      "stateMutability": "view",
      "type": "function",
      "constant": true
    },
    {
      "inputs": [],
      "name": "agentCount",
      "outputs": [
        {
          "internalType": "uint256",
          "name": "",
          "type": "uint256"
        }
      ],
      "stateMutability": "view",
      "type": "function",
      "constant": true
    },
    {
      "inputs": [
        {
          "internalType": "address",
          "name": "",
          "type": "address"
        }
      ],
      "name": "agents",
      "outputs": [
        {
          "internalType": "uint256",
          "name": "id",
          "type": "uint256"
        },
        {
          "internalType": "address",
          "name": "ethAddress",
          "type": "address"
        },
        {
          "internalType": "string",
          "name": "nom",
          "type": "string"
        },
        {
          "internalType": "string",
          "name": "prenom",
          "type": "string"
        },
        {
          "internalType": "string",
          "name": "adresse",
          "type": "string"
        },
        {
          "internalType": "string",
          "name": "email",
          "type": "string"
        },
        {
          "internalType": "uint256",
          "name": "telephone",
          "type": "uint256"
        },
        {
          "internalType": "bool",
          "name": "estEnregistre",
          "type": "bool"
        }
      ],
      "stateMutability": "view",
      "type": "function",
      "constant": true
    },
    {
      "inputs": [],
      "name": "commerceCount",
      "outputs": [
        {
          "internalType": "uint256",
          "name": "",
          "type": "uint256"
        }
      ],
      "stateMutability": "view",
      "type": "function",
      "constant": true
    },
    {
      "inputs": [
        {
          "internalType": "uint256",
          "name": "",
          "type": "uint256"
        }
      ],
      "name": "commerces",
      "outputs": [
        {
          "internalType": "uint256",
          "name": "id",
          "type": "uint256"
        },
        {
          "internalType": "string",
          "name": "nom",
          "type": "string"
        },
        {
          "internalType": "string",
          "name": "adresse",
          "type": "string"
        },
        {
          "internalType": "address",
          "name": "contribuableAddress",
          "type": "address"
        },
        {
          "internalType": "uint256",
          "name": "chiffreAffairesAnnuel",
          "type": "uint256"
        },
        {
          "internalType": "uint256",
          "name": "typeCommerce",
          "type": "uint256"
        },
        {
          "internalType": "address",
          "name": "agentAddress",
          "type": "address"
        },
        {
          "internalType": "bool",
          "name": "estEnregistre",
          "type": "bool"
        }
      ],
      "stateMutability": "view",
      "type": "function",
      "constant": true
    },
    {
      "inputs": [],
      "name": "contribuableCount",
      "outputs": [
        {
          "internalType": "uint256",
          "name": "",
          "type": "uint256"
        }
      ],
      "stateMutability": "view",
      "type": "function",
      "constant": true
    },
    {
      "inputs": [
        {
          "internalType": "address",
          "name": "",
          "type": "address"
        }
      ],
      "name": "contribuables",
      "outputs": [
        {
          "internalType": "uint256",
          "name": "id",
          "type": "uint256"
        },
        {
          "internalType": "address",
          "name": "ethAddress",
          "type": "address"
        },
        {
          "internalType": "string",
          "name": "nom",
          "type": "string"
        },
        {
          "internalType": "string",
          "name": "prenom",
          "type": "string"
        },
        {
          "internalType": "string",
          "name": "adresse",
          "type": "string"
        },
        {
          "internalType": "string",
          "name": "email",
          "type": "string"
        },
        {
          "internalType": "uint256",
          "name": "telephone",
          "type": "uint256"
        },
        {
          "internalType": "bool",
          "name": "estEnregistre",
          "type": "bool"
        }
      ],
      "stateMutability": "view",
      "type": "function",
      "constant": true
    },
    {
      "inputs": [
        {
          "internalType": "address",
          "name": "",
          "type": "address"
        }
      ],
      "name": "estAgent",
      "outputs": [
        {
          "internalType": "bool",
          "name": "",
          "type": "bool"
        }
      ],
      "stateMutability": "view",
      "type": "function",
      "constant": true
    },
    {
      "inputs": [
        {
          "internalType": "address",
          "name": "",
          "type": "address"
        }
      ],
      "name": "estContribuable",
      "outputs": [
        {
          "internalType": "bool",
          "name": "",
          "type": "bool"
        }
      ],
      "stateMutability": "view",
      "type": "function",
      "constant": true
    },
    {
      "inputs": [],
      "name": "typeCommerceCount",
      "outputs": [
        {
          "internalType": "uint256",
          "name": "",
          "type": "uint256"
        }
      ],
      "stateMutability": "view",
      "type": "function",
      "constant": true
    },
    {
      "inputs": [
        {
          "internalType": "uint256",
          "name": "",
          "type": "uint256"
        }
      ],
      "name": "typesCommerce",
      "outputs": [
        {
          "internalType": "uint256",
          "name": "id",
          "type": "uint256"
        },
        {
          "internalType": "string",
          "name": "nom",
          "type": "string"
        },
        {
          "internalType": "uint256",
          "name": "tarifAnnuel",
          "type": "uint256"
        },
        {
          "internalType": "string",
          "name": "description",
          "type": "string"
        },
        {
          "internalType": "bool",
          "name": "estEnregistre",
          "type": "bool"
        }
      ],
      "stateMutability": "view",
      "type": "function",
      "constant": true
    },
    {
      "inputs": [
        {
          "internalType": "address",
          "name": "_ethAddress",
          "type": "address"
        },
        {
          "internalType": "string",
          "name": "_nom",
          "type": "string"
        },
        {
          "internalType": "string",
          "name": "_prenom",
          "type": "string"
        },
        {
          "internalType": "string",
          "name": "_adresse",
          "type": "string"
        },
        {
          "internalType": "string",
          "name": "_email",
          "type": "string"
        },
        {
          "internalType": "uint256",
          "name": "_telephone",
          "type": "uint256"
        }
      ],
      "name": "ajouterAgent",
      "outputs": [],
      "stateMutability": "nonpayable",
      "type": "function"
    },
    {
      "inputs": [
        {
          "internalType": "address",
          "name": "_ethAddress",
          "type": "address"
        },
        {
          "internalType": "string",
          "name": "_nom",
          "type": "string"
        },
        {
          "internalType": "string",
          "name": "_prenom",
          "type": "string"
        },
        {
          "internalType": "string",
          "name": "_adresse",
          "type": "string"
        },
        {
          "internalType": "string",
          "name": "_email",
          "type": "string"
        },
        {
          "internalType": "uint256",
          "name": "_telephone",
          "type": "uint256"
        }
      ],
      "name": "ajouterContribuable",
      "outputs": [],
      "stateMutability": "nonpayable",
      "type": "function"
    },
    {
      "inputs": [
        {
          "internalType": "string",
          "name": "_nom",
          "type": "string"
        },
        {
          "internalType": "string",
          "name": "_adresse",
          "type": "string"
        },
        {
          "internalType": "address",
          "name": "_contribuableAddress",
          "type": "address"
        },
        {
          "internalType": "uint256",
          "name": "_chiffreAffairesAnnuel",
          "type": "uint256"
        },
        {
          "internalType": "uint256",
          "name": "_typeCommerce",
          "type": "uint256"
        }
      ],
      "name": "ajouterCommerce",
      "outputs": [],
      "stateMutability": "nonpayable",
      "type": "function"
    },
    {
      "inputs": [
        {
          "internalType": "string",
          "name": "_nom",
          "type": "string"
        },
        {
          "internalType": "uint256",
          "name": "_tarifAnnuel",
          "type": "uint256"
        },
        {
          "internalType": "string",
          "name": "_description",
          "type": "string"
        }
      ],
      "name": "ajouterTypeCommerce",
      "outputs": [],
      "stateMutability": "nonpayable",
      "type": "function"
    },
    {
      "inputs": [
        {
          "internalType": "address",
          "name": "_adresse",
          "type": "address"
        }
      ],
      "name": "getTypeUtilisateur",
      "outputs": [
        {
          "internalType": "string",
          "name": "",
          "type": "string"
        }
      ],
      "stateMutability": "view",
      "type": "function",
      "constant": true
    }
  ],
  "bytecode": "0x6080604052600060085560006009556000600a556000600b5534801561002457600080fd5b50600080546001600160a01b03191633179055611b41806100466000396000f3fe608060405234801561001057600080fd5b506004361061010b5760003560e01c8063b7dc1284116100a2578063d86c73b411610071578063d86c73b414610229578063e0a1cce61461025c578063e32fa53c1461027f578063f851a440146102a3578063fd66091e146102ce57600080fd5b8063b7dc1284146101e7578063ba63a5de146101f0578063c295528814610203578063c72886571461021657600080fd5b806382d22bf6116100de57806382d22bf61461017b57806388fe4d82146101a25780639209d938146101c9578063acd464ed146101d257600080fd5b8063112007e51461011057806336307c2e1461012c578063429b62e5146101355780637a84e6801461015b575b600080fd5b61011960095481565b6040519081526020015b60405180910390f35b610119600a5481565b610148610143366004611427565b6102e1565b604051610123979695949392919061148f565b61016e610169366004611427565b610540565b60405161012391906114fe565b61018e610189366004611427565b61062d565b604051610123989796959493929190611511565b6101b56101b0366004611593565b61089c565b6040516101239897969594939291906115ac565b61011960085481565b6101e56101e03660046116b9565b610a00565b005b610119600b5481565b6101e56101fe36600461177f565b610c62565b6101e56102113660046116b9565b610dc1565b6101e56102243660046117ec565b611000565b61024c610237366004611427565b60016020526000908152604090205460ff1681565b6040519015158152602001610123565b61024c61026a366004611427565b60026020526000908152604090205460ff1681565b61029261028d366004611593565b61129c565b604051610123959493929190611872565b6000546102b6906001600160a01b031681565b6040516001600160a01b039091168152602001610123565b61018e6102dc366004611427565b6113de565b60036020526000908152604090208054600182018054919291610303906118b8565b80601f016020809104026020016040519081016040528092919081815260200182805461032f906118b8565b801561037c5780601f106103515761010080835404028352916020019161037c565b820191906000526020600020905b81548152906001019060200180831161035f57829003601f168201915b505050505090806002018054610391906118b8565b80601f01602080910402602001604051908101604052809291908181526020018280546103bd906118b8565b801561040a5780601f106103df5761010080835404028352916020019161040a565b820191906000526020600020905b8154815290600101906020018083116103ed57829003601f168201915b50505050509080600301805461041f906118b8565b80601f016020809104026020016040519081016040528092919081815260200182805461044b906118b8565b80156104985780601f1061046d57610100808354040283529160200191610498565b820191906000526020600020905b81548152906001019060200180831161047b57829003601f168201915b5050505050908060040180546104ad906118b8565b80601f01602080910402602001604051908101604052809291908181526020018280546104d9906118b8565b80156105265780601f106104fb57610100808354040283529160200191610526565b820191906000526020600020905b81548152906001019060200180831161050957829003601f168201915b50505050600583015460069093015491929160ff16905087565b6001600160a01b03811660009081526001602052604090205460609060ff16156105855750506040805180820190915260058152641059d95b9d60da1b602082015290565b6001600160a01b03821660009081526002602052604090205460ff16156105ce57505060408051808201909152600c81526b436f6e747269627561626c6560a01b602082015290565b6000546001600160a01b039081169083160361060557505060408051808201909152600581526420b236b4b760d91b602082015290565b5050604080518082019091526007815266496e636f6e6e7560c81b602082015290565b919050565b60056020526000908152604090208054600182015460028301805492936001600160a01b039092169261065f906118b8565b80601f016020809104026020016040519081016040528092919081815260200182805461068b906118b8565b80156106d85780601f106106ad576101008083540402835291602001916106d8565b820191906000526020600020905b8154815290600101906020018083116106bb57829003601f168201915b5050505050908060030180546106ed906118b8565b80601f0160208091040260200160405190810160405280929190818152602001828054610719906118b8565b80156107665780601f1061073b57610100808354040283529160200191610766565b820191906000526020600020905b81548152906001019060200180831161074957829003601f168201915b50505050509080600401805461077b906118b8565b80601f01602080910402602001604051908101604052809291908181526020018280546107a7906118b8565b80156107f45780601f106107c9576101008083540402835291602001916107f4565b820191906000526020600020905b8154815290600101906020018083116107d757829003601f168201915b505050505090806005018054610809906118b8565b80601f0160208091040260200160405190810160405280929190818152602001828054610835906118b8565b80156108825780601f1061085757610100808354040283529160200191610882565b820191906000526020600020905b81548152906001019060200180831161086557829003601f168201915b50505050600683015460079093015491929160ff16905088565b600660205260009081526040902080546001820180549192916108be906118b8565b80601f01602080910402602001604051908101604052809291908181526020018280546108ea906118b8565b80156109375780601f1061090c57610100808354040283529160200191610937565b820191906000526020600020905b81548152906001019060200180831161091a57829003601f168201915b50505050509080600201805461094c906118b8565b80601f0160208091040260200160405190810160405280929190818152602001828054610978906118b8565b80156109c55780601f1061099a576101008083540402835291602001916109c5565b820191906000526020600020905b8154815290600101906020018083116109a857829003601f168201915b5050505060038301546004840154600585015460069095015493946001600160a01b039283169491935091811690600160a01b900460ff1688565b6000546001600160a01b03163314610a7a5760405162461bcd60e51b815260206004820152603260248201527f5365756c206c2761646d696e69737472617465757220706575742065666665636044820152713a3ab2b91031b2ba3a329030b1ba34b7b71760711b60648201526084015b60405180910390fd5b6001600160a01b03861660009081526002602052604090205460ff1615610aef5760405162461bcd60e51b8152602060048201526024808201527f436520636f6e747269627561626c65206573742064656a6120656e72656769736044820152633a39329760e11b6064820152608401610a71565b604080516101008101825260085481526001600160a01b0388811660208084018281528486018b8152606086018b9052608086018a905260a0860189905260c08601889052600160e0870181905260009485526002808552888620805460ff19168317905560059094529690932085518155905195810180546001600160a01b031916969094169590951790925551919283929091820190610b919082611941565b5060608201516003820190610ba69082611941565b5060808201516004820190610bbb9082611941565b5060a08201516005820190610bd09082611941565b5060c0820151600682015560e0909101516007909101805460ff19169115159190911790556008546040516001600160a01b038916917f5377fc3a0d1acfbadf93cfb8313f7552d4d59b4a85af2e0f3879c5a77ce3483991610c3c91908a908a908a908a908a90611a01565b60405180910390a260088054906000610c5483611a68565b919050555050505050505050565b6000546001600160a01b03163314610cd75760405162461bcd60e51b815260206004820152603260248201527f5365756c206c2761646d696e69737472617465757220706575742065666665636044820152713a3ab2b91031b2ba3a329030b1ba34b7b71760711b6064820152608401610a71565b6040805160a081018252600a548082526020808301878152838501879052606084018690526001608085018190526000938452600790925293909120825181559251919283929091820190610d2c9082611941565b506040820151600282015560608201516003820190610d4b9082611941565b50608091909101516004909101805460ff1916911515919091179055600a546040517fad41b734ecb9be6df5eca3a8b8dd3ae6b6db0e040898fecf65cbdcaf60a1faf691610d9e91879087908790611a8f565b60405180910390a1600a8054906000610db683611a68565b919050555050505050565b6000546001600160a01b03163314610e365760405162461bcd60e51b815260206004820152603260248201527f5365756c206c2761646d696e69737472617465757220706575742065666665636044820152713a3ab2b91031b2ba3a329030b1ba34b7b71760711b6064820152608401610a71565b6001600160a01b03861660009081526001602052604090205460ff1615610e9f5760405162461bcd60e51b815260206004820152601e60248201527f436574206167656e74206573742064656a6120656e72656769737472652e00006044820152606401610a71565b6040805161010081018252600b5481526001600160a01b0388811660208084018281528486018b8152606086018b9052608086018a905260a0860189905260c08601889052600160e087018190526000948552808452878520805460ff19168217905560049093529590922084518155915190820180546001600160a01b03191691909316179091559151909182916002820190610f3d9082611941565b5060608201516003820190610f529082611941565b5060808201516004820190610f679082611941565b5060a08201516005820190610f7c9082611941565b5060c0820151600682015560e0909101516007909101805460ff1916911515919091179055600b546040516001600160a01b038916917f6bc5eee2e5fedec0fb676fcb822681fadbb0adbaf4bf1df000abfa56851d19e491610fe891908a908a908a908a908a90611a01565b60405180910390a2600b8054906000610c5483611a68565b3360009081526001602052604090205460ff166110855760405162461bcd60e51b815260206004820152603060248201527f5365756c73206c6573206167656e74732070657576656e74206566666563747560448201527f657220636574746520616374696f6e2e000000000000000000000000000000006064820152608401610a71565b6001600160a01b03831660009081526002602052604090205460ff166111135760405162461bcd60e51b815260206004820152603e60248201527f4c6520636f6e747269627561626c6520646f6974206574726520656e7265676960448201527f7374726520706f757220616a6f7574657220756e20636f6d6d657263652e00006064820152608401610a71565b604080516101008101825260095480825260208083018981528385018990526001600160a01b03881660608501526080840187905260a084018690523360c0850152600160e0850181905260009384526006909252939091208251815592519192839290918201906111859082611941565b506040820151600282019061119a9082611941565b5060608201516003820180546001600160a01b0319166001600160a01b039283161790556080830151600483015560a0830151600583015560c08301516006909201805460e0909401519290911674ffffffffffffffffffffffffffffffffffffffffff1990931692909217600160a01b911515919091021790556009805490600061122583611a68565b9190505550336001600160a01b0316846001600160a01b03167fc3201a38ac25c9b556d13b7a8f05dc9d6d6784045e9da7aa53e0079ff6ea6b5960095489898888604051611277959493929190611acb565b60405180910390a36009805490600061128f83611a68565b9190505550505050505050565b600760205260009081526040902080546001820180549192916112be906118b8565b80601f01602080910402602001604051908101604052809291908181526020018280546112ea906118b8565b80156113375780601f1061130c57610100808354040283529160200191611337565b820191906000526020600020905b81548152906001019060200180831161131a57829003601f168201915b505050505090806002015490806003018054611352906118b8565b80601f016020809104026020016040519081016040528092919081815260200182805461137e906118b8565b80156113cb5780601f106113a0576101008083540402835291602001916113cb565b820191906000526020600020905b8154815290600101906020018083116113ae57829003601f168201915b5050506004909301549192505060ff1685565b60046020526000908152604090208054600182015460028301805492936001600160a01b039092169261065f906118b8565b80356001600160a01b038116811461062857600080fd5b60006020828403121561143957600080fd5b61144282611410565b9392505050565b6000815180845260005b8181101561146f57602081850181015186830182015201611453565b506000602082860101526020601f19601f83011685010191505092915050565b87815260e0602082015260006114a860e0830189611449565b82810360408401526114ba8189611449565b905082810360608401526114ce8188611449565b905082810360808401526114e28187611449565b60a0840195909552505090151560c09091015295945050505050565b6020815260006114426020830184611449565b60006101008a83526001600160a01b038a16602084015280604084015261153a8184018a611449565b9050828103606084015261154e8189611449565b905082810360808401526115628188611449565b905082810360a08401526115768187611449565b60c0840195909552505090151560e0909101529695505050505050565b6000602082840312156115a557600080fd5b5035919050565b60006101008a83528060208401526115c68184018b611449565b905082810360408401526115da818a611449565b6001600160a01b0398891660608501526080840197909752505060a0810193909352931660c082015291151560e0909201919091529392505050565b634e487b7160e01b600052604160045260246000fd5b600082601f83011261163d57600080fd5b813567ffffffffffffffff8082111561165857611658611616565b604051601f8301601f19908116603f0116810190828211818310171561168057611680611616565b8160405283815286602085880101111561169957600080fd5b836020870160208301376000602085830101528094505050505092915050565b60008060008060008060c087890312156116d257600080fd5b6116db87611410565b9550602087013567ffffffffffffffff808211156116f857600080fd5b6117048a838b0161162c565b9650604089013591508082111561171a57600080fd5b6117268a838b0161162c565b9550606089013591508082111561173c57600080fd5b6117488a838b0161162c565b9450608089013591508082111561175e57600080fd5b5061176b89828a0161162c565b92505060a087013590509295509295509295565b60008060006060848603121561179457600080fd5b833567ffffffffffffffff808211156117ac57600080fd5b6117b88783880161162c565b94506020860135935060408601359150808211156117d557600080fd5b506117e28682870161162c565b9150509250925092565b600080600080600060a0868803121561180457600080fd5b853567ffffffffffffffff8082111561181c57600080fd5b61182889838a0161162c565b9650602088013591508082111561183e57600080fd5b5061184b8882890161162c565b94505061185a60408701611410565b94979396509394606081013594506080013592915050565b85815260a06020820152600061188b60a0830187611449565b85604084015282810360608401526118a38186611449565b91505082151560808301529695505050505050565b600181811c908216806118cc57607f821691505b6020821081036118ec57634e487b7160e01b600052602260045260246000fd5b50919050565b601f82111561193c57600081815260208120601f850160051c810160208610156119195750805b601f850160051c820191505b8181101561193857828155600101611925565b5050505b505050565b815167ffffffffffffffff81111561195b5761195b611616565b61196f8161196984546118b8565b846118f2565b602080601f8311600181146119a4576000841561198c5750858301515b600019600386901b1c1916600185901b178555611938565b600085815260208120601f198616915b828110156119d3578886015182559484019460019091019084016119b4565b50858210156119f15787850151600019600388901b60f8161c191681555b5050505050600190811b01905550565b86815260c060208201526000611a1a60c0830188611449565b8281036040840152611a2c8188611449565b90508281036060840152611a408187611449565b90508281036080840152611a548186611449565b9150508260a0830152979650505050505050565b600060018201611a8857634e487b7160e01b600052601160045260246000fd5b5060010190565b848152608060208201526000611aa86080830186611449565b8460408401528281036060840152611ac08185611449565b979650505050505050565b85815260a060208201526000611ae460a0830187611449565b8281036040840152611af68187611449565b6060840195909552505060800152939250505056fea2646970667358221220d2778f9c71b87323057cfedf87384feec9483591679b5483f9741b970819ec6864736f6c63430008130033",
  "immutableReferences": {},
  "source": "// SPDX-License-Identifier: MIT\npragma solidity >=0.4.22 <0.9.0;\n\n// // Contrat pour la gestion des taxes\n\ncontract TaxManagement {\n\n\n\n    event AgentAjoute(uint id, address indexed agentAddress, string nom, string prenom, string adresse, string email, uint256 telephone);\n  event ContribuableAjoute(uint id, address indexed contribuableAddress, string nom, string prenom, string adresse, string email, uint256 telephone);\n  event CommerceAjoute(uint id, string nom, string adresse, address indexed contribuableAddress, uint chiffreAffairesAnnuel, uint typeCommerce, address indexed agentAddress);\n  event TypeCommerceAjoute(uint id, string nom, uint tarifAnnuel, string description);\n    address public admin;\n    mapping(address => bool) public estAgent;\n    mapping(address => bool) public estContribuable;\n    mapping(address => Admin) public admins;\n    mapping(address => Agent) public agents;\n    mapping(address => Contribuable) public contribuables;\n    mapping(uint => Commerce) public commerces;\n    mapping(uint => TypeCommerce) public typesCommerce;\n    \n    uint public contribuableCount = 0;\n    uint public commerceCount = 0;\n    uint public typeCommerceCount = 0;\n    uint public agentCount = 0; \n    struct Admin {\n        uint id;\n        string nom;\n        string prenom;\n        string adresse;\n        string email;\n        uint telephone;\n        bool estEnregistre;\n    }\n    \n    struct Agent {\n        uint id;\n        address ethAddress; // Adresse Ethereum de l'agent\n        string nom;\n        string prenom;\n        string adresse;\n        string email;\n        uint telephone;\n        bool estEnregistre;\n    }\n    \n    struct Contribuable {\n        uint id;\n        address ethAddress; // Adresse Ethereum du contribuable\n        string nom;\n        string prenom;\n        string adresse;\n        string email;\n        uint telephone;\n        bool estEnregistre;\n    }\n    \n    struct Commerce {\n        uint id;\n        string nom;\n        string adresse;\n        address contribuableAddress; // Adresse Ethereum du contribuable qui ajoute le commerce\n        uint chiffreAffairesAnnuel;\n        uint typeCommerce;\n        address agentAddress; // Adresse Ethereum de l'agent qui ajoute le commerce\n        bool estEnregistre;\n    }\n    \n    struct TypeCommerce {\n        uint id;\n        string nom;\n        uint tarifAnnuel;\n        string description; \n        bool estEnregistre;\n    }\n    \n    constructor() {\n        admin = msg.sender;\n    }\n    \n    modifier seulementAdmin() {\n        require(msg.sender == admin, \"Seul l'administrateur peut effectuer cette action.\");\n        _;\n    }\n    \n    modifier seulementAgent() {\n        require(estAgent[msg.sender], \"Seuls les agents peuvent effectuer cette action.\");\n        _;\n    }\n    \n    modifier seulementContribuable() {\n        require(estContribuable[msg.sender], \"Seuls les contribuables peuvent effectuer cette action.\");\n        _;\n    }\n    \n    function ajouterAgent(address _ethAddress, string memory _nom, string memory _prenom, string memory _adresse, string memory _email, uint _telephone) public seulementAdmin {\n        require(!estAgent[_ethAddress], \"Cet agent est deja enregistre.\");\n        \n        Agent memory nouvelAgent = Agent({\n            id: agentCount,\n            ethAddress: _ethAddress,\n            nom: _nom,\n            prenom: _prenom,\n            adresse: _adresse,\n            email: _email,\n            telephone: _telephone,\n            estEnregistre: true\n        });\n        \n        estAgent[_ethAddress] = true;\n        agents[_ethAddress] = nouvelAgent;\n\n            emit AgentAjoute(agentCount, _ethAddress, _nom, _prenom, _adresse, _email, _telephone);\n        agentCount++;\n    }\n\n    \n    function ajouterContribuable( address _ethAddress, string memory _nom, string memory _prenom, string memory _adresse, string memory _email, uint _telephone) public seulementAdmin {\n        require(!estContribuable[_ethAddress], \"Ce contribuable est deja enregistre.\");\n        \n        Contribuable memory nouveauContribuable = Contribuable({\n            id: contribuableCount,\n            ethAddress: _ethAddress,\n            nom: _nom,\n            prenom: _prenom,\n            adresse: _adresse,\n            email: _email,\n            telephone: _telephone,\n            estEnregistre: true\n        });\n        estContribuable[_ethAddress] = true;\n        contribuables[_ethAddress] = nouveauContribuable;\n            emit ContribuableAjoute(contribuableCount, _ethAddress, _nom, _prenom, _adresse, _email, _telephone);\n        contribuableCount++;\n\n    }\n    \n    function ajouterCommerce(string memory _nom, string memory _adresse, address _contribuableAddress, uint _chiffreAffairesAnnuel, uint _typeCommerce) public seulementAgent {\n        require(estContribuable[_contribuableAddress], \"Le contribuable doit etre enregistre pour ajouter un commerce.\");\n        \n        Commerce memory nouveauCommerce = Commerce({\n            id: commerceCount,\n            nom: _nom,\n            adresse: _adresse,\n            contribuableAddress: _contribuableAddress,\n            chiffreAffairesAnnuel: _chiffreAffairesAnnuel,\n            typeCommerce: _typeCommerce,\n            agentAddress: msg.sender, // Adresse Ethereum de l'agent qui ajoute le commerce\n            estEnregistre: true\n        });\n        \n        commerces[commerceCount] = nouveauCommerce;\n        commerceCount++;\n\n    emit CommerceAjoute(commerceCount, _nom, _adresse, _contribuableAddress, _chiffreAffairesAnnuel, _typeCommerce, msg.sender);\n    commerceCount++;\n    }\n    \n    function ajouterTypeCommerce( string memory _nom, uint _tarifAnnuel, string memory _description) public seulementAdmin {\n        TypeCommerce memory nouveauTypeCommerce = TypeCommerce({\n            id: typeCommerceCount,\n            nom: _nom,\n            tarifAnnuel: _tarifAnnuel,\n            description: _description,\n            estEnregistre: true\n        });\n        \n        typesCommerce[typeCommerceCount] = nouveauTypeCommerce;\n     emit TypeCommerceAjoute(typeCommerceCount, _nom, _tarifAnnuel, _description);\n    typeCommerceCount++;\n    }\n\n    function getTypeUtilisateur(address _adresse) public view returns (string memory) {\n        if (estAgent[_adresse]) {\n            return \"Agent\";\n        } else if (estContribuable[_adresse]) {\n            return \"Contribuable\";\n        } else if (_adresse == admin) {\n            return \"Admin\";\n        } else {\n            return \"Inconnu\";\n        }\n    }\n\n}\n",
  "sourcePath": "D:\\PFE\\pfe_block\\smartContracts\\contracts\\TaxManagement.sol",
  "compiler": {
    "name": "solc",
    "version": "0.8.19+commit.7dd6d404.Emscripten.clang"
  },
  "schemaVersion": "3.4.15",
  "updatedAt": "2023-09-05T19:28:23.411Z",
  "networkType": "ethereum",
  "devdoc": {
    "kind": "dev",
    "methods": {},
    "version": 1
  },
  "userdoc": {
    "kind": "user",
    "methods": {},
    "version": 1
  }
}