{
  "contractName": "TaxManagement",
  "abi": [
    {
      "inputs": [],
      "stateMutability": "nonpayable",
      "type": "constructor"
    },
    {
      "anonymous": false,
      "inputs": [
        {
          "indexed": false,
          "internalType": "uint256",
          "name": "idOccupation",
          "type": "uint256"
        },
        {
          "indexed": false,
          "internalType": "uint256",
          "name": "idMarche",
          "type": "uint256"
        },
        {
          "indexed": false,
          "internalType": "string",
          "name": "dateDebut",
          "type": "string"
        },
        {
          "indexed": false,
          "internalType": "string",
          "name": "dateFin",
          "type": "string"
        },
        {
          "indexed": false,
          "internalType": "uint256",
          "name": "idContribuable",
          "type": "uint256"
        }
      ],
      "name": "DemandeOccupationCreee",
      "type": "event"
    },
    {
      "anonymous": false,
      "inputs": [
        {
          "indexed": false,
          "internalType": "uint256",
          "name": "idOccupation",
          "type": "uint256"
        },
        {
          "indexed": false,
          "internalType": "uint256",
          "name": "idMarche",
          "type": "uint256"
        },
        {
          "indexed": false,
          "internalType": "uint256",
          "name": "place",
          "type": "uint256"
        },
        {
          "indexed": false,
          "internalType": "string",
          "name": "dateDebut",
          "type": "string"
        },
        {
          "indexed": false,
          "internalType": "string",
          "name": "dateFin",
          "type": "string"
        },
        {
          "indexed": false,
          "internalType": "uint256",
          "name": "idContribuable",
          "type": "uint256"
        },
        {
          "indexed": false,
          "internalType": "address",
          "name": "agent",
          "type": "address"
        }
      ],
      "name": "DemandeOccupationValidee",
      "type": "event"
    },
    {
      "anonymous": false,
      "inputs": [
        {
          "indexed": true,
          "internalType": "uint256",
          "name": "marcheId",
          "type": "uint256"
        },
        {
          "indexed": true,
          "internalType": "uint256",
          "name": "date",
          "type": "uint256"
        },
        {
          "indexed": false,
          "internalType": "uint256",
          "name": "contributeur",
          "type": "uint256"
        },
        {
          "indexed": false,
          "internalType": "uint256",
          "name": "place",
          "type": "uint256"
        }
      ],
      "name": "PlaceOccupee",
      "type": "event"
    },
    {
      "anonymous": false,
      "inputs": [
        {
          "indexed": false,
          "internalType": "uint256",
          "name": "id",
          "type": "uint256"
        },
        {
          "indexed": false,
          "internalType": "uint256",
          "name": "contribuableId",
          "type": "uint256"
        },
        {
          "indexed": false,
          "internalType": "uint256",
          "name": "droitFixe",
          "type": "uint256"
        },
        {
          "indexed": false,
          "internalType": "uint256",
          "name": "droitProportionnelle",
          "type": "uint256"
        },
        {
          "indexed": false,
          "internalType": "uint256",
          "name": "annePaiement",
          "type": "uint256"
        },
        {
          "indexed": false,
          "internalType": "uint256",
          "name": "sommePayee",
          "type": "uint256"
        },
        {
          "indexed": false,
          "internalType": "bool",
          "name": "estPayee",
          "type": "bool"
        }
      ],
      "name": "patentePayer",
      "type": "event"
    },
    {
      "inputs": [
        {
          "internalType": "uint256",
          "name": "",
          "type": "uint256"
        }
      ],
      "name": "activitePrincipale",
      "outputs": [
        {
          "internalType": "uint256",
          "name": "id",
          "type": "uint256"
        },
        {
          "internalType": "string",
          "name": "nom",
          "type": "string"
        },
        {
          "internalType": "uint256",
          "name": "droitFixeAnnuel",
          "type": "uint256"
        },
        {
          "internalType": "string",
          "name": "description",
          "type": "string"
        },
        {
          "internalType": "bool",
          "name": "estEnregistre",
          "type": "bool"
        }
      ],
      "stateMutability": "view",
      "type": "function",
      "constant": true
    },
    {
      "inputs": [],
      "name": "activitePrincipaleCount",
      "outputs": [
        {
          "internalType": "uint256",
          "name": "",
          "type": "uint256"
        }
      ],
      "stateMutability": "view",
      "type": "function",
      "constant": true
    },
    {
      "inputs": [],
      "name": "admin",
      "outputs": [
        {
          "internalType": "address",
          "name": "",
          "type": "address"
        }
      ],
      "stateMutability": "view",
      "type": "function",
      "constant": true
    },
    {
      "inputs": [
        {
          "internalType": "address",
          "name": "",
          "type": "address"
        }
      ],
      "name": "admins",
      "outputs": [
        {
          "internalType": "uint256",
          "name": "id",
          "type": "uint256"
        },
        {
          "internalType": "string",
          "name": "nom",
          "type": "string"
        },
        {
          "internalType": "string",
          "name": "prenom",
          "type": "string"
        },
        {
          "internalType": "string",
          "name": "adresse",
          "type": "string"
        },
        {
          "internalType": "string",
          "name": "email",
          "type": "string"
        },
        {
          "internalType": "uint256",
          "name": "telephone",
          "type": "uint256"
        },
        {
          "internalType": "bool",
          "name": "estEnregistre",
          "type": "bool"
        }
      ],
      "stateMutability": "view",
      "type": "function",
      "constant": true
    },
    {
      "inputs": [],
      "name": "agentCount",
      "outputs": [
        {
          "internalType": "uint256",
          "name": "",
          "type": "uint256"
        }
      ],
      "stateMutability": "view",
      "type": "function",
      "constant": true
    },
    {
      "inputs": [
        {
          "internalType": "uint256",
          "name": "",
          "type": "uint256"
        }
      ],
      "name": "agents",
      "outputs": [
        {
          "internalType": "uint256",
          "name": "id",
          "type": "uint256"
        },
        {
          "internalType": "address",
          "name": "ethAddress",
          "type": "address"
        },
        {
          "internalType": "string",
          "name": "nom",
          "type": "string"
        },
        {
          "internalType": "string",
          "name": "prenom",
          "type": "string"
        },
        {
          "internalType": "string",
          "name": "adresse",
          "type": "string"
        },
        {
          "internalType": "string",
          "name": "email",
          "type": "string"
        },
        {
          "internalType": "uint256",
          "name": "telephone",
          "type": "uint256"
        },
        {
          "internalType": "bool",
          "name": "estEnregistre",
          "type": "bool"
        }
      ],
      "stateMutability": "view",
      "type": "function",
      "constant": true
    },
    {
      "inputs": [
        {
          "internalType": "uint256",
          "name": "",
          "type": "uint256"
        }
      ],
      "name": "allAgents",
      "outputs": [
        {
          "internalType": "uint256",
          "name": "id",
          "type": "uint256"
        },
        {
          "internalType": "address",
          "name": "ethAddress",
          "type": "address"
        },
        {
          "internalType": "string",
          "name": "nom",
          "type": "string"
        },
        {
          "internalType": "string",
          "name": "prenom",
          "type": "string"
        },
        {
          "internalType": "string",
          "name": "adresse",
          "type": "string"
        },
        {
          "internalType": "string",
          "name": "email",
          "type": "string"
        },
        {
          "internalType": "uint256",
          "name": "telephone",
          "type": "uint256"
        },
        {
          "internalType": "bool",
          "name": "estEnregistre",
          "type": "bool"
        }
      ],
      "stateMutability": "view",
      "type": "function",
      "constant": true
    },
    {
      "inputs": [],
      "name": "commerceCount",
      "outputs": [
        {
          "internalType": "uint256",
          "name": "",
          "type": "uint256"
        }
      ],
      "stateMutability": "view",
      "type": "function",
      "constant": true
    },
    {
      "inputs": [],
      "name": "contribuableCount",
      "outputs": [
        {
          "internalType": "uint256",
          "name": "",
          "type": "uint256"
        }
      ],
      "stateMutability": "view",
      "type": "function",
      "constant": true
    },
    {
      "inputs": [
        {
          "internalType": "uint256",
          "name": "",
          "type": "uint256"
        }
      ],
      "name": "contribuables",
      "outputs": [
        {
          "internalType": "uint256",
          "name": "id",
          "type": "uint256"
        },
        {
          "internalType": "address",
          "name": "ethAddress",
          "type": "address"
        },
        {
          "internalType": "string",
          "name": "nif",
          "type": "string"
        },
        {
          "internalType": "string",
          "name": "denomination",
          "type": "string"
        },
        {
          "internalType": "uint256",
          "name": "activitePrincipaleId",
          "type": "uint256"
        },
        {
          "internalType": "string",
          "name": "nom",
          "type": "string"
        },
        {
          "internalType": "string",
          "name": "prenom",
          "type": "string"
        },
        {
          "internalType": "string",
          "name": "adresse",
          "type": "string"
        },
        {
          "internalType": "string",
          "name": "email",
          "type": "string"
        },
        {
          "internalType": "uint256",
          "name": "contact",
          "type": "uint256"
        },
        {
          "internalType": "uint256",
          "name": "valeurLocative",
          "type": "uint256"
        },
        {
          "internalType": "uint256",
          "name": "nombreEmployes",
          "type": "uint256"
        },
        {
          "internalType": "string",
          "name": "anneeModification",
          "type": "string"
        },
        {
          "internalType": "uint256",
          "name": "agentId",
          "type": "uint256"
        },
        {
          "internalType": "string",
          "name": "typeContribuable",
          "type": "string"
        },
        {
          "internalType": "string",
          "name": "dateCreation",
          "type": "string"
        },
        {
          "internalType": "bool",
          "name": "estEnregistre",
          "type": "bool"
        }
      ],
      "stateMutability": "view",
      "type": "function",
      "constant": true
    },
    {
      "inputs": [],
      "name": "currentYear",
      "outputs": [
        {
          "internalType": "uint256",
          "name": "",
          "type": "uint256"
        }
      ],
      "stateMutability": "view",
      "type": "function",
      "constant": true
    },
    {
      "inputs": [],
      "name": "demandeOccupationCount",
      "outputs": [
        {
          "internalType": "uint256",
          "name": "",
          "type": "uint256"
        }
      ],
      "stateMutability": "view",
      "type": "function",
      "constant": true
    },
    {
      "inputs": [
        {
          "internalType": "uint256",
          "name": "",
          "type": "uint256"
        }
      ],
      "name": "demandesOccupation",
      "outputs": [
        {
          "internalType": "uint256",
          "name": "idOccupation",
          "type": "uint256"
        },
        {
          "internalType": "uint256",
          "name": "idMarche",
          "type": "uint256"
        },
        {
          "internalType": "string",
          "name": "dateDebut",
          "type": "string"
        },
        {
          "internalType": "string",
          "name": "dateFin",
          "type": "string"
        },
        {
          "internalType": "uint256",
          "name": "idContribuable",
          "type": "uint256"
        },
        {
          "internalType": "bool",
          "name": "estValidee",
          "type": "bool"
        }
      ],
      "stateMutability": "view",
      "type": "function",
      "constant": true
    },
    {
      "inputs": [
        {
          "internalType": "address",
          "name": "",
          "type": "address"
        }
      ],
      "name": "estAgent",
      "outputs": [
        {
          "internalType": "bool",
          "name": "",
          "type": "bool"
        }
      ],
      "stateMutability": "view",
      "type": "function",
      "constant": true
    },
    {
      "inputs": [
        {
          "internalType": "address",
          "name": "",
          "type": "address"
        }
      ],
      "name": "estContribuable",
      "outputs": [
        {
          "internalType": "bool",
          "name": "",
          "type": "bool"
        }
      ],
      "stateMutability": "view",
      "type": "function",
      "constant": true
    },
    {
      "inputs": [],
      "name": "marcheCount",
      "outputs": [
        {
          "internalType": "uint256",
          "name": "",
          "type": "uint256"
        }
      ],
      "stateMutability": "view",
      "type": "function",
      "constant": true
    },
    {
      "inputs": [
        {
          "internalType": "uint256",
          "name": "",
          "type": "uint256"
        }
      ],
      "name": "marches",
      "outputs": [
        {
          "internalType": "uint256",
          "name": "id",
          "type": "uint256"
        },
        {
          "internalType": "string",
          "name": "nom",
          "type": "string"
        },
        {
          "internalType": "uint256",
          "name": "nombrePlaces",
          "type": "uint256"
        },
        {
          "internalType": "uint256",
          "name": "prixPlace",
          "type": "uint256"
        },
        {
          "internalType": "uint256",
          "name": "placesOccupees",
          "type": "uint256"
        },
        {
          "internalType": "uint256",
          "name": "idAgent",
          "type": "uint256"
        }
      ],
      "stateMutability": "view",
      "type": "function",
      "constant": true
    },
    {
      "inputs": [
        {
          "internalType": "uint256",
          "name": "",
          "type": "uint256"
        }
      ],
      "name": "patentes",
      "outputs": [
        {
          "internalType": "uint256",
          "name": "id",
          "type": "uint256"
        },
        {
          "internalType": "uint256",
          "name": "contribuableId",
          "type": "uint256"
        },
        {
          "internalType": "uint256",
          "name": "droitFixe",
          "type": "uint256"
        },
        {
          "internalType": "uint256",
          "name": "droitProportionnel",
          "type": "uint256"
        },
        {
          "internalType": "uint256",
          "name": "anneePaiement",
          "type": "uint256"
        },
        {
          "internalType": "bool",
          "name": "estPayee",
          "type": "bool"
        }
      ],
      "stateMutability": "view",
      "type": "function",
      "constant": true
    },
    {
      "inputs": [],
      "name": "patentesCount",
      "outputs": [
        {
          "internalType": "uint256",
          "name": "",
          "type": "uint256"
        }
      ],
      "stateMutability": "view",
      "type": "function",
      "constant": true
    },
    {
      "inputs": [
        {
          "internalType": "uint256",
          "name": "idContribuable",
          "type": "uint256"
        },
        {
          "internalType": "uint256",
          "name": "_idMarche",
          "type": "uint256"
        },
        {
          "internalType": "string",
          "name": "_dateDebut",
          "type": "string"
        },
        {
          "internalType": "string",
          "name": "_dateFin",
          "type": "string"
        }
      ],
      "name": "creerDemandeOccupation",
      "outputs": [],
      "stateMutability": "nonpayable",
      "type": "function"
    },
    {
      "inputs": [
        {
          "internalType": "uint256",
          "name": "_idOccupation",
          "type": "uint256"
        }
      ],
      "name": "validerDemandeOccupation",
      "outputs": [],
      "stateMutability": "nonpayable",
      "type": "function"
    },
    {
      "inputs": [
        {
          "internalType": "uint256",
          "name": "_idOccupation",
          "type": "uint256"
        }
      ],
      "name": "getDemandeOccupation",
      "outputs": [
        {
          "components": [
            {
              "internalType": "uint256",
              "name": "idOccupation",
              "type": "uint256"
            },
            {
              "internalType": "uint256",
              "name": "idMarche",
              "type": "uint256"
            },
            {
              "internalType": "string",
              "name": "dateDebut",
              "type": "string"
            },
            {
              "internalType": "string",
              "name": "dateFin",
              "type": "string"
            },
            {
              "internalType": "uint256",
              "name": "idContribuable",
              "type": "uint256"
            },
            {
              "internalType": "bool",
              "name": "estValidee",
              "type": "bool"
            }
          ],
          "internalType": "struct TaxManagement.DemandeOccupation",
          "name": "",
          "type": "tuple"
        }
      ],
      "stateMutability": "view",
      "type": "function",
      "constant": true
    },
    {
      "inputs": [
        {
          "internalType": "address",
          "name": "_ethAddress",
          "type": "address"
        },
        {
          "internalType": "string",
          "name": "_nom",
          "type": "string"
        },
        {
          "internalType": "string",
          "name": "_prenom",
          "type": "string"
        },
        {
          "internalType": "string",
          "name": "_adresse",
          "type": "string"
        },
        {
          "internalType": "string",
          "name": "_email",
          "type": "string"
        },
        {
          "internalType": "uint256",
          "name": "_telephone",
          "type": "uint256"
        }
      ],
      "name": "ajouterAgent",
      "outputs": [],
      "stateMutability": "nonpayable",
      "type": "function"
    },
    {
      "inputs": [
        {
          "internalType": "address",
          "name": "_ethAddress",
          "type": "address"
        },
        {
          "internalType": "string",
          "name": "_nif",
          "type": "string"
        },
        {
          "internalType": "string",
          "name": "_denomination",
          "type": "string"
        },
        {
          "internalType": "uint256",
          "name": "_activitePrincipaleId",
          "type": "uint256"
        },
        {
          "internalType": "string",
          "name": "_nom",
          "type": "string"
        },
        {
          "internalType": "string",
          "name": "_prenom",
          "type": "string"
        },
        {
          "internalType": "string",
          "name": "_adresse",
          "type": "string"
        },
        {
          "internalType": "string",
          "name": "_email",
          "type": "string"
        },
        {
          "internalType": "uint256",
          "name": "_contact",
          "type": "uint256"
        },
        {
          "internalType": "string",
          "name": "_typeContribuable",
          "type": "string"
        },
        {
          "internalType": "string",
          "name": "_dateCreation",
          "type": "string"
        },
        {
          "internalType": "uint256",
          "name": "_valeurLocative",
          "type": "uint256"
        },
        {
          "internalType": "uint256",
          "name": "_nombreEmployee",
          "type": "uint256"
        },
        {
          "internalType": "string",
          "name": "_anneeModification",
          "type": "string"
        },
        {
          "internalType": "uint256",
          "name": "_agentId",
          "type": "uint256"
        }
      ],
      "name": "ajouterContribuable",
      "outputs": [],
      "stateMutability": "nonpayable",
      "type": "function"
    },
    {
      "inputs": [
        {
          "internalType": "string",
          "name": "_nom",
          "type": "string"
        },
        {
          "internalType": "uint256",
          "name": "_droitFixeAnnuel",
          "type": "uint256"
        },
        {
          "internalType": "string",
          "name": "_description",
          "type": "string"
        }
      ],
      "name": "ajouterActivitePrincipale",
      "outputs": [],
      "stateMutability": "nonpayable",
      "type": "function"
    },
    {
      "inputs": [
        {
          "internalType": "uint256",
          "name": "contribuableId",
          "type": "uint256"
        },
        {
          "internalType": "uint256",
          "name": "anneePaiement",
          "type": "uint256"
        }
      ],
      "name": "creerPatente",
      "outputs": [],
      "stateMutability": "nonpayable",
      "type": "function"
    },
    {
      "inputs": [
        {
          "internalType": "uint256",
          "name": "patenteId",
          "type": "uint256"
        },
        {
          "internalType": "uint256",
          "name": "sommePayee",
          "type": "uint256"
        }
      ],
      "name": "payerPatente",
      "outputs": [],
      "stateMutability": "nonpayable",
      "type": "function"
    },
    {
      "inputs": [
        {
          "internalType": "address",
          "name": "_adresse",
          "type": "address"
        }
      ],
      "name": "getTypeUtilisateur",
      "outputs": [
        {
          "internalType": "string",
          "name": "",
          "type": "string"
        }
      ],
      "stateMutability": "view",
      "type": "function",
      "constant": true
    },
    {
      "inputs": [
        {
          "internalType": "address",
          "name": "_ethAddress",
          "type": "address"
        }
      ],
      "name": "supprimerAgent",
      "outputs": [],
      "stateMutability": "nonpayable",
      "type": "function"
    },
    {
      "inputs": [
        {
          "internalType": "address",
          "name": "_ethAddress",
          "type": "address"
        }
      ],
      "name": "supprimerContribuable",
      "outputs": [],
      "stateMutability": "nonpayable",
      "type": "function"
    },
    {
      "inputs": [
        {
          "internalType": "address",
          "name": "_ethAddress",
          "type": "address"
        },
        {
          "internalType": "string",
          "name": "_nom",
          "type": "string"
        },
        {
          "internalType": "string",
          "name": "_prenom",
          "type": "string"
        },
        {
          "internalType": "string",
          "name": "_adresse",
          "type": "string"
        },
        {
          "internalType": "string",
          "name": "_email",
          "type": "string"
        },
        {
          "internalType": "uint256",
          "name": "_telephone",
          "type": "uint256"
        }
      ],
      "name": "modifierAgent",
      "outputs": [],
      "stateMutability": "nonpayable",
      "type": "function"
    },
    {
      "inputs": [
        {
          "internalType": "address",
          "name": "_ethAddress",
          "type": "address"
        },
        {
          "internalType": "string",
          "name": "_denomination",
          "type": "string"
        },
        {
          "internalType": "uint256",
          "name": "_activitePrincipaleId",
          "type": "uint256"
        },
        {
          "internalType": "string",
          "name": "_nom",
          "type": "string"
        },
        {
          "internalType": "string",
          "name": "_prenom",
          "type": "string"
        },
        {
          "internalType": "string",
          "name": "_adresse",
          "type": "string"
        },
        {
          "internalType": "string",
          "name": "_email",
          "type": "string"
        },
        {
          "internalType": "uint256",
          "name": "_contact",
          "type": "uint256"
        },
        {
          "internalType": "string",
          "name": "_typeContribuable",
          "type": "string"
        },
        {
          "internalType": "uint256",
          "name": "_valeurLocative",
          "type": "uint256"
        },
        {
          "internalType": "uint256",
          "name": "_nombreEmployes",
          "type": "uint256"
        },
        {
          "internalType": "string",
          "name": "_anneeModification",
          "type": "string"
        },
        {
          "internalType": "uint256",
          "name": "_agentId",
          "type": "uint256"
        }
      ],
      "name": "modifierContribuable",
      "outputs": [],
      "stateMutability": "nonpayable",
      "type": "function"
    },
    {
      "inputs": [
        {
          "internalType": "uint256",
          "name": "_id",
          "type": "uint256"
        }
      ],
      "name": "supprimerActivitePrincipale",
      "outputs": [],
      "stateMutability": "nonpayable",
      "type": "function"
    },
    {
      "inputs": [
        {
          "internalType": "uint256",
          "name": "_id",
          "type": "uint256"
        },
        {
          "internalType": "string",
          "name": "_nom",
          "type": "string"
        },
        {
          "internalType": "uint256",
          "name": "_droitFixeAnnuel",
          "type": "uint256"
        },
        {
          "internalType": "string",
          "name": "_description",
          "type": "string"
        }
      ],
      "name": "modifierActivitePrincipale",
      "outputs": [],
      "stateMutability": "nonpayable",
      "type": "function"
    },
    {
      "inputs": [],
      "name": "getAgents",
      "outputs": [
        {
          "components": [
            {
              "internalType": "uint256",
              "name": "id",
              "type": "uint256"
            },
            {
              "internalType": "address",
              "name": "ethAddress",
              "type": "address"
            },
            {
              "internalType": "string",
              "name": "nom",
              "type": "string"
            },
            {
              "internalType": "string",
              "name": "prenom",
              "type": "string"
            },
            {
              "internalType": "string",
              "name": "adresse",
              "type": "string"
            },
            {
              "internalType": "string",
              "name": "email",
              "type": "string"
            },
            {
              "internalType": "uint256",
              "name": "telephone",
              "type": "uint256"
            },
            {
              "internalType": "bool",
              "name": "estEnregistre",
              "type": "bool"
            }
          ],
          "internalType": "struct TaxManagement.Agent[]",
          "name": "",
          "type": "tuple[]"
        }
      ],
      "stateMutability": "view",
      "type": "function",
      "constant": true
    },
    {
      "inputs": [],
      "name": "getContribuables",
      "outputs": [
        {
          "components": [
            {
              "internalType": "uint256",
              "name": "id",
              "type": "uint256"
            },
            {
              "internalType": "address",
              "name": "ethAddress",
              "type": "address"
            },
            {
              "internalType": "string",
              "name": "nif",
              "type": "string"
            },
            {
              "internalType": "string",
              "name": "denomination",
              "type": "string"
            },
            {
              "internalType": "uint256",
              "name": "activitePrincipaleId",
              "type": "uint256"
            },
            {
              "internalType": "string",
              "name": "nom",
              "type": "string"
            },
            {
              "internalType": "string",
              "name": "prenom",
              "type": "string"
            },
            {
              "internalType": "string",
              "name": "adresse",
              "type": "string"
            },
            {
              "internalType": "string",
              "name": "email",
              "type": "string"
            },
            {
              "internalType": "uint256",
              "name": "contact",
              "type": "uint256"
            },
            {
              "internalType": "uint256",
              "name": "valeurLocative",
              "type": "uint256"
            },
            {
              "internalType": "uint256",
              "name": "nombreEmployes",
              "type": "uint256"
            },
            {
              "internalType": "string",
              "name": "anneeModification",
              "type": "string"
            },
            {
              "internalType": "uint256",
              "name": "agentId",
              "type": "uint256"
            },
            {
              "internalType": "string",
              "name": "typeContribuable",
              "type": "string"
            },
            {
              "internalType": "string",
              "name": "dateCreation",
              "type": "string"
            },
            {
              "internalType": "bool",
              "name": "estEnregistre",
              "type": "bool"
            }
          ],
          "internalType": "struct TaxManagement.Contribuable[]",
          "name": "",
          "type": "tuple[]"
        }
      ],
      "stateMutability": "view",
      "type": "function",
      "constant": true
    },
    {
      "inputs": [],
      "name": "getPatentesPayer",
      "outputs": [
        {
          "components": [
            {
              "internalType": "uint256",
              "name": "id",
              "type": "uint256"
            },
            {
              "internalType": "uint256",
              "name": "contribuableId",
              "type": "uint256"
            },
            {
              "internalType": "uint256",
              "name": "droitFixe",
              "type": "uint256"
            },
            {
              "internalType": "uint256",
              "name": "droitProportionnel",
              "type": "uint256"
            },
            {
              "internalType": "uint256",
              "name": "anneePaiement",
              "type": "uint256"
            },
            {
              "internalType": "bool",
              "name": "estPayee",
              "type": "bool"
            }
          ],
          "internalType": "struct TaxManagement.Patente[]",
          "name": "",
          "type": "tuple[]"
        }
      ],
      "stateMutability": "view",
      "type": "function",
      "constant": true
    },
    {
      "inputs": [],
      "name": "getPatentesNonPayer",
      "outputs": [
        {
          "components": [
            {
              "internalType": "uint256",
              "name": "id",
              "type": "uint256"
            },
            {
              "internalType": "uint256",
              "name": "contribuableId",
              "type": "uint256"
            },
            {
              "internalType": "uint256",
              "name": "droitFixe",
              "type": "uint256"
            },
            {
              "internalType": "uint256",
              "name": "droitProportionnel",
              "type": "uint256"
            },
            {
              "internalType": "uint256",
              "name": "anneePaiement",
              "type": "uint256"
            },
            {
              "internalType": "bool",
              "name": "estPayee",
              "type": "bool"
            }
          ],
          "internalType": "struct TaxManagement.Patente[]",
          "name": "",
          "type": "tuple[]"
        }
      ],
      "stateMutability": "view",
      "type": "function",
      "constant": true
    },
    {
      "inputs": [],
      "name": "getActivitesPrincipales",
      "outputs": [
        {
          "components": [
            {
              "internalType": "uint256",
              "name": "id",
              "type": "uint256"
            },
            {
              "internalType": "string",
              "name": "nom",
              "type": "string"
            },
            {
              "internalType": "uint256",
              "name": "droitFixeAnnuel",
              "type": "uint256"
            },
            {
              "internalType": "string",
              "name": "description",
              "type": "string"
            },
            {
              "internalType": "bool",
              "name": "estEnregistre",
              "type": "bool"
            }
          ],
          "internalType": "struct TaxManagement.ActivitePrincipale[]",
          "name": "",
          "type": "tuple[]"
        }
      ],
      "stateMutability": "view",
      "type": "function",
      "constant": true
    },
    {
      "inputs": [
        {
          "internalType": "address",
          "name": "_contribuableAdress",
          "type": "address"
        }
      ],
      "name": "getPatenteByContribuable",
      "outputs": [
        {
          "components": [
            {
              "internalType": "uint256",
              "name": "id",
              "type": "uint256"
            },
            {
              "internalType": "uint256",
              "name": "contribuableId",
              "type": "uint256"
            },
            {
              "internalType": "uint256",
              "name": "droitFixe",
              "type": "uint256"
            },
            {
              "internalType": "uint256",
              "name": "droitProportionnel",
              "type": "uint256"
            },
            {
              "internalType": "uint256",
              "name": "anneePaiement",
              "type": "uint256"
            },
            {
              "internalType": "bool",
              "name": "estPayee",
              "type": "bool"
            }
          ],
          "internalType": "struct TaxManagement.Patente[]",
          "name": "",
          "type": "tuple[]"
        }
      ],
      "stateMutability": "view",
      "type": "function",
      "constant": true
    },
    {
      "inputs": [
        {
          "internalType": "string",
          "name": "_nom",
          "type": "string"
        },
        {
          "internalType": "uint256",
          "name": "_nombrePlaces",
          "type": "uint256"
        },
        {
          "internalType": "uint256",
          "name": "_prixPlace",
          "type": "uint256"
        },
        {
          "internalType": "uint256",
          "name": "idAgent",
          "type": "uint256"
        }
      ],
      "name": "ajouterMarche",
      "outputs": [],
      "stateMutability": "nonpayable",
      "type": "function"
    },
    {
      "inputs": [],
      "name": "getMarches",
      "outputs": [
        {
          "components": [
            {
              "internalType": "uint256",
              "name": "id",
              "type": "uint256"
            },
            {
              "internalType": "string",
              "name": "nom",
              "type": "string"
            },
            {
              "internalType": "uint256",
              "name": "nombrePlaces",
              "type": "uint256"
            },
            {
              "internalType": "uint256",
              "name": "prixPlace",
              "type": "uint256"
            },
            {
              "internalType": "uint256",
              "name": "placesOccupees",
              "type": "uint256"
            },
            {
              "internalType": "uint256",
              "name": "idAgent",
              "type": "uint256"
            }
          ],
          "internalType": "struct TaxManagement.Marche[]",
          "name": "",
          "type": "tuple[]"
        }
      ],
      "stateMutability": "view",
      "type": "function",
      "constant": true
    }
  ],
  "bytecode": "0x6080806040523461004957600080600b5580600c5580600d5580600e5580600f5580601055806011556107e76012553360018060a01b0319825416179055615103908161004f8239f35b600080fdfe61010080604052600436101561001457600080fd5b60003560e01c9081630b5a006b146144be5750806310aee64b146143ce578063112007e5146143b057806313e43bcb146140385780631df3c40314613e7f57806322fa501514613e615780632470fa5d14613bec5780632c70d0d814613b7057806335f3f1a3146139c85780633eb31fa414613895578063429b62e5146137a457806342a40d5c146137865780634584ed83146136e7578063513856c81461369d5780635e35085014612dd957806367b902491461216e5780637a84e680146121365780637c3458771461209457806383d19c0014611f085780639209d93814611eea578063984bff5814611af4578063a1b0ae0914611ad6578063a8420b7e14611867578063b730a738146115f2578063b7dc1284146115d4578063be0e540114611550578063bf84e1dc146114e8578063c228e5eb1461143b578063c2955288146112ee578063d24f29dc14611027578063d2c580b314610fb0578063d86c73b414610f71578063d8dba2e814610ec4578063e0a1cce614610e85578063e0bb12f714610dd2578063eac3fda414610b74578063ec3e1c561461098b578063f433643d1461049c578063f5294c0014610417578063f5d23df0146103f9578063f851a440146103d25763fec12222146101ee57600080fd5b346103cd576101fc366147e4565b336000526020906001825260ff604060002054161561036257826000526007825260ff600560406000200154166102f757826005916102df946000528284526040600020600481015460005260068552600a8060026040600020015492015404908060021c8083106102ef575b50600f549360076040519761027d896144d9565b86895280890192835260408901938452606089019485526080890195865260a0890196600088526000525260406000209651875551600187015551600286015551600385015551600484015551151591019060ff801983541691151516179055565b6102ea600f5461494b565b600f55005b915038610269565b60405162461bcd60e51b815260048101839052602e60248201527f556e6520706174656e746520612064656a612065746520706179656520706f7560448201527f7220636574746520616e6e65652e0000000000000000000000000000000000006064820152608490fd5b60405162461bcd60e51b815260048101839052603060248201527f5365756c73206c6573206167656e74732070657576656e74206566666563747560448201527f657220636574746520616374696f6e2e000000000000000000000000000000006064820152608490fd5b600080fd5b346103cd5760003660031901126103cd5760206001600160a01b0360005416604051908152f35b346103cd5760003660031901126103cd576020601054604051908152f35b346103cd5760203660031901126103cd576004356104416001600160a01b036000541633146149c9565b80600052600660205261045e60ff60046040600020015416614f80565b60005260066020526000604081206104996003600483019260ff19845416845584815561048d60018201614fde565b84600282015501614fde565b55005b346103cd576104aa366147fa565b90936001600160a01b0380966104c5826000541633146149c9565b16928360005260019460209286845260ff6040600020541615610946578697986000975b6104ef57005b600e548810156109445787899860005260048652604060002089810180548481168b14610528575050506105229061494b565b976104e9565b9250939495969798925098506001600160a01b03191617905560028601928151936001600160401b0394858111610746578061056483546146a4565b94601f9589878211610914575b505088908683116001146108a85760009261089d575b5050600019600383901b1c1916908a1b1790555b600392838801908051908682116107465781906105b884546146a4565b8987821161086d575b50508890868311600114610802576000926107f7575b505060001982871b1c1916908a1b1790555b8051600488019185821161074657819061060384546146a4565b8581116107c9575b5087908583116001146107675760009261075c575b505060001982861b1c191690891b1790555b6005938487019489519485116107465761064c86546146a4565b83811161070e575b5050809184116001146106a1575090829160079798600093610696575b505082881b92600019911b1c19161790555b600682015501805460ff19169091179055005b015191508880610671565b9297601f1989168560005284600020946000905b8282106106f757505091899391899a60079a9694106106dd575b50505050811b019055610683565b01519060f884600019921b161c19169055878080806106cf565b808b869882949787015181550197019401906106b5565b6107369187600052836000209085808901821c830193868a1061073d575b01901c019061495a565b8980610654565b9350829361072c565b634e487b7160e01b600052604160045260246000fd5b015190508b80610620565b908b9350601f1983169185600052896000209260005b8b8282106107b3575050841161079b575b505050811b019055610632565b015160001983881b60f8161c191690558b808061078e565b8385015186558f9790950194938401930161077d565b6107f1908560005289600020600588808701821c8301938d881061073d5701901c019061495a565b8c61060b565b015190508c806105d7565b908c9350601f19831691856000528a6000209260005b8c82821061084e5750508411610836575b505050811b0190556105e9565b015160001983891b60f8161c191690558c8080610829565b91929395968291958786015181550195019301908e9594939291610818565b6108969186600052816000209089600591818801831c840194881061073d5701901c019061495a565b8d896105c1565b015190508c80610587565b908c9350601f19831691856000528a6000209260005b8c8282106108f557505084116108dc575b505050811b01905561059b565b015160001960f88460031b161c191690558c80806108cf565b91929395968291958786015181550195019301908e95949392916108be565b61093d9186600052816000209089600591818801831c840194881061073d5701901c019061495a565b8d89610571565b005b60405162461bcd60e51b815260048101859052601f60248201527f436574206167656e74206e276573742070617320656e72656769737472652e006044820152606490fd5b346103cd5760003660031901126103cd57600d546109a881615027565b906109b66040519283614562565b808252601f196109c582615027565b0160005b818110610b3b5750506000805b828110610a7b576040805160208082528651818301819052600093600582901b8401810192808a01929185015b828710610a105785850386f35b909192938280600192603f1989820301855287519081518152610a5f610a428484015160a08087860152840190614664565b604084015160408401526060808501519084830390850152614664565b9160808091015115159101529601920196019592919092610a03565b80600052602060068152604060002060ff6004820154169081610aaa575b505050610aa59061494b565b6109d6565b91610aa59394916003610b0b610b329560405194610ac78661452c565b8154865260405190610ae782610ae081600187016146de565b0383614562565b86015260028101546040860152610b0460405180948193016146de565b0382614562565b606083015215156080820152610b21828861503e565b52610b2c818761503e565b5061494b565b91908580610a99565b602090604051610b4a8161452c565b600081526060839080828401526000604084015280830152600060808301528287010152016109c9565b346103cd5760003660031901126103cd57600e54610b9181615027565b90610b9f6040519283614562565b808252601f19610bae82615027565b0160005b818110610d8757505060005b818110610ca2576040805160208082528551818301819052600093600582901b8401810192808901929185015b828710610bf85785850386f35b909192938280600192603f19898203018552875190815181526001600160a01b0383830151168382015260e080610c80610c6d610c5a610c4760408801516101008060408a0152880190614664565b6060808901519088830390890152614664565b6080808801519087830390880152614664565b60a0808701519086830390870152614664565b9360c08082015190850152015115159101529601920196019592919092610beb565b80610ccc91600052602060048152604060002060ff6007820154169081610cd1575b50505061494b565b610bbe565b60069060405193610ce185614510565b815485526001600160a01b0360018301541690850152604051610d0b81610b0481600286016146de565b6040850152604051610d2481610b0481600386016146de565b6060850152604051610d3d81610b0481600486016146de565b6080850152604051610d5681610b0481600586016146de565b60a0850152015460c0830152151560e0820152610d73828661503e565b52610d7e818561503e565b50848080610cc4565b602090604051610d9681614510565b60008152826000818301526060806040840152808084015280608084015260a0830152600060c0830152600060e0830152828701015201610bb2565b346103cd5760203660031901126103cd57600435600a548110156103cd57610df990614889565b508054610e816001600160a01b036001840154169260405190610e2382610ae081600285016146de565b604051610e3781610b0481600386016146de565b604051610e4b81610b0481600487016146de565b60405191610e6783610e6081600588016146de565b0384614562565b60ff60076006860154950154169460405198899889614774565b0390f35b346103cd5760203660031901126103cd576001600160a01b03610ea66145d9565b166000526002602052602060ff604060002054166040519015158152f35b346103cd5760003660031901126103cd57600f54610ee181615052565b9060005b818110610efa5760405180610e8185826145ef565b80610f2491600052602060078152604060002060ff600582015416159081610f295750505061494b565b610ee5565b60049060405193610f39856144d9565b815485526001820154908501526002810154604085015260038101546060850152015460808301521560a0820152610d73828661503e565b346103cd5760203660031901126103cd576001600160a01b03610f926145d9565b166000526001602052602060ff604060002054166040519015158152f35b346103cd576020806003193601126103cd57610fca6145d9565b6001600160a01b0390610fe2826000541633146149c9565b811660005b600e54811015610944578060005260048452604060002083600182015416831461101a57506110159061494b565b610fe7565b600701805460ff19169055005b346103cd5760603660031901126103cd576001600160401b036004358181116103cd57611058903690600401614583565b6044358281116103cd57611070903690600401614583565b906110876001600160a01b036000541633146149c9565b600d5491604051926110988461452c565b8084526020928385019081526040850193602435855260608601938452608086019460019384875260005260068252604060002096518755838701925192835189811161074657806110ea83546146a4565b95601f968781116112c0575b50859087831160011461125d57600092611252575b5050600019600383901b1c191690861b1790555b5160028701556003860193519081519788116107465761113f85546146a4565b83811161121a575b50809288116001146111ac5750958060049594938193611191996000946111a1575b50501b916000199060031b1c19161790555b51151591019060ff801983541691151516179055565b61119c600d5461494b565b600d55005b015192508980611169565b9190601f1988168560005283600020936000905b8282106112035750509160049695949391896111919a94106111ea575b505050811b01905561117b565b015160001960f88460031b161c191690558780806111dd565b8087869782949787015181550196019401906111c0565b61124390866000528260002085808c0160051c820192858d10611249575b0160051c019061495a565b88611147565b92508192611238565b015190508b8061110b565b90889350601f1983169185600052876000209260005b898282106112aa5750508411611291575b505050811b01905561111f565b015160001960f88460031b161c191690558b8080611284565b8385015186558c97909501949384019301611273565b6112e89085600052876000208980860160051c8201928a8710611249570160051c019061495a565b8c6110f6565b346103cd576112fc366147fa565b9293946001600160a01b039291929061131a826000541633146149c9565b169384600052600160205260ff604060002054166113f657600e54956040519661134388614510565b875285602088015260408701526060860152608085015260a084015260c0830152600160e083015260005260016020526040600020600160ff19825416179055600e54600052600460205261139c816040600020614a3b565b600a5468010000000000000000811015610746578060016113c09201600a55614889565b9190916113e0576113d091614a3b565b6113db600e5461494b565b600e55005b634e487b7160e01b600052600060045260246000fd5b60405162461bcd60e51b815260206004820152601e60248201527f436574206167656e74206573742064656a6120656e72656769737472652e00006044820152606490fd5b346103cd5760003660031901126103cd57600f5461145881615052565b9060005b8181106114715760405180610e8185826145ef565b8061149a91600052602060078152604060002060ff600582015416908161149f5750505061494b565b61145c565b600490604051936114af856144d9565b81548552600182015490850152600281015460408501526003810154606085015201546080830152151560a0820152610d73828661503e565b346103cd5760203660031901126103cd57600435600052600760205260c06040600020805490600181015490600281015460038201549060ff6005600485015494015416936040519586526020860152604085015260608401526080830152151560a0820152f35b346103cd5760203660031901126103cd576004356000526008602052604060002080546040519161158883610e6081600185016146de565b60028101549060038101549060056004820154910154916115bb604051968796875260c0602088015260c0870190614664565b9360408601526060850152608084015260a08301520390f35b346103cd5760003660031901126103cd576020600e54604051908152f35b346103cd5760803660031901126103cd576004356001600160401b036024358181116103cd57611626903690600401614583565b906064358181116103cd5761163f903690600401614583565b916116566001600160a01b036000541633146149c9565b836000526020936006855261167560ff60046040600020015416614f80565b6000526006845260406000209260019384810183518581116107465761169b82546146a4565b94601f95868111611839575b5088908683116001146117d257600394939291600091836117c7575b505060001982861b1c191690881b1790555b604435600282015501948151938411610746576116f286546146a4565b838111611799575b5080928411600114611736575092829391839260009461172b575b50501b916000199060031b1c1916179055600080f35b015192508580611715565b919083601f1981168760005284600020946000905b8883831061177f5750505010611766575b505050811b019055005b015160001960f88460031b161c1916905583808061175c565b85870151885590960195948501948793509081019061174b565b6117c19087600052826000208580880160051c820192858910611249570160051c019061495a565b866116fa565b015190508a806116c3565b9392918891601f19821690846000528b6000209160005b8d82821061182357505096836003981061180b575b505050811b0190556116d5565b015160001983881b60f8161c191690558a80806117fe565b838a015185558d969094019392830192016117e9565b61186190846000528a6000208880860160051c8201928d8710611249570160051c019061495a565b896116a7565b346103cd5760203660031901126103cd5760043560005260056020526040600020805460805260018101546001600160a01b0316906040518060a0528060028301906118b2916146de565b0360a051906118c091614562565b6040518190806118d381600385016146de565b036118de9082614562565b6004820154604051806118f481600587016146de565b036118ff9082614562565b604051908161191181600688016146de565b0361191c9083614562565b604051918261192e81600789016146de565b036119399084614562565b6040518061194a8160088a016146de565b036119559082614562565b600987015493600a88015492600b89015494604051978880600c8d019061197b916146de565b03611986908a614562565b600d8b01549960405180600e819e019061199f916146de565b036119aa908d614562565b6040519c8d806119bd81600f85016146de565b036119c791614562565b6010015460ff1660e0526040519d60c09e8f90808252608051905251602001528d6102208082516040015281510160a05190611a0291614664565b90518082039060600152611a1591614664565b908d51608001528c518082039060a00152611a2f91614664565b8b518c818303910152611a4191614664565b8a518082039060e00152611a5491614664565b8951808203906101000152611a6891614664565b928851610120015287516101400152865161016001528551808203906101800152611a9291614664565b9084516101a001528351808203906101c00152611aae91614664565b8251808203906101e00152611ac291614664565b9060e0511515815161020001525180910390f35b346103cd5760003660031901126103cd576020600d54604051908152f35b346103cd5760003660031901126103cd57600b8054611b1281615027565b91611b206040519384614562565b818352601f19611b2f83615027565b0160005b818110611e5c57505060005b82811115611cc3576040805160208082528651818301819052600093600582901b8401810192808a01929185015b828710611b7a5785850386f35b909192938280600192603f19898203018552875190815181526001600160a01b03838301511683820152611ca6611c92611c73611c3e611c2a611c18611c05611be8611bd560408b01516102208060408d01528b0190614664565b6060808c0151908b8303908c0152614664565b6080808b0151908a015260a0808b0151908a8303908b0152614664565b60c0808a015190898303908a0152614664565b60e088015187820360e0890152614664565b610100808801519087830390880152614664565b610120808701519086015261014080870151908601526101608087015190860152610180808701519086830390870152614664565b6101a080860151908501526101c0808601519085830390860152614664565b6101e0808501519084830390850152614664565b916102008091015115159101529601920196019592919092611b6d565b80611cf0916000526005602090808252604060002060ff6010820154169182611cf5575b5050505061494b565b611b3f565b600f91610b04611d6f611e2f9360405197611d0f896144f4565b845489526001600160a01b0360018601541690890152604051611d3981610b0481600289016146de565b6040890152604051611d5281610b0481600389016146de565b6060890152600484015460808901526040519283809286016146de565b60a0860152604051611d8881610b0481600686016146de565b60c0860152604051611da181610b0481600786016146de565b60e0860152604051611dba81610b0481600886016146de565b6101008601526009810154610120860152600a81015461014086015287810154610160860152604051611df481610b0481600c86016146de565b610180860152600d8101546101a0860152604051611e1981610b0481600e86016146de565b6101c0860152610b0460405180948193016146de565b6101e08301521515610200820152611e47828761503e565b52611e52818661503e565b5085808080611ce7565b602090604051611e6b816144f4565b600081528260008183015260608060408401528080840152600060808401528060a08401528060c08401528060e0840152806101008401526000610120840152600061014084015260006101608401528061018084015260006101a0840152806101c08401526101e08301526000610200830152828801015201611b33565b346103cd5760003660031901126103cd576020600b54604051908152f35b346103cd57611f16366147e4565b3360005260209160028352611f3260ff604060002054166148d9565b806000526007835260ff6005604060002001541661204f578060005260078352604060002091600260038401549301548301809311612039577f76eae79300052f67aecb8436aa0f1234fd0ac466aa2ecca072227eef9efa7a359360e0938210611fef578260005260078152604060002060058101600160ff198254161790556001810154600282015490600460038401549301549360405196875286015260408501526060840152608083015260a0820152600160c0820152a1005b826000526007815260406000206001810154600282015490600460038401549301549360405196875286015260408501526060840152608083015260a0820152600060c0820152a1005b634e487b7160e01b600052601160045260246000fd5b60405162461bcd60e51b815260048101849052601f60248201527f436574746520706174656e746520612064656a61206574652070617965652e006044820152606490fd5b346103cd5760203660031901126103cd576004356000526009602052604060002080546001820154916040516120d181610b0481600286016146de565b6121256040516120e881610b0481600388016146de565b61211760ff6005600487015496015416936040519788978852602088015260c0604088015260c0870190614664565b908582036060870152614664565b916080840152151560a08301520390f35b346103cd5760203660031901126103cd57610e8161215a6121556145d9565b614e62565b604051918291602083526020830190614664565b346103cd576101e03660031901126103cd576121886145d9565b6024356001600160401b0381116103cd576121a7903690600401614583565b906044356001600160401b0381116103cd576121c7903690600401614583565b906084356001600160401b0381116103cd576121e7903690600401614583565b60a4356001600160401b0381116103cd57612206903690600401614583565b9060c4356001600160401b0381116103cd57612226903690600401614583565b9060e4356001600160401b0381116103cd57612246903690600401614583565b610124356001600160401b0381116103cd57612266903690600401614583565b92610144356001600160401b0381116103cd57612287903690600401614583565b946101a4356001600160401b0381116103cd576122a8903690600401614583565b936122bf6001600160a01b036000541633146149c9565b6001600160a01b038816600052600260205260ff60406000205416612d88576001600160a01b0398600b549a6040519b6122f88d6144f4565b8c528a8a1660208d015260408c015260608b015260643560808b015260a08a015260c089015260e08801526101008701526101043561012087015261016435610140870152610184356101608701526101808601526101c4356101a08601526101c08501526101e084015260016102008401521660005260026020526040600020600160ff19825416179055600b546000526005602052604060002081518155600181016001600160a01b036020840151166001600160a01b031982541617905560408201519182516001600160401b038111610746576123dc60028401546146a4565b601f8111612d53575b506020601f8211600114612ce55781929394600092612cda575b50508160011b916000199060031b1c19161760028301555b60608101519182516001600160401b0381116107465761243a60038301546146a4565b601f8111612ca5575b506020601f8211600114612c375781929394600092612c2c575b50508160011b916000199060031b1c19161760038201555b6080820151600482015560a08201519182516001600160401b038111610746576124a260058401546146a4565b601f8111612bf7575b506020601f8211600114612b895781929394600092612b7e575b50508160011b916000199060031b1c19161760058301555b60c08101519182516001600160401b0381116107465761250060068301546146a4565b601f8111612b49575b506020601f8211600114612adb5781929394600092612ad0575b50508160011b916000199060031b1c19161760068201555b60e08201519182516001600160401b0381116107465761255e60078401546146a4565b601f8111612a9b575b506020601f8211600114612a2d5781929394600092612a22575b50508160011b916000199060031b1c19161760078301555b6101008101519182516001600160401b038111610746576125bd60088301546146a4565b601f81116129ed575b506020601f821160011461297f5781929394600092612974575b50508160011b916000199060031b1c19161760088201555b6101208201516009820155610140820151600a820155610160820151600b8201556101808201519182516001600160401b03811161074657600c83019061263f82546146a4565b601f8111612942575b50602094601f82116001146128dc579481929394956000926128d1575b50508160011b916000199060031b1c19161790555b6101a0810151600d830155600e8201916101c08201519283516001600160401b038111610746576126ab82546146a4565b601f811161289f575b50602094601f82116001146128395794819293949560009261282e575b50508160011b916000199060031b1c19161790555b600f8101916101e08101519283516001600160401b0381116107465761270c82546146a4565b601f81116127f1575b506020601f8211600114612780579181601094926102009461276598600092612775575b50508160011b916000199060031b1c19161790555b0151151591019060ff801983541691151516179055565b612770600b5461494b565b600b55005b015190508880612739565b601f198216958360005260206000209660005b8181106127d95750926127659761020095936001938360109997106127c0575b505050811b01905561274e565b015160001960f88460031b161c191690558880806127b3565b83830151895560019098019760209384019301612793565b61281e90836000526020600020601f840160051c81019160208510612824575b601f0160051c019061495a565b85612715565b9091508190612811565b0151905085806126d1565b601f198216958360005260206000209160005b8881106128875750836001959697981061286e575b505050811b0190556126e6565b015160001960f88460031b161c19169055858080612861565b9192602060018192868501518155019401920161284c565b6128cb90836000526020600020601f840160051c8101916020851061282457601f0160051c019061495a565b856126b4565b015190508580612665565b601f198216958360005260206000209160005b88811061292a57508360019596979810612911575b505050811b01905561267a565b015160001960f88460031b161c19169055858080612904565b919260206001819286850151815501940192016128ef565b61296e90836000526020600020601f840160051c8101916020851061282457601f0160051c019061495a565b85612648565b0151905084806125e0565b6008830160005260206000209060005b601f19841681106129d55750600193949583601f198116106129bc575b505050811b0160088201556125f8565b015160001960f88460031b161c191690558480806129ac565b9091602060018192858a01518155019301910161298f565b612a1c90600884016000526020600020601f840160051c8101916020851061282457601f0160051c019061495a565b846125c6565b015190508480612581565b6007840160005260206000209060005b601f1984168110612a835750600193949583601f19811610612a6a575b505050811b016007830155612599565b015160001960f88460031b161c19169055848080612a5a565b9091602060018192858a015181550193019101612a3d565b612aca90600785016000526020600020601f840160051c8101916020851061282457601f0160051c019061495a565b84612567565b015190508480612523565b6006830160005260206000209060005b601f1984168110612b315750600193949583601f19811610612b18575b505050811b01600682015561253b565b015160001960f88460031b161c19169055848080612b08565b9091602060018192858a015181550193019101612aeb565b612b7890600684016000526020600020601f840160051c8101916020851061282457601f0160051c019061495a565b84612509565b0151905084806124c5565b6005840160005260206000209060005b601f1984168110612bdf5750600193949583601f19811610612bc6575b505050811b0160058301556124dd565b015160001960f88460031b161c19169055848080612bb6565b9091602060018192858a015181550193019101612b99565b612c2690600585016000526020600020601f840160051c8101916020851061282457601f0160051c019061495a565b846124ab565b01519050848061245d565b6003830160005260206000209060005b601f1984168110612c8d5750600193949583601f19811610612c74575b505050811b016003820155612475565b015160001960f88460031b161c19169055848080612c64565b9091602060018192858a015181550193019101612c47565b612cd490600384016000526020600020601f840160051c8101916020851061282457601f0160051c019061495a565b84612443565b0151905084806123ff565b6002840160005260206000209060005b601f1984168110612d3b5750600193949583601f19811610612d22575b505050811b016002830155612417565b015160001960f88460031b161c19169055848080612d12565b9091602060018192858a015181550193019101612cf5565b612d8290600285016000526020600020601f840160051c8101916020851061282457601f0160051c019061495a565b846123e5565b60405162461bcd60e51b8152602060048201526024808201527f436520636f6e747269627561626c65206573742064656a6120656e72656769736044820152633a39329760e11b6064820152608490fd5b346103cd576101a03660031901126103cd57612df36145d9565b6024356001600160401b0381116103cd57612e12903690600401614583565b906064356001600160401b0381116103cd57612e32903690600401614583565b906084356001600160401b0381116103cd57612e52903690600401614583565b9060a4356001600160401b0381116103cd57612e72903690600401614583565b9160c4356001600160401b0381116103cd57612e92903690600401614583565b610104356001600160401b0381116103cd57612eb2903690600401614583565b93610164356001600160401b0381116103cd57612ed3903690600401614583565b92612eea6001600160a01b036000541633146149c9565b6001600160a01b0385166000526002602052612f0d60ff60406000205416614f26565b60005b600b548110156109445780600052600560205260406000206001600160a01b036001820154166001600160a01b03881614612f55575b50612f509061494b565b612f10565b88516001600160401b03811161074657612f7260058301546146a4565b601f8111613668575b50806020601f82116001146135fa576000916135ef575b508160011b916000199060031b1c19161760058201555b82516001600160401b03811161074657612fc660068301546146a4565b601f81116135ba575b50806020601f821160011461354d57600091613542575b508160011b916000199060031b1c19161760068201555b83516001600160401b0381116107465761301a60078301546146a4565b601f811161350d575b50806020601f82116001146134a057600091613495575b508160011b916000199060031b1c19161760078201555b84516001600160401b0381116107465761306e60088301546146a4565b601f8111613460575b50806020601f82116001146133f3576000916133e8575b508160011b916000199060031b1c19161760088201555b60e435600982015561012435600a82015561014435600b82015585516001600160401b038111610746576130dc600c8301546146a4565b601f81116133b3575b50806020601f82116001146133465760009161333b575b508160011b916000199060031b1c191617600c8201555b61018435600d820155604435600482015589516001600160401b0381116107465761314160038301546146a4565b601f8111613306575b50806020601f82116001146132985760009161328d575b508160011b916000199060031b1c19161760038201555b87516001600160401b03811161074657613195600e8301546146a4565b601f8111613258575b506020601f82116001146131e45781612f50949392600e926000916131d9575b508160011b916000199060031b1c1916179101555b90612f46565b90508b01518e6131be565b600e830160005260206000209060005b8b601f198516821061324057505082600e92600192612f50979695601f19811610613227575b5050811b019101556131d3565b8d015160001960f88460031b161c191690558e8061321a565b600183946020939484930151815501930191016131f4565b61328790600e84016000526020600020601f840160051c8101916020851061282457601f0160051c019061495a565b8b61319e565b90508b01518c613161565b91506003830160005260206000206000925b8d601f19841685106132ef57506001935082601f198116106132d6575b5050811b016003820155613178565b8d015160001960f88460031b161c191690558c806132c7565b8101518255602093840193600190920191016132aa565b61333590600384016000526020600020601f840160051c8101916020851061282457601f0160051c019061495a565b8b61314a565b90508701518c6130fc565b9150600c830160005260206000206000925b601f198316841061339b576001935082601f19811610613382575b5050811b01600c820155613113565b89015160001960f88460031b161c191690558c80613373565b89810151825560209384019360019092019101613358565b6133e290600c84016000526020600020601f840160051c8101916020851061282457601f0160051c019061495a565b8b6130e5565b90508601518c61308e565b91506008830160005260206000206000925b601f1983168410613448576001935082601f1981161061342f575b5050811b0160088201556130a5565b88015160001960f88460031b161c191690558c80613420565b88810151825560209384019360019092019101613405565b61348f90600884016000526020600020601f840160051c8101916020851061282457601f0160051c019061495a565b8b613077565b90508501518c61303a565b91506007830160005260206000206000925b601f19831684106134f5576001935082601f198116106134dc575b5050811b016007820155613051565b87015160001960f88460031b161c191690558c806134cd565b878101518255602093840193600190920191016134b2565b61353c90600784016000526020600020601f840160051c8101916020851061282457601f0160051c019061495a565b8b613023565b90508401518c612fe6565b91506006830160005260206000206000925b601f19831684106135a2576001935082601f19811610613589575b5050811b016006820155612ffd565b86015160001960f88460031b161c191690558c8061357a565b8681015182556020938401936001909201910161355f565b6135e990600684016000526020600020601f840160051c8101916020851061282457601f0160051c019061495a565b8b612fcf565b90508a01518c612f92565b91506005830160005260206000206000925b8c601f198416851061365157506001935082601f19811610613638575b5050811b016005820155612fa9565b8c015160001960f88460031b161c191690558c80613629565b81015182556020938401936001909201910161360c565b61369790600584016000526020600020601f840160051c8101916020851061282457601f0160051c019061495a565b8b612f7b565b346103cd5760203660031901126103cd57600435600052600460205260406000208054610e816001600160a01b036001840154169260405190610e2382610ae081600285016146de565b346103cd5760203660031901126103cd576004356000526006602052604060002080546040519161371f83610e6081600185016146de565b61377a600282015460ff6004604051946137478661374081600385016146de565b0387614562565b01541692613767604051968796875260a0602088015260a0870190614664565b9160408601528482036060860152614664565b90151560808301520390f35b346103cd5760003660031901126103cd576020601154604051908152f35b346103cd5760203660031901126103cd576001600160a01b036137c56145d9565b16600052600360205260406000208054604051916137ea83610e6081600185016146de565b6040516137fe81610b0481600286016146de565b61388460405161381581610b0481600388016146de565b6138766040519161382d83610e608160048a016146de565b61386860ff60066005890154980154169561385a6040519a8b9a8b5260e060208c015260e08b0190614664565b9089820360408b0152614664565b908782036060890152614664565b908582036080870152614664565b9160a0840152151560c08301520390f35b346103cd576020806003193601126103cd57600435600060a06040516138ba816144d9565b828152828582015260606040820152606080820152826080820152015280600052600982526138ef6040600020541515614971565b60005260098152604060002080549060018101546139b560036139a260048501549460ff6005820154169460405197613927896144d9565b88528888019081526139656040519261394e8461394781600285016146de565b0385614562565b60408a0193845261394760405180978193016146de565b606088019384526080880196875260a088019515158652604051988998818a5251908901525160408801525160c0606088015260e0870190614664565b9051858203601f19016080870152614664565b915160a084015251151560c08301520390f35b346103cd5760003660031901126103cd576010546139e581615027565b906139f36040519283614562565b808252601f19613a0282615027565b0160005b818110613b305750506000805b828210613ab4576040805160208082528651818301819052600093600582901b8401810192808a01929185015b828710613a4d5785850386f35b909192938280600192603f1989820301855287519081518152613a7c8383015160c08086850152830190614664565b9160408101516040830152606080820151908301526080808201519083015260a0809101519101529601920196019592919092613a40565b613b24613b2a91836000526020600881526005604060002060405192613ad9846144d9565b8154845260405190613af282610ae081600187016146de565b840152600281015460408401526003810154606084015260048101546080840152015460a0820152610b21828861503e565b9161494b565b90613a13565b602090604051613b3f816144d9565b60008152606060008491808385015281604085015283015260006080830152600060a0830152828701015201613a06565b346103cd576020806003193601126103cd57613b8a6145d9565b6001600160a01b03613ba1816000541633146149c9565b8060009216915b600b548110156109445780613bd691600052600585526040600020836001820154168514613bdb575061494b565b613ba8565b601001805460ff1916905585610b2c565b346103cd5760203660031901126103cd576001600160a01b03613c0d6145d9565b16806000526002602052613c2860ff60406000205416614f26565b600f54613c3481615052565b90600092600b54935b84811115613c535760405180610e8186826145ef565b80600052600560205260406000206001600160a01b0360018201541690818414613c88575b5050613c839061494b565b613c3d565b601060ff9160405193613c9a856144f4565b815485526020850152604051613cb781610b0481600286016146de565b6040850152604051613cd081610b0481600386016146de565b606085015260048101546080850152604051613cf381610b0481600586016146de565b60a0850152604051613d0c81610b0481600686016146de565b60c0850152604051613d2581610b0481600786016146de565b60e0850152604051613d3e81610b0481600886016146de565b6101008501526009810154610120850152600a810154610140850152600b810154610160850152604051613d7981610b0481600c86016146de565b610180850152600d8101546101a0850152604051613d9e81610b0481600e86016146de565b6101c0850152604051613db881610b0481600f86016146de565b6101e0850152015416151561020082015260005b84811015613c7857613dfc90825181600052600760205260406000206001810154809214613e01575b505061494b565b613dcc565b600560ff9160405193613e13856144d9565b815485526020850152600281015460408501526003810154606085015260048101546080850152015416151560a0820152613e4e828961503e565b52613e59818861503e565b508880613df5565b346103cd5760003660031901126103cd576020600f54604051908152f35b346103cd5760803660031901126103cd576001600160401b036004358181116103cd57613eb0903690600401614583565b613ec66001600160a01b036000541633146149c9565b60105460405191613ed6836144d9565b8183526020908184019081526040840160243581526060850191604435835260808601936000855260a087019560643587526000526008815260406000209651875560019081880192518051998a1161074657613f3384546146a4565b8a601f8211614007575b505081601f8b11600114613fa05750988092819260059a9b600094613f95575b50501b916000199060031b1c19161790555b51600286015551600385015551600484015551910155613f9060105461494b565b601055005b015192508b80613f5d565b909991601f1983169a8560005282600020926000905b8d8210613ff05750508360059b9c10613fd7575b505050811b019055613f6f565b015160001960f88460031b161c19169055898080613fca565b808785968294968601518155019501930190613fb6565b6140319186600052846000209085601f840160051c8301931061282457601f0160051c019061495a565b8a8a613f3d565b346103cd5760803660031901126103cd576004356001600160401b036024356044358281116103cd5761406f903690600401614583565b926064358381116103cd57614088903690600401614583565b33600052602093600285526140a460ff604060002054166148d9565b8360005260088552604060002060026004820154910154111561435f576140cc60115461494b565b908160115581600052600986526040600020918255600190858284015560028301918851928284116107465761410281546146a4565b93601f948a868211614330575b5050808a8682116001146142c0576000916142b5575b50600019600383901b1c191690831b1790555b600384019285519283116107465761415084546146a4565b818111614287575b50889083116001146141f6576141e095946141d29484807f7803e1058885cd7b478a852580ffb4687a0d11f3d744d8f65ca155f10a99bde79d968b966004966000936141eb575b501b916000199060031b1c19161790555b015560115495604051978897885287015260a0604087015260a0860190614664565b908482036060860152614664565b9060808301520390a1005b8b015192503861419f565b601f9291921982169084600052896000209160005b8181106142725750947f7803e1058885cd7b478a852580ffb4687a0d11f3d744d8f65ca155f10a99bde79b94846004946141e09a99948c976141d29a10614259575b5050811b0190556141b0565b8a015160001960f88460031b161c191690558e8061424d565b88830151845592850192918b01918b0161420b565b6142af90856000528a6000208380870160051c8201928d8810611249570160051c019061495a565b8a614158565b90508b01518c614125565b8492508b908d601f198416908660005283600020936000915b83831061430f5750505083116142f6575b5050811b019055614138565b8d015160001960f88460031b161c191690558c806142ea565b948482949597989293960151815501940192019086949392918f8f906142d9565b614358918460005287826000209181860160051c8301938610611249570160051c019061495a565b8b8a61410f565b60405162461bcd60e51b815260048101869052602360248201527f496c206e2779206120706c757320646520706c6163657320646973706f6e69626044820152626c657360e81b6064820152608490fd5b346103cd5760003660031901126103cd576020600c54604051908152f35b346103cd576020806003193601126103cd5760089060043580600052600982526143fe6040600020541515614971565b80600052600982527f957b01969cdc42cabc104346d913fa50ae06f624c03e34892da59cf44e2cc9a5604060002060058101600160ff19825416179055600181015492836000528585526004604060002001549161449560048201549160405194859485528789860152604085015260e06060850152600361448660e08601600284016146de565b918583036080870152016146de565b9060a08301523360c08301520390a16000525260046040600020016144ba815461494b565b9055005b346103cd5760003660031901126103cd576020906012548152f35b60c081019081106001600160401b0382111761074657604052565b61022081019081106001600160401b0382111761074657604052565b61010081019081106001600160401b0382111761074657604052565b60a081019081106001600160401b0382111761074657604052565b604081019081106001600160401b0382111761074657604052565b90601f801991011681019081106001600160401b0382111761074657604052565b81601f820112156103cd578035906001600160401b03821161074657604051926145b7601f8401601f191660200185614562565b828452602083830101116103cd57816000926020809301838601378301015290565b600435906001600160a01b03821682036103cd57565b60208082019080835283518092528060408094019401926000905b83821061461957505050505090565b84518051875280840151878501528082015187830152606080820151908801526080808201519088015260a09081015115159087015260c0909501949382019360019091019061460a565b919082519283825260005b848110614690575050826000602080949584010152601f8019910116010190565b60208183018101518483018201520161466f565b90600182811c921680156146d4575b60208310146146be57565b634e487b7160e01b600052602260045260246000fd5b91607f16916146b3565b90600092918054916146ef836146a4565b9182825260019384811690816000146147515750600114614711575b50505050565b90919394506000526020928360002092846000945b83861061473d57505050500101903880808061470b565b805485870183015294019385908201614726565b9294505050602093945060ff191683830152151560051b0101903880808061470b565b96989794906147d7946147ad60e098956001600160a01b036147c9966147bb958d521660208c01526101008060408d01528b0190614664565b9089820360608b0152614664565b908782036080890152614664565b9085820360a0870152614664565b9460c08401521515910152565b60409060031901126103cd576004359060243590565b9060c06003198301126103cd576004356001600160a01b03811681036103cd57916001600160401b03906024358281116103cd578161483b91600401614583565b926044358381116103cd578261485391600401614583565b926064358181116103cd578361486b91600401614583565b926084359182116103cd5761488291600401614583565b9060a43590565b600a548110156148c357600a60005260031b7fc65a7bb8d6351c1cf70c95a316cc6a92839c986682d98bc35f958f4883f9d2a80190600090565b634e487b7160e01b600052603260045260246000fd5b156148e057565b60405162461bcd60e51b815260206004820152603760248201527f5365756c73206c657320636f6e747269627561626c65732070657576656e742060448201527f65666665637475657220636574746520616374696f6e2e0000000000000000006064820152608490fd5b60001981146120395760010190565b818110614965575050565b6000815560010161495a565b1561497857565b60405162461bcd60e51b8152602060048201526024808201527f4c612064656d616e64652064276f636375706174696f6e206e276578697374656044820152632070617360e01b6064820152608490fd5b156149d057565b60405162461bcd60e51b815260206004820152603260248201527f5365756c206c2761646d696e697374726174657572207065757420656666656360448201527f7475657220636574746520616374696f6e2e00000000000000000000000000006064820152608490fd5b90805182556001808301906020916001600160a01b0383850151166001600160a01b031982541617905560028401906040840151908151926001600160401b03938481116107465780614a8e83546146a4565b94601f95868111614e34575b508790868311600114614dd157600092614dc6575b5050600019600383901b1c191690831b1790555b6003918287016060870151805190868211610746578190614ae484546146a4565b858111614d98575b508890858311600114614d3657600092614d2b575b505060001982871b1c191690841b1790555b600487016080870151805190868211610746578190614b3284546146a4565b858111614cfd575b508890858311600114614c9b57600092614c90575b505060001982871b1c191690841b1790555b600587019460a087015190815195861161074657614b7f87546146a4565b838111614c62575b5080928611600114614beb575093614bde9796938160079794819460e098600095614be0575b50501b92600019911b1c19161790555b60c081015160068501550151151591019060ff801983541691151516179055565b565b015193503880614bad565b9294939190601f1985168760005284600020946000905b828210614c4b5750509285926007989592614bde9b9a9760e0999610614c31575b50505050811b019055614bbd565b01519060f884600019921b161c1916905538808080614c23565b808986988294978701518155019701940190614c02565b614c8a90886000528260002085808a0160051c820192858b10611249570160051c019061495a565b38614b87565b015190503880614b4f565b90869350601f19831691856000528a6000209260005b8c828210614ce75750508411614ccf575b505050811b019055614b61565b015160001983891b60f8161c19169055388080614cc2565b8385015186558a97909501949384019301614cb1565b614d2590856000528a6000208780860160051c8201928d8710611249570160051c019061495a565b38614b3a565b015190503880614b01565b90869350601f19831691856000528a6000209260005b8c828210614d825750508411614d6a575b505050811b019055614b13565b015160001983891b60f8161c19169055388080614d5d565b8385015186558a97909501949384019301614d4c565b614dc090856000528a6000208780860160051c8201928d8710611249570160051c019061495a565b38614aec565b015190503880614aaf565b90859350601f1983169185600052896000209260005b8b828210614e1e5750508411614e05575b505050811b019055614ac3565b015160001960f88460031b161c19169055388080614df8565b8385015186558997909501949384019301614de7565b614e5c9085600052896000208880860160051c8201928c8710611249570160051c019061495a565b38614a9a565b6001600160a01b0380911690816000526020916001835260409160ff836000205416600014614eac575050641059d95b9d60da1b905191614ea283614547565b6005835282015290565b6002845260ff836000205416600014614ee75750506b436f6e747269627561626c6560a01b905191614edd83614547565b600c835282015290565b6000541603614f05576420b236b4b760d91b905191614ea283614547565b66496e636f6e6e7560c81b905191614f1c83614547565b6007835282015290565b15614f2d57565b60405162461bcd60e51b815260206004820152602560248201527f436520636f6e747269627561626c65206e276573742070617320656e7265676960448201526439ba39329760d91b6064820152608490fd5b15614f8757565b60405162461bcd60e51b815260206004820152602960248201527f4365207479706520646520636f6d6d65726365206e276573742070617320656e6044820152683932b3b4b9ba39329760b91b6064820152608490fd5b614fe881546146a4565b9081614ff2575050565b81601f60009311600114615004575055565b908083918252615023601f60208420940160051c84016001850161495a565b5555565b6001600160401b0381116107465760051b60200190565b80518210156148c35760209160051b010190565b9061505c82615027565b60409061506b82519182614562565b838152809361507c601f1991615027565b019160005b83811061508e5750505050565b602090825161509c816144d9565b60008152826000818301526000858301526000606083015260006080830152600060a083015282860101520161508156fea2646970667358221220b4f20aa5400e2daecc61615bf17afd4987532aa8fbc3f807a5926c716f15724c64736f6c63430008130033",
  "immutableReferences": {},
  "source": "// SPDX-License-Identifier: MIT\npragma solidity >=0.4.22 <0.9.0;\n\n// // Contrat pour la gestion des taxes\n\ncontract TaxManagement {\n\n\n\n    event patentePayer(uint id,uint contribuableId, uint droitFixe, uint droitProportionnelle, uint annePaiement, uint sommePayee, bool estPayee ); \n    event PlaceOccupee(uint indexed marcheId, uint indexed date, uint contributeur, uint place);\n\n   \n    address public admin;\n    \n    mapping(address => bool) public estAgent;\n    mapping(address => bool) public estContribuable;\n    mapping(address => Admin) public admins;\n    mapping(uint => Agent) public agents;\n    mapping(uint => Contribuable) public contribuables;\n    mapping(uint => ActivitePrincipale) public activitePrincipale;\n    mapping(uint => Patente) public patentes;\n    // string[] public classes = [\"Exceptionnelle\", '1' , '2', '3', '4', '5', '6','7','8','9']; \n    mapping(uint => Marche) public marches;\n    mapping(uint => DemandeOccupation) public demandesOccupation;\n\n    Agent[] public allAgents;\n   \n    uint public contribuableCount = 0;\n    uint public commerceCount = 0;\n    uint public activitePrincipaleCount = 0;\n    uint public agentCount = 0; \n    uint public patentesCount= 0; \n    uint public marcheCount = 0;\n    uint public demandeOccupationCount = 0;\n\n    uint public currentYear = 2023; \n\n    struct Admin {\n        uint id;\n        string nom;\n        string prenom;\n        string adresse;\n        string email;\n        uint telephone;\n        bool estEnregistre;\n    }\n    \n    struct Agent {\n        uint id;\n        address ethAddress; // Adresse Ethereum de l'agent\n        string nom;\n        string prenom;\n        string adresse;\n        string email;\n        uint telephone;\n        bool estEnregistre;\n    }\n    \n    struct Contribuable {\n        uint id; \n        address ethAddress; // Adresse Ethereum du contribuable\n        string nif;\n        string denomination;\n        uint activitePrincipaleId;\n        string nom;\n        string prenom;\n        string adresse;\n        string email;\n        uint contact;\n        uint valeurLocative; \n        uint nombreEmployes;\n        string anneeModification;\n        uint agentId; \n        string typeContribuable;\n        string dateCreation; \n        bool estEnregistre;\n    }\n    \n      struct Marche {\n        uint id;\n        string nom;\n        uint nombrePlaces;\n        uint prixPlace;\n        uint placesOccupees; // Mapping des places occupees par date\n        uint idAgent;\n    }\n    \n    struct DemandeOccupation {\n        uint idOccupation;\n        uint idMarche; // ID du marche demande\n        string dateDebut; // Date de debut demandee\n        string dateFin; // Date de fin demandee\n        uint idContribuable; // ID du contribuable demandeur\n        bool estValidee; // Indique si la demande a ete validee par l'agent\n    }\n    \n    event DemandeOccupationCreee(uint idOccupation, uint idMarche, string dateDebut, string dateFin, uint idContribuable);\n    event DemandeOccupationValidee(uint idOccupation, uint idMarche, uint place, string dateDebut, string dateFin, uint idContribuable, address agent);\n    \n    struct ActivitePrincipale {\n        uint id;\n        string nom;\n        uint droitFixeAnnuel;\n        string description; \n        bool estEnregistre;\n    }\n\n    struct Patente {\n    uint id;\n    uint contribuableId;\n    uint droitFixe;\n    uint droitProportionnel;\n    uint anneePaiement;\n    bool estPayee;\n}\n\n\n    \n    constructor() {\n        admin = msg.sender;\n    }\n    \n    modifier seulementAdmin() {\n        require(msg.sender == admin, \"Seul l'administrateur peut effectuer cette action.\");\n        _;\n    }\n    \n    modifier seulementAgent() {\n        require(estAgent[msg.sender], \"Seuls les agents peuvent effectuer cette action.\");\n        _;\n    }\n    \n    modifier seulementContribuable() {\n        require(estContribuable[msg.sender], \"Seuls les contribuables peuvent effectuer cette action.\");\n        _;\n    }\n    \n\n    function creerDemandeOccupation(uint idContribuable, uint _idMarche, string memory _dateDebut, string memory _dateFin) public seulementContribuable {\n        // require(estContribuable[msg.sender], \"Seuls les contribuables peuvent creer une demande d'occupation\");\n        require(marches[_idMarche].placesOccupees < marches[_idMarche].nombrePlaces, \"Il n'y a plus de places disponibles\" );\n        demandeOccupationCount++;\n        \n        DemandeOccupation storage nouvelleDemande = demandesOccupation[demandeOccupationCount];\n        nouvelleDemande.idOccupation = demandeOccupationCount;\n        nouvelleDemande.idMarche = _idMarche;\n        nouvelleDemande.dateDebut = _dateDebut;\n        nouvelleDemande.dateFin = _dateFin;\n        nouvelleDemande.idContribuable = idContribuable;\n        \n        emit DemandeOccupationCreee(demandeOccupationCount, _idMarche, _dateDebut, _dateFin, idContribuable);\n    }\n    \n    function validerDemandeOccupation(uint _idOccupation) public  {\n        require(demandesOccupation[_idOccupation].idOccupation != 0, \"La demande d'occupation n'existe pas\");\n        \n        DemandeOccupation storage demande = demandesOccupation[_idOccupation];\n        \n        demande.estValidee = true;\n\n        emit DemandeOccupationValidee(_idOccupation, demande.idMarche, marches[demande.idMarche].placesOccupees, demande.dateDebut, demande.dateFin, demande.idContribuable, msg.sender);\n\n\n        marches[demande.idMarche].placesOccupees++;\n\n        \n    }\n    \n    function getDemandeOccupation(uint _idOccupation) public view returns (DemandeOccupation memory) {\n        require(demandesOccupation[_idOccupation].idOccupation != 0, \"La demande d'occupation n'existe pas\");\n        \n        DemandeOccupation storage demande = demandesOccupation[_idOccupation];\n        \n        return DemandeOccupation(demande.idOccupation, demande.idMarche, demande.dateDebut, demande.dateFin, demande.idContribuable, demande.estValidee);\n    }\n    \n\n    function ajouterAgent(address _ethAddress, string memory _nom, string memory _prenom, string memory _adresse, string memory _email, uint _telephone) public seulementAdmin {\n        require(!estAgent[_ethAddress], \"Cet agent est deja enregistre.\");\n        \n        Agent memory nouvelAgent = Agent({\n            id: agentCount,\n            ethAddress: _ethAddress,\n            nom: _nom,\n            prenom: _prenom,\n            adresse: _adresse,\n            email: _email,\n            telephone: _telephone,\n            estEnregistre: true\n        });\n        \n        estAgent[_ethAddress] = true;\n        agents[agentCount] = nouvelAgent;\n        allAgents.push(nouvelAgent); \n            // emit AgentAjoute(agentCount, _ethAddress, _nom, _prenom, _adresse, _email, _telephone, true);\n        agentCount++;\n    }\n\n    \n    function ajouterContribuable(address  _ethAddress, string memory _nif,string memory _denomination,uint  _activitePrincipaleId,   string memory _nom, string memory _prenom, string memory _adresse, string memory _email, uint _contact, string memory _typeContribuable, string memory _dateCreation, uint  _valeurLocative,uint _nombreEmployee, string memory _anneeModification,uint _agentId) public seulementAdmin {\n        require(!estContribuable[_ethAddress], \"Ce contribuable est deja enregistre.\");\n        \n        Contribuable memory nouveauContribuable = Contribuable({\n            id: contribuableCount,\n            ethAddress: _ethAddress,\n            nif : _nif,\n            denomination: _denomination, \n            activitePrincipaleId: _activitePrincipaleId, \n            nom: _nom,\n            prenom: _prenom,\n            adresse: _adresse,\n            email: _email,\n            contact: _contact,\n            valeurLocative : _valeurLocative,\n            nombreEmployes : _nombreEmployee,\n            anneeModification: _anneeModification,\n            agentId : _agentId, \n            typeContribuable : _typeContribuable, \n            dateCreation : _dateCreation,\n            estEnregistre: true\n        });\n        estContribuable[_ethAddress] = true;\n        contribuables[contribuableCount] = nouveauContribuable;\n        contribuableCount++;\n\n    }\n    \n\n    \n    function ajouterActivitePrincipale( string memory _nom, uint _droitFixeAnnuel, string memory _description) public seulementAdmin {\n        ActivitePrincipale memory nouveauActivitePrincipale = ActivitePrincipale({\n            id: activitePrincipaleCount,\n            nom: _nom,\n            droitFixeAnnuel: _droitFixeAnnuel,\n            description: _description,\n            estEnregistre: true\n        });\n        \n        activitePrincipale[activitePrincipaleCount] = nouveauActivitePrincipale;\n    activitePrincipaleCount++;\n    }\n\n    function creerPatente(uint contribuableId, uint anneePaiement) public seulementAgent() {\n    require(!patentes[contribuableId].estPayee, \"Une patente a deja ete payee pour cette annee.\");\n\n    // Recuperer le contribuable correspondant\n    Contribuable storage contribuable = contribuables[contribuableId];\n    \n    // Recuperer le type de contribuable correspondant\n    uint activiteId = contribuable.activitePrincipaleId;\n    ActivitePrincipale storage activite = activitePrincipale[activiteId];\n    \n    // Calculer le droit fixe et le droit proportionnel\n    uint droitFixe = activite.droitFixeAnnuel;\n    uint droitProportionnel = contribuable.valeurLocative / 10 ;\n    \n    // Verifier que le droit proportionnel est superieur ou egal a un quart du droit fixe\n    if (droitProportionnel < (droitFixe / 4)) {\n        droitProportionnel = (droitFixe / 4);\n    }\n    \n    // Creer la patente\n    Patente memory nouvellePatente = Patente({\n        id: patentesCount,\n        contribuableId: contribuableId,\n        droitFixe: droitFixe,\n        droitProportionnel: droitProportionnel,\n        anneePaiement: anneePaiement,\n        estPayee: false\n    });\n    patentes[patentesCount] = nouvellePatente;\n    patentesCount++;\n    \n}\nfunction payerPatente(uint patenteId, uint sommePayee) public seulementContribuable {\n    require(!patentes[patenteId].estPayee, \"Cette patente a deja ete payee.\");\n    \n    // Mettre a jour la propriete estPayee de la patente\n    if (sommePayee >= (patentes[patenteId].droitProportionnel + patentes[patenteId].droitFixe)) {\n      \n      patentes[patenteId].estPayee = true;\n      emit patentePayer(patenteId, patentes[patenteId].contribuableId, patentes[patenteId].droitFixe, patentes[patenteId].droitProportionnel, patentes[patenteId].anneePaiement, sommePayee, true);\n\n    } else {\n      \n      emit patentePayer(patenteId, patentes[patenteId].contribuableId, patentes[patenteId].droitFixe, patentes[patenteId].droitProportionnel, patentes[patenteId].anneePaiement, sommePayee, false);\n\n    }\n    \n}\n\n\n    function getTypeUtilisateur(address _adresse) public view returns (string memory) {\n        if (estAgent[_adresse]) {\n            return \"Agent\";\n        } else if (estContribuable[_adresse]) {\n            return \"Contribuable\";\n        } else if (_adresse == admin) {\n            return \"Admin\";\n        } else {\n            return \"Inconnu\";\n        }\n    }\n\nfunction supprimerAgent(address _ethAddress) public seulementAdmin {\n    \n    for (uint index = 0; index < agentCount; index++) {\n        if(_ethAddress == agents[index].ethAddress){\n            agents[index].estEnregistre = false; \n            break;\n        }\n    }\n}\nfunction supprimerContribuable(address _ethAddress) public seulementAdmin {\n   for (uint index = 0; index < contribuableCount; index++) {\n          if(_ethAddress == contribuables[index].ethAddress){\n            contribuables[index].estEnregistre = false;\n        }\n    }\n}\nfunction modifierAgent(address _ethAddress, string memory _nom, string memory _prenom, string memory _adresse, string memory _email, uint _telephone) public seulementAdmin {\n    require(estAgent[_ethAddress], \"Cet agent n'est pas enregistre.\");\n        \n\n    for (uint index = 0; index < agentCount; index++) {\n        if(_ethAddress == agents[index].ethAddress){\n            // agents[index].estEnregistre = false; \n            Agent storage agent = agents[index]; \n            agent.id = agents[index].id; \n            agent.ethAddress = _ethAddress; \n            agent.nom = _nom;\n            agent.prenom = _prenom;\n            agent.adresse = _adresse;\n            agent.email = _email;\n            agent.telephone = _telephone;\n            agent.estEnregistre = true; \n            break;\n        }\n    }\n   \n}\nfunction modifierContribuable(address _ethAddress,string memory _denomination,uint _activitePrincipaleId, string memory _nom, string memory _prenom, string memory _adresse, string memory _email, uint _contact,string memory _typeContribuable,  uint _valeurLocative,  uint _nombreEmployes,\n        string memory _anneeModification, uint _agentId ) public seulementAdmin {\n    require(estContribuable[_ethAddress], \"Ce contribuable n'est pas enregistre.\");\n   for (uint index = 0; index < contribuableCount; index++) {\n    if(_ethAddress == contribuables[index].ethAddress){\n    Contribuable storage contribuable = contribuables[index];\n    contribuable.nom = _nom;\n    contribuable.prenom = _prenom;\n    contribuable.adresse = _adresse;\n    contribuable.email = _email;\n    contribuable.contact = _contact;\n    contribuable.valeurLocative = _valeurLocative; \n    contribuable.nombreEmployes = _nombreEmployes;\n    contribuable.anneeModification= _anneeModification;\n    contribuable.agentId = _agentId; \n    contribuable.activitePrincipaleId= _activitePrincipaleId; \n    contribuable.denomination = _denomination;\n    contribuable.typeContribuable = _typeContribuable;\n    }\n   }\n}\nfunction supprimerActivitePrincipale(uint _id) public seulementAdmin {\n    require(activitePrincipale[_id].estEnregistre, \"Ce type de commerce n'est pas enregistre.\");\n    activitePrincipale[_id].estEnregistre = false;\n    delete activitePrincipale[_id];\n}\nfunction modifierActivitePrincipale(uint _id, string memory _nom, uint _droitFixeAnnuel, string memory _description) public seulementAdmin {\n    require(activitePrincipale[_id].estEnregistre, \"Ce type de commerce n'est pas enregistre.\");\n    ActivitePrincipale storage typeC = activitePrincipale[_id];\n    typeC.nom = _nom;\n    typeC.droitFixeAnnuel = _droitFixeAnnuel;\n    typeC.description = _description;\n}\n\n\nfunction getAgents() public view returns (Agent[] memory) {\n    Agent[] memory agentsList = new Agent[](agentCount);\n    for (uint i = 0; i < agentCount; i++) {\n        if(agents[i].estEnregistre){\n        agentsList[i] = agents[i];}\n    }\n    return agentsList;\n}\n\nfunction getContribuables() public view returns (Contribuable[] memory) {\n    Contribuable[] memory contribuablesList = new Contribuable[](contribuableCount);\n    for (uint i = 0; i <= contribuableCount; i++) {\n        if(contribuables[i].estEnregistre){\n        contribuablesList[i] = contribuables[i];}\n    }\n    return contribuablesList;\n}\n\nfunction getPatentesPayer()public view returns (Patente[] memory){\n  Patente[] memory patenteList = new Patente[](patentesCount); \n  for (uint index = 0; index < patentesCount; index++) {\n    if (patentes[index].estPayee) {\n      patenteList[index] = patentes[index]; \n    } \n  }\n  return patenteList;\n}\n\nfunction getPatentesNonPayer()public view returns (Patente[] memory){\n  Patente[] memory patenteList = new Patente[](patentesCount); \n  for (uint index = 0; index < patentesCount; index++) {\n    if (!patentes[index].estPayee) {\n      patenteList[index] = patentes[index]; \n    } \n  }\n  return patenteList;\n}\nfunction getActivitesPrincipales() public view returns (ActivitePrincipale[] memory) {\n  ActivitePrincipale[] memory activitesPrincipalesList = new ActivitePrincipale[](activitePrincipaleCount);\n  uint counter = 0;\n  for (uint id = 0; id < activitePrincipaleCount; id++){\n    if(activitePrincipale[id].estEnregistre){\n      activitesPrincipalesList[counter] = activitePrincipale[id];\n      counter++;\n      }\n      }\n      return activitesPrincipalesList;\n}\n\n\nfunction getPatenteByContribuable(address _contribuableAdress) public view returns (Patente[] memory) {\n  require(estContribuable[_contribuableAdress], \"Ce contribuable n'est pas enregistre.\");\n\n  Patente[] memory patenteList = new Patente[](patentesCount);\n  // Contribuable memory contribuableSelect = new Contribuable(contribuableCount);\n    for (uint i = 0; i <= contribuableCount; i++) {\n    if(_contribuableAdress == contribuables[i].ethAddress){\n        Contribuable memory contribuableSelected = contribuables[i];\n        for (uint j=0 ;j<patentesCount;j++){\n          if(contribuableSelected.id==patentes[j].contribuableId){\n            patenteList[j]=patentes[j];\n          }\n        }\n    }\n  \n}\nreturn patenteList; \n}\n \n    function ajouterMarche(string memory _nom, uint _nombrePlaces, uint _prixPlace, uint idAgent) public seulementAdmin {\n        \n        Marche memory nouveauMarche = Marche({\n        id : marcheCount,\n        nom : _nom,\n        nombrePlaces : _nombrePlaces,\n        prixPlace : _prixPlace,\n        placesOccupees : 0, \n        idAgent : idAgent\n        });\n\n        marches[marcheCount] = nouveauMarche; \n               marcheCount++;\n\n    }\n    \n    function getMarches() public view returns (Marche[] memory) {\n  Marche[] memory marchesList = new Marche[](marcheCount);\n  uint counter = 0;\n  for (uint id = 0; id < marcheCount; id++){\n   \n      marchesList[counter] = marches[id];\n      counter++;\n\n      }\n      return marchesList;\n}\n   \n}\n",
  "sourcePath": "D:\\PFE\\pfe_block\\smartContracts\\contracts\\TaxManagement.sol",
  "compiler": {
    "name": "solc",
    "version": "0.8.19+commit.7dd6d404.Emscripten.clang"
  },
  "schemaVersion": "3.4.15",
  "updatedAt": "2023-12-12T18:04:12.038Z",
  "networkType": "ethereum",
  "devdoc": {
    "kind": "dev",
    "methods": {},
    "version": 1
  },
  "userdoc": {
    "kind": "user",
    "methods": {},
    "version": 1
  }
}