{
  "contractName": "TaxManagement",
  "abi": [
    {
      "inputs": [],
      "stateMutability": "nonpayable",
      "type": "constructor"
    },
    {
      "anonymous": false,
      "inputs": [
        {
          "indexed": false,
          "internalType": "uint256",
          "name": "idOccupation",
          "type": "uint256"
        },
        {
          "indexed": false,
          "internalType": "uint256",
          "name": "idMarche",
          "type": "uint256"
        },
        {
          "indexed": false,
          "internalType": "string",
          "name": "dateDebut",
          "type": "string"
        },
        {
          "indexed": false,
          "internalType": "string",
          "name": "dateFin",
          "type": "string"
        },
        {
          "indexed": false,
          "internalType": "uint256",
          "name": "idContribuable",
          "type": "uint256"
        }
      ],
      "name": "DemandeOccupationCreee",
      "type": "event"
    },
    {
      "anonymous": false,
      "inputs": [
        {
          "indexed": false,
          "internalType": "uint256",
          "name": "idOccupation",
          "type": "uint256"
        },
        {
          "indexed": false,
          "internalType": "uint256",
          "name": "idMarche",
          "type": "uint256"
        },
        {
          "indexed": false,
          "internalType": "uint256",
          "name": "place",
          "type": "uint256"
        },
        {
          "indexed": false,
          "internalType": "string",
          "name": "dateDebut",
          "type": "string"
        },
        {
          "indexed": false,
          "internalType": "string",
          "name": "dateFin",
          "type": "string"
        },
        {
          "indexed": false,
          "internalType": "uint256",
          "name": "idContribuable",
          "type": "uint256"
        },
        {
          "indexed": false,
          "internalType": "address",
          "name": "agent",
          "type": "address"
        }
      ],
      "name": "DemandeOccupationValidee",
      "type": "event"
    },
    {
      "anonymous": false,
      "inputs": [
        {
          "indexed": true,
          "internalType": "uint256",
          "name": "marcheId",
          "type": "uint256"
        },
        {
          "indexed": true,
          "internalType": "uint256",
          "name": "date",
          "type": "uint256"
        },
        {
          "indexed": false,
          "internalType": "uint256",
          "name": "contributeur",
          "type": "uint256"
        },
        {
          "indexed": false,
          "internalType": "uint256",
          "name": "place",
          "type": "uint256"
        }
      ],
      "name": "PlaceOccupee",
      "type": "event"
    },
    {
      "anonymous": false,
      "inputs": [
        {
          "indexed": false,
          "internalType": "uint256",
          "name": "id",
          "type": "uint256"
        },
        {
          "indexed": false,
          "internalType": "uint256",
          "name": "contribuableId",
          "type": "uint256"
        },
        {
          "indexed": false,
          "internalType": "uint256",
          "name": "droitFixe",
          "type": "uint256"
        },
        {
          "indexed": false,
          "internalType": "uint256",
          "name": "droitProportionnelle",
          "type": "uint256"
        },
        {
          "indexed": false,
          "internalType": "uint256",
          "name": "annePaiement",
          "type": "uint256"
        },
        {
          "indexed": false,
          "internalType": "uint256",
          "name": "sommePayee",
          "type": "uint256"
        },
        {
          "indexed": false,
          "internalType": "bool",
          "name": "estPayee",
          "type": "bool"
        }
      ],
      "name": "patentePayer",
      "type": "event"
    },
    {
      "inputs": [
        {
          "internalType": "uint256",
          "name": "",
          "type": "uint256"
        }
      ],
      "name": "activitePrincipale",
      "outputs": [
        {
          "internalType": "uint256",
          "name": "id",
          "type": "uint256"
        },
        {
          "internalType": "string",
          "name": "nom",
          "type": "string"
        },
        {
          "internalType": "uint256",
          "name": "droitFixeAnnuel",
          "type": "uint256"
        },
        {
          "internalType": "string",
          "name": "description",
          "type": "string"
        },
        {
          "internalType": "bool",
          "name": "estEnregistre",
          "type": "bool"
        }
      ],
      "stateMutability": "view",
      "type": "function",
      "constant": true
    },
    {
      "inputs": [],
      "name": "activitePrincipaleCount",
      "outputs": [
        {
          "internalType": "uint256",
          "name": "",
          "type": "uint256"
        }
      ],
      "stateMutability": "view",
      "type": "function",
      "constant": true
    },
    {
      "inputs": [],
      "name": "admin",
      "outputs": [
        {
          "internalType": "address",
          "name": "",
          "type": "address"
        }
      ],
      "stateMutability": "view",
      "type": "function",
      "constant": true
    },
    {
      "inputs": [
        {
          "internalType": "address",
          "name": "",
          "type": "address"
        }
      ],
      "name": "admins",
      "outputs": [
        {
          "internalType": "uint256",
          "name": "id",
          "type": "uint256"
        },
        {
          "internalType": "string",
          "name": "nom",
          "type": "string"
        },
        {
          "internalType": "string",
          "name": "prenom",
          "type": "string"
        },
        {
          "internalType": "string",
          "name": "adresse",
          "type": "string"
        },
        {
          "internalType": "string",
          "name": "email",
          "type": "string"
        },
        {
          "internalType": "uint256",
          "name": "telephone",
          "type": "uint256"
        },
        {
          "internalType": "bool",
          "name": "estEnregistre",
          "type": "bool"
        }
      ],
      "stateMutability": "view",
      "type": "function",
      "constant": true
    },
    {
      "inputs": [],
      "name": "agentCount",
      "outputs": [
        {
          "internalType": "uint256",
          "name": "",
          "type": "uint256"
        }
      ],
      "stateMutability": "view",
      "type": "function",
      "constant": true
    },
    {
      "inputs": [
        {
          "internalType": "uint256",
          "name": "",
          "type": "uint256"
        }
      ],
      "name": "agents",
      "outputs": [
        {
          "internalType": "uint256",
          "name": "id",
          "type": "uint256"
        },
        {
          "internalType": "address",
          "name": "ethAddress",
          "type": "address"
        },
        {
          "internalType": "string",
          "name": "nom",
          "type": "string"
        },
        {
          "internalType": "string",
          "name": "prenom",
          "type": "string"
        },
        {
          "internalType": "string",
          "name": "adresse",
          "type": "string"
        },
        {
          "internalType": "string",
          "name": "email",
          "type": "string"
        },
        {
          "internalType": "uint256",
          "name": "telephone",
          "type": "uint256"
        },
        {
          "internalType": "bool",
          "name": "estEnregistre",
          "type": "bool"
        }
      ],
      "stateMutability": "view",
      "type": "function",
      "constant": true
    },
    {
      "inputs": [
        {
          "internalType": "uint256",
          "name": "",
          "type": "uint256"
        }
      ],
      "name": "allAgents",
      "outputs": [
        {
          "internalType": "uint256",
          "name": "id",
          "type": "uint256"
        },
        {
          "internalType": "address",
          "name": "ethAddress",
          "type": "address"
        },
        {
          "internalType": "string",
          "name": "nom",
          "type": "string"
        },
        {
          "internalType": "string",
          "name": "prenom",
          "type": "string"
        },
        {
          "internalType": "string",
          "name": "adresse",
          "type": "string"
        },
        {
          "internalType": "string",
          "name": "email",
          "type": "string"
        },
        {
          "internalType": "uint256",
          "name": "telephone",
          "type": "uint256"
        },
        {
          "internalType": "bool",
          "name": "estEnregistre",
          "type": "bool"
        }
      ],
      "stateMutability": "view",
      "type": "function",
      "constant": true
    },
    {
      "inputs": [],
      "name": "commerceCount",
      "outputs": [
        {
          "internalType": "uint256",
          "name": "",
          "type": "uint256"
        }
      ],
      "stateMutability": "view",
      "type": "function",
      "constant": true
    },
    {
      "inputs": [],
      "name": "contribuableCount",
      "outputs": [
        {
          "internalType": "uint256",
          "name": "",
          "type": "uint256"
        }
      ],
      "stateMutability": "view",
      "type": "function",
      "constant": true
    },
    {
      "inputs": [
        {
          "internalType": "uint256",
          "name": "",
          "type": "uint256"
        }
      ],
      "name": "contribuables",
      "outputs": [
        {
          "internalType": "uint256",
          "name": "id",
          "type": "uint256"
        },
        {
          "internalType": "address",
          "name": "ethAddress",
          "type": "address"
        },
        {
          "internalType": "string",
          "name": "nif",
          "type": "string"
        },
        {
          "internalType": "string",
          "name": "denomination",
          "type": "string"
        },
        {
          "internalType": "uint256",
          "name": "activitePrincipaleId",
          "type": "uint256"
        },
        {
          "internalType": "string",
          "name": "nom",
          "type": "string"
        },
        {
          "internalType": "string",
          "name": "prenom",
          "type": "string"
        },
        {
          "internalType": "string",
          "name": "adresse",
          "type": "string"
        },
        {
          "internalType": "string",
          "name": "email",
          "type": "string"
        },
        {
          "internalType": "uint256",
          "name": "contact",
          "type": "uint256"
        },
        {
          "internalType": "uint256",
          "name": "valeurLocative",
          "type": "uint256"
        },
        {
          "internalType": "uint256",
          "name": "nombreEmployes",
          "type": "uint256"
        },
        {
          "internalType": "string",
          "name": "anneeModification",
          "type": "string"
        },
        {
          "internalType": "uint256",
          "name": "agentId",
          "type": "uint256"
        },
        {
          "internalType": "string",
          "name": "typeContribuable",
          "type": "string"
        },
        {
          "internalType": "string",
          "name": "dateCreation",
          "type": "string"
        },
        {
          "internalType": "bool",
          "name": "estEnregistre",
          "type": "bool"
        }
      ],
      "stateMutability": "view",
      "type": "function",
      "constant": true
    },
    {
      "inputs": [],
      "name": "currentYear",
      "outputs": [
        {
          "internalType": "uint256",
          "name": "",
          "type": "uint256"
        }
      ],
      "stateMutability": "view",
      "type": "function",
      "constant": true
    },
    {
      "inputs": [],
      "name": "demandeOccupationCount",
      "outputs": [
        {
          "internalType": "uint256",
          "name": "",
          "type": "uint256"
        }
      ],
      "stateMutability": "view",
      "type": "function",
      "constant": true
    },
    {
      "inputs": [
        {
          "internalType": "uint256",
          "name": "",
          "type": "uint256"
        }
      ],
      "name": "demandesOccupation",
      "outputs": [
        {
          "internalType": "uint256",
          "name": "idOccupation",
          "type": "uint256"
        },
        {
          "internalType": "uint256",
          "name": "idMarche",
          "type": "uint256"
        },
        {
          "internalType": "string",
          "name": "dateDebut",
          "type": "string"
        },
        {
          "internalType": "string",
          "name": "dateFin",
          "type": "string"
        },
        {
          "internalType": "uint256",
          "name": "idContribuable",
          "type": "uint256"
        },
        {
          "internalType": "bool",
          "name": "estValidee",
          "type": "bool"
        }
      ],
      "stateMutability": "view",
      "type": "function",
      "constant": true
    },
    {
      "inputs": [
        {
          "internalType": "address",
          "name": "",
          "type": "address"
        }
      ],
      "name": "estAgent",
      "outputs": [
        {
          "internalType": "bool",
          "name": "",
          "type": "bool"
        }
      ],
      "stateMutability": "view",
      "type": "function",
      "constant": true
    },
    {
      "inputs": [
        {
          "internalType": "address",
          "name": "",
          "type": "address"
        }
      ],
      "name": "estContribuable",
      "outputs": [
        {
          "internalType": "bool",
          "name": "",
          "type": "bool"
        }
      ],
      "stateMutability": "view",
      "type": "function",
      "constant": true
    },
    {
      "inputs": [],
      "name": "marcheCount",
      "outputs": [
        {
          "internalType": "uint256",
          "name": "",
          "type": "uint256"
        }
      ],
      "stateMutability": "view",
      "type": "function",
      "constant": true
    },
    {
      "inputs": [
        {
          "internalType": "uint256",
          "name": "",
          "type": "uint256"
        }
      ],
      "name": "marches",
      "outputs": [
        {
          "internalType": "uint256",
          "name": "id",
          "type": "uint256"
        },
        {
          "internalType": "string",
          "name": "nom",
          "type": "string"
        },
        {
          "internalType": "uint256",
          "name": "nombrePlaces",
          "type": "uint256"
        },
        {
          "internalType": "uint256",
          "name": "prixPlace",
          "type": "uint256"
        },
        {
          "internalType": "uint256",
          "name": "placesOccupees",
          "type": "uint256"
        }
      ],
      "stateMutability": "view",
      "type": "function",
      "constant": true
    },
    {
      "inputs": [
        {
          "internalType": "uint256",
          "name": "",
          "type": "uint256"
        }
      ],
      "name": "patentes",
      "outputs": [
        {
          "internalType": "uint256",
          "name": "id",
          "type": "uint256"
        },
        {
          "internalType": "uint256",
          "name": "contribuableId",
          "type": "uint256"
        },
        {
          "internalType": "uint256",
          "name": "droitFixe",
          "type": "uint256"
        },
        {
          "internalType": "uint256",
          "name": "droitProportionnel",
          "type": "uint256"
        },
        {
          "internalType": "uint256",
          "name": "anneePaiement",
          "type": "uint256"
        },
        {
          "internalType": "bool",
          "name": "estPayee",
          "type": "bool"
        }
      ],
      "stateMutability": "view",
      "type": "function",
      "constant": true
    },
    {
      "inputs": [],
      "name": "patentesCount",
      "outputs": [
        {
          "internalType": "uint256",
          "name": "",
          "type": "uint256"
        }
      ],
      "stateMutability": "view",
      "type": "function",
      "constant": true
    },
    {
      "inputs": [
        {
          "internalType": "uint256",
          "name": "idContribuable",
          "type": "uint256"
        },
        {
          "internalType": "uint256",
          "name": "_idMarche",
          "type": "uint256"
        },
        {
          "internalType": "string",
          "name": "_dateDebut",
          "type": "string"
        },
        {
          "internalType": "string",
          "name": "_dateFin",
          "type": "string"
        }
      ],
      "name": "creerDemandeOccupation",
      "outputs": [],
      "stateMutability": "nonpayable",
      "type": "function"
    },
    {
      "inputs": [
        {
          "internalType": "uint256",
          "name": "_idOccupation",
          "type": "uint256"
        }
      ],
      "name": "validerDemandeOccupation",
      "outputs": [],
      "stateMutability": "nonpayable",
      "type": "function"
    },
    {
      "inputs": [
        {
          "internalType": "uint256",
          "name": "_idOccupation",
          "type": "uint256"
        }
      ],
      "name": "getDemandeOccupation",
      "outputs": [
        {
          "components": [
            {
              "internalType": "uint256",
              "name": "idOccupation",
              "type": "uint256"
            },
            {
              "internalType": "uint256",
              "name": "idMarche",
              "type": "uint256"
            },
            {
              "internalType": "string",
              "name": "dateDebut",
              "type": "string"
            },
            {
              "internalType": "string",
              "name": "dateFin",
              "type": "string"
            },
            {
              "internalType": "uint256",
              "name": "idContribuable",
              "type": "uint256"
            },
            {
              "internalType": "bool",
              "name": "estValidee",
              "type": "bool"
            }
          ],
          "internalType": "struct TaxManagement.DemandeOccupation",
          "name": "",
          "type": "tuple"
        }
      ],
      "stateMutability": "view",
      "type": "function",
      "constant": true
    },
    {
      "inputs": [
        {
          "internalType": "address",
          "name": "_ethAddress",
          "type": "address"
        },
        {
          "internalType": "string",
          "name": "_nom",
          "type": "string"
        },
        {
          "internalType": "string",
          "name": "_prenom",
          "type": "string"
        },
        {
          "internalType": "string",
          "name": "_adresse",
          "type": "string"
        },
        {
          "internalType": "string",
          "name": "_email",
          "type": "string"
        },
        {
          "internalType": "uint256",
          "name": "_telephone",
          "type": "uint256"
        }
      ],
      "name": "ajouterAgent",
      "outputs": [],
      "stateMutability": "nonpayable",
      "type": "function"
    },
    {
      "inputs": [
        {
          "internalType": "address",
          "name": "_ethAddress",
          "type": "address"
        },
        {
          "internalType": "string",
          "name": "_nif",
          "type": "string"
        },
        {
          "internalType": "string",
          "name": "_denomination",
          "type": "string"
        },
        {
          "internalType": "uint256",
          "name": "_activitePrincipaleId",
          "type": "uint256"
        },
        {
          "internalType": "string",
          "name": "_nom",
          "type": "string"
        },
        {
          "internalType": "string",
          "name": "_prenom",
          "type": "string"
        },
        {
          "internalType": "string",
          "name": "_adresse",
          "type": "string"
        },
        {
          "internalType": "string",
          "name": "_email",
          "type": "string"
        },
        {
          "internalType": "uint256",
          "name": "_contact",
          "type": "uint256"
        },
        {
          "internalType": "string",
          "name": "_typeContribuable",
          "type": "string"
        },
        {
          "internalType": "string",
          "name": "_dateCreation",
          "type": "string"
        },
        {
          "internalType": "uint256",
          "name": "_valeurLocative",
          "type": "uint256"
        },
        {
          "internalType": "uint256",
          "name": "_nombreEmployee",
          "type": "uint256"
        },
        {
          "internalType": "string",
          "name": "_anneeModification",
          "type": "string"
        },
        {
          "internalType": "uint256",
          "name": "_agentId",
          "type": "uint256"
        }
      ],
      "name": "ajouterContribuable",
      "outputs": [],
      "stateMutability": "nonpayable",
      "type": "function"
    },
    {
      "inputs": [
        {
          "internalType": "string",
          "name": "_nom",
          "type": "string"
        },
        {
          "internalType": "uint256",
          "name": "_droitFixeAnnuel",
          "type": "uint256"
        },
        {
          "internalType": "string",
          "name": "_description",
          "type": "string"
        }
      ],
      "name": "ajouterActivitePrincipale",
      "outputs": [],
      "stateMutability": "nonpayable",
      "type": "function"
    },
    {
      "inputs": [
        {
          "internalType": "uint256",
          "name": "contribuableId",
          "type": "uint256"
        },
        {
          "internalType": "uint256",
          "name": "anneePaiement",
          "type": "uint256"
        }
      ],
      "name": "creerPatente",
      "outputs": [],
      "stateMutability": "nonpayable",
      "type": "function"
    },
    {
      "inputs": [
        {
          "internalType": "uint256",
          "name": "patenteId",
          "type": "uint256"
        },
        {
          "internalType": "uint256",
          "name": "sommePayee",
          "type": "uint256"
        }
      ],
      "name": "payerPatente",
      "outputs": [],
      "stateMutability": "nonpayable",
      "type": "function"
    },
    {
      "inputs": [
        {
          "internalType": "address",
          "name": "_adresse",
          "type": "address"
        }
      ],
      "name": "getTypeUtilisateur",
      "outputs": [
        {
          "internalType": "string",
          "name": "",
          "type": "string"
        }
      ],
      "stateMutability": "view",
      "type": "function",
      "constant": true
    },
    {
      "inputs": [
        {
          "internalType": "address",
          "name": "_ethAddress",
          "type": "address"
        }
      ],
      "name": "supprimerAgent",
      "outputs": [],
      "stateMutability": "nonpayable",
      "type": "function"
    },
    {
      "inputs": [
        {
          "internalType": "address",
          "name": "_ethAddress",
          "type": "address"
        }
      ],
      "name": "supprimerContribuable",
      "outputs": [],
      "stateMutability": "nonpayable",
      "type": "function"
    },
    {
      "inputs": [
        {
          "internalType": "address",
          "name": "_ethAddress",
          "type": "address"
        },
        {
          "internalType": "string",
          "name": "_nom",
          "type": "string"
        },
        {
          "internalType": "string",
          "name": "_prenom",
          "type": "string"
        },
        {
          "internalType": "string",
          "name": "_adresse",
          "type": "string"
        },
        {
          "internalType": "string",
          "name": "_email",
          "type": "string"
        },
        {
          "internalType": "uint256",
          "name": "_telephone",
          "type": "uint256"
        }
      ],
      "name": "modifierAgent",
      "outputs": [],
      "stateMutability": "nonpayable",
      "type": "function"
    },
    {
      "inputs": [
        {
          "internalType": "address",
          "name": "_ethAddress",
          "type": "address"
        },
        {
          "internalType": "string",
          "name": "_denomination",
          "type": "string"
        },
        {
          "internalType": "uint256",
          "name": "_activitePrincipaleId",
          "type": "uint256"
        },
        {
          "internalType": "string",
          "name": "_nom",
          "type": "string"
        },
        {
          "internalType": "string",
          "name": "_prenom",
          "type": "string"
        },
        {
          "internalType": "string",
          "name": "_adresse",
          "type": "string"
        },
        {
          "internalType": "string",
          "name": "_email",
          "type": "string"
        },
        {
          "internalType": "uint256",
          "name": "_contact",
          "type": "uint256"
        },
        {
          "internalType": "string",
          "name": "_typeContribuable",
          "type": "string"
        },
        {
          "internalType": "uint256",
          "name": "_valeurLocative",
          "type": "uint256"
        },
        {
          "internalType": "uint256",
          "name": "_nombreEmployes",
          "type": "uint256"
        },
        {
          "internalType": "string",
          "name": "_anneeModification",
          "type": "string"
        },
        {
          "internalType": "uint256",
          "name": "_agentId",
          "type": "uint256"
        }
      ],
      "name": "modifierContribuable",
      "outputs": [],
      "stateMutability": "nonpayable",
      "type": "function"
    },
    {
      "inputs": [
        {
          "internalType": "uint256",
          "name": "_id",
          "type": "uint256"
        }
      ],
      "name": "supprimerActivitePrincipale",
      "outputs": [],
      "stateMutability": "nonpayable",
      "type": "function"
    },
    {
      "inputs": [
        {
          "internalType": "uint256",
          "name": "_id",
          "type": "uint256"
        },
        {
          "internalType": "string",
          "name": "_nom",
          "type": "string"
        },
        {
          "internalType": "uint256",
          "name": "_droitFixeAnnuel",
          "type": "uint256"
        },
        {
          "internalType": "string",
          "name": "_description",
          "type": "string"
        }
      ],
      "name": "modifierActivitePrincipale",
      "outputs": [],
      "stateMutability": "nonpayable",
      "type": "function"
    },
    {
      "inputs": [],
      "name": "getAgents",
      "outputs": [
        {
          "components": [
            {
              "internalType": "uint256",
              "name": "id",
              "type": "uint256"
            },
            {
              "internalType": "address",
              "name": "ethAddress",
              "type": "address"
            },
            {
              "internalType": "string",
              "name": "nom",
              "type": "string"
            },
            {
              "internalType": "string",
              "name": "prenom",
              "type": "string"
            },
            {
              "internalType": "string",
              "name": "adresse",
              "type": "string"
            },
            {
              "internalType": "string",
              "name": "email",
              "type": "string"
            },
            {
              "internalType": "uint256",
              "name": "telephone",
              "type": "uint256"
            },
            {
              "internalType": "bool",
              "name": "estEnregistre",
              "type": "bool"
            }
          ],
          "internalType": "struct TaxManagement.Agent[]",
          "name": "",
          "type": "tuple[]"
        }
      ],
      "stateMutability": "view",
      "type": "function",
      "constant": true
    },
    {
      "inputs": [],
      "name": "getContribuables",
      "outputs": [
        {
          "components": [
            {
              "internalType": "uint256",
              "name": "id",
              "type": "uint256"
            },
            {
              "internalType": "address",
              "name": "ethAddress",
              "type": "address"
            },
            {
              "internalType": "string",
              "name": "nif",
              "type": "string"
            },
            {
              "internalType": "string",
              "name": "denomination",
              "type": "string"
            },
            {
              "internalType": "uint256",
              "name": "activitePrincipaleId",
              "type": "uint256"
            },
            {
              "internalType": "string",
              "name": "nom",
              "type": "string"
            },
            {
              "internalType": "string",
              "name": "prenom",
              "type": "string"
            },
            {
              "internalType": "string",
              "name": "adresse",
              "type": "string"
            },
            {
              "internalType": "string",
              "name": "email",
              "type": "string"
            },
            {
              "internalType": "uint256",
              "name": "contact",
              "type": "uint256"
            },
            {
              "internalType": "uint256",
              "name": "valeurLocative",
              "type": "uint256"
            },
            {
              "internalType": "uint256",
              "name": "nombreEmployes",
              "type": "uint256"
            },
            {
              "internalType": "string",
              "name": "anneeModification",
              "type": "string"
            },
            {
              "internalType": "uint256",
              "name": "agentId",
              "type": "uint256"
            },
            {
              "internalType": "string",
              "name": "typeContribuable",
              "type": "string"
            },
            {
              "internalType": "string",
              "name": "dateCreation",
              "type": "string"
            },
            {
              "internalType": "bool",
              "name": "estEnregistre",
              "type": "bool"
            }
          ],
          "internalType": "struct TaxManagement.Contribuable[]",
          "name": "",
          "type": "tuple[]"
        }
      ],
      "stateMutability": "view",
      "type": "function",
      "constant": true
    },
    {
      "inputs": [],
      "name": "getPatentesPayer",
      "outputs": [
        {
          "components": [
            {
              "internalType": "uint256",
              "name": "id",
              "type": "uint256"
            },
            {
              "internalType": "uint256",
              "name": "contribuableId",
              "type": "uint256"
            },
            {
              "internalType": "uint256",
              "name": "droitFixe",
              "type": "uint256"
            },
            {
              "internalType": "uint256",
              "name": "droitProportionnel",
              "type": "uint256"
            },
            {
              "internalType": "uint256",
              "name": "anneePaiement",
              "type": "uint256"
            },
            {
              "internalType": "bool",
              "name": "estPayee",
              "type": "bool"
            }
          ],
          "internalType": "struct TaxManagement.Patente[]",
          "name": "",
          "type": "tuple[]"
        }
      ],
      "stateMutability": "view",
      "type": "function",
      "constant": true
    },
    {
      "inputs": [],
      "name": "getPatentesNonPayer",
      "outputs": [
        {
          "components": [
            {
              "internalType": "uint256",
              "name": "id",
              "type": "uint256"
            },
            {
              "internalType": "uint256",
              "name": "contribuableId",
              "type": "uint256"
            },
            {
              "internalType": "uint256",
              "name": "droitFixe",
              "type": "uint256"
            },
            {
              "internalType": "uint256",
              "name": "droitProportionnel",
              "type": "uint256"
            },
            {
              "internalType": "uint256",
              "name": "anneePaiement",
              "type": "uint256"
            },
            {
              "internalType": "bool",
              "name": "estPayee",
              "type": "bool"
            }
          ],
          "internalType": "struct TaxManagement.Patente[]",
          "name": "",
          "type": "tuple[]"
        }
      ],
      "stateMutability": "view",
      "type": "function",
      "constant": true
    },
    {
      "inputs": [],
      "name": "getActivitesPrincipales",
      "outputs": [
        {
          "components": [
            {
              "internalType": "uint256",
              "name": "id",
              "type": "uint256"
            },
            {
              "internalType": "string",
              "name": "nom",
              "type": "string"
            },
            {
              "internalType": "uint256",
              "name": "droitFixeAnnuel",
              "type": "uint256"
            },
            {
              "internalType": "string",
              "name": "description",
              "type": "string"
            },
            {
              "internalType": "bool",
              "name": "estEnregistre",
              "type": "bool"
            }
          ],
          "internalType": "struct TaxManagement.ActivitePrincipale[]",
          "name": "",
          "type": "tuple[]"
        }
      ],
      "stateMutability": "view",
      "type": "function",
      "constant": true
    },
    {
      "inputs": [
        {
          "internalType": "address",
          "name": "_contribuableAdress",
          "type": "address"
        }
      ],
      "name": "getPatenteByContribuable",
      "outputs": [
        {
          "components": [
            {
              "internalType": "uint256",
              "name": "id",
              "type": "uint256"
            },
            {
              "internalType": "uint256",
              "name": "contribuableId",
              "type": "uint256"
            },
            {
              "internalType": "uint256",
              "name": "droitFixe",
              "type": "uint256"
            },
            {
              "internalType": "uint256",
              "name": "droitProportionnel",
              "type": "uint256"
            },
            {
              "internalType": "uint256",
              "name": "anneePaiement",
              "type": "uint256"
            },
            {
              "internalType": "bool",
              "name": "estPayee",
              "type": "bool"
            }
          ],
          "internalType": "struct TaxManagement.Patente[]",
          "name": "",
          "type": "tuple[]"
        }
      ],
      "stateMutability": "view",
      "type": "function",
      "constant": true
    },
    {
      "inputs": [
        {
          "internalType": "string",
          "name": "_nom",
          "type": "string"
        },
        {
          "internalType": "uint256",
          "name": "_nombrePlaces",
          "type": "uint256"
        },
        {
          "internalType": "uint256",
          "name": "_prixPlace",
          "type": "uint256"
        }
      ],
      "name": "ajouterMarche",
      "outputs": [],
      "stateMutability": "nonpayable",
      "type": "function"
    },
    {
      "inputs": [],
      "name": "getMarches",
      "outputs": [
        {
          "components": [
            {
              "internalType": "uint256",
              "name": "id",
              "type": "uint256"
            },
            {
              "internalType": "string",
              "name": "nom",
              "type": "string"
            },
            {
              "internalType": "uint256",
              "name": "nombrePlaces",
              "type": "uint256"
            },
            {
              "internalType": "uint256",
              "name": "prixPlace",
              "type": "uint256"
            },
            {
              "internalType": "uint256",
              "name": "placesOccupees",
              "type": "uint256"
            }
          ],
          "internalType": "struct TaxManagement.Marche[]",
          "name": "",
          "type": "tuple[]"
        }
      ],
      "stateMutability": "view",
      "type": "function",
      "constant": true
    }
  ],
  "bytecode": "0x6080806040523461004957600080600b5580600c5580600d5580600e5580600f5580601055806011556107e76012553360018060a01b03198254161790556150ae908161004f8239f35b600080fdfe61010080604052600436101561001457600080fd5b60003560e01c9081630b5a006b146144695750806310aee64b14614379578063112007e51461435b57806313e43bcb14613fe357806322fa501514613fc55780632470fa5d14613d505780632c70d0d814613cd457806335f3f1a314613b475780633eb31fa414613a14578063429b62e51461392357806342a40d5c146139055780634584ed8314613866578063513856c81461381c5780635e35085014612f5857806367b90249146122f85780637a84e680146122c05780637c3458771461221e57806383d19c00146120925780639209d93814612074578063984bff5814611c7e578063a1b0ae0914611c60578063a8420b7e146119e2578063b730a7381461176d578063b7dc12841461174f578063be0e5401146116d6578063bf84e1dc1461166e578063c228e5eb146115c1578063c295528814611474578063ca31e8c8146112ee578063d24f29dc14611027578063d2c580b314610fb0578063d86c73b414610f71578063d8dba2e814610ec4578063e0a1cce614610e85578063e0bb12f714610dd2578063eac3fda414610b74578063ec3e1c561461098b578063f433643d1461049c578063f5294c0014610417578063f5d23df0146103f9578063f851a440146103d25763fec12222146101ee57600080fd5b346103cd576101fc3661478f565b336000526020906001825260ff604060002054161561036257826000526007825260ff600560406000200154166102f757826005916102df946000528284526040600020600481015460005260068552600a8060026040600020015492015404908060021c8083106102ef575b50600f549360076040519761027d896144a0565b86895280890192835260408901938452606089019485526080890195865260a0890196600088526000525260406000209651875551600187015551600286015551600385015551600484015551151591019060ff801983541691151516179055565b6102ea600f546148f6565b600f55005b915038610269565b60405162461bcd60e51b815260048101839052602e60248201527f556e6520706174656e746520612064656a612065746520706179656520706f7560448201527f7220636574746520616e6e65652e0000000000000000000000000000000000006064820152608490fd5b60405162461bcd60e51b815260048101839052603060248201527f5365756c73206c6573206167656e74732070657576656e74206566666563747560448201527f657220636574746520616374696f6e2e000000000000000000000000000000006064820152608490fd5b600080fd5b346103cd5760003660031901126103cd5760206001600160a01b0360005416604051908152f35b346103cd5760003660031901126103cd576020601054604051908152f35b346103cd5760203660031901126103cd576004356104416001600160a01b03600054163314614974565b80600052600660205261045e60ff60046040600020015416614f2b565b60005260066020526000604081206104996003600483019260ff19845416845584815561048d60018201614f89565b84600282015501614f89565b55005b346103cd576104aa366147a5565b90936001600160a01b0380966104c582600054163314614974565b16928360005260019460209286845260ff6040600020541615610946578697986000975b6104ef57005b600e548810156109445787899860005260048652604060002089810180548481168b1461052857505050610522906148f6565b976104e9565b9250939495969798925098506001600160a01b03191617905560028601928151936001600160401b03948581116107465780610564835461464f565b94601f9589878211610914575b505088908683116001146108a85760009261089d575b5050600019600383901b1c1916908a1b1790555b600392838801908051908682116107465781906105b8845461464f565b8987821161086d575b50508890868311600114610802576000926107f7575b505060001982871b1c1916908a1b1790555b80516004880191858211610746578190610603845461464f565b8581116107c9575b5087908583116001146107675760009261075c575b505060001982861b1c191690891b1790555b6005938487019489519485116107465761064c865461464f565b83811161070e575b5050809184116001146106a1575090829160079798600093610696575b505082881b92600019911b1c19161790555b600682015501805460ff19169091179055005b015191508880610671565b9297601f1989168560005284600020946000905b8282106106f757505091899391899a60079a9694106106dd575b50505050811b019055610683565b01519060f884600019921b161c19169055878080806106cf565b808b869882949787015181550197019401906106b5565b6107369187600052836000209085808901821c830193868a1061073d575b01901c0190614905565b8980610654565b9350829361072c565b634e487b7160e01b600052604160045260246000fd5b015190508b80610620565b908b9350601f1983169185600052896000209260005b8b8282106107b3575050841161079b575b505050811b019055610632565b015160001983881b60f8161c191690558b808061078e565b8385015186558f9790950194938401930161077d565b6107f1908560005289600020600588808701821c8301938d881061073d5701901c0190614905565b8c61060b565b015190508c806105d7565b908c9350601f19831691856000528a6000209260005b8c82821061084e5750508411610836575b505050811b0190556105e9565b015160001983891b60f8161c191690558c8080610829565b91929395968291958786015181550195019301908e9594939291610818565b6108969186600052816000209089600591818801831c840194881061073d5701901c0190614905565b8d896105c1565b015190508c80610587565b908c9350601f19831691856000528a6000209260005b8c8282106108f557505084116108dc575b505050811b01905561059b565b015160001960f88460031b161c191690558c80806108cf565b91929395968291958786015181550195019301908e95949392916108be565b61093d9186600052816000209089600591818801831c840194881061073d5701901c0190614905565b8d89610571565b005b60405162461bcd60e51b815260048101859052601f60248201527f436574206167656e74206e276573742070617320656e72656769737472652e006044820152606490fd5b346103cd5760003660031901126103cd57600d546109a881614fd2565b906109b6604051928361450d565b808252601f196109c582614fd2565b0160005b818110610b3b5750506000805b828110610a7b576040805160208082528651818301819052600093600582901b8401810192808a01929185015b828710610a105785850386f35b909192938280600192603f1989820301855287519081518152610a5f610a428484015160a0808786015284019061460f565b60408401516040840152606080850151908483039085015261460f565b9160808091015115159101529601920196019592919092610a03565b80600052602060068152604060002060ff6004820154169081610aaa575b505050610aa5906148f6565b6109d6565b91610aa59394916003610b0b610b329560405194610ac7866144bb565b8154865260405190610ae782610ae08160018701614689565b038361450d565b86015260028101546040860152610b046040518094819301614689565b038261450d565b606083015215156080820152610b218288614fe9565b52610b2c8187614fe9565b506148f6565b91908580610a99565b602090604051610b4a816144bb565b600081526060839080828401526000604084015280830152600060808301528287010152016109c9565b346103cd5760003660031901126103cd57600e54610b9181614fd2565b90610b9f604051928361450d565b808252601f19610bae82614fd2565b0160005b818110610d8757505060005b818110610ca2576040805160208082528551818301819052600093600582901b8401810192808901929185015b828710610bf85785850386f35b909192938280600192603f19898203018552875190815181526001600160a01b0383830151168382015260e080610c80610c6d610c5a610c4760408801516101008060408a015288019061460f565b606080890151908883039089015261460f565b608080880151908783039088015261460f565b60a080870151908683039087015261460f565b9360c08082015190850152015115159101529601920196019592919092610beb565b80610ccc91600052602060048152604060002060ff6007820154169081610cd1575b5050506148f6565b610bbe565b60069060405193610ce1856144d6565b815485526001600160a01b0360018301541690850152604051610d0b81610b048160028601614689565b6040850152604051610d2481610b048160038601614689565b6060850152604051610d3d81610b048160048601614689565b6080850152604051610d5681610b048160058601614689565b60a0850152015460c0830152151560e0820152610d738286614fe9565b52610d7e8185614fe9565b50848080610cc4565b602090604051610d96816144d6565b60008152826000818301526060806040840152808084015280608084015260a0830152600060c0830152600060e0830152828701015201610bb2565b346103cd5760203660031901126103cd57600435600a548110156103cd57610df990614834565b508054610e816001600160a01b036001840154169260405190610e2382610ae08160028501614689565b604051610e3781610b048160038601614689565b604051610e4b81610b048160048701614689565b60405191610e6783610e608160058801614689565b038461450d565b60ff6007600686015495015416946040519889988961471f565b0390f35b346103cd5760203660031901126103cd576001600160a01b03610ea6614584565b166000526002602052602060ff604060002054166040519015158152f35b346103cd5760003660031901126103cd57600f54610ee181614ffd565b9060005b818110610efa5760405180610e81858261459a565b80610f2491600052602060078152604060002060ff600582015416159081610f29575050506148f6565b610ee5565b60049060405193610f39856144a0565b815485526001820154908501526002810154604085015260038101546060850152015460808301521560a0820152610d738286614fe9565b346103cd5760203660031901126103cd576001600160a01b03610f92614584565b166000526001602052602060ff604060002054166040519015158152f35b346103cd576020806003193601126103cd57610fca614584565b6001600160a01b0390610fe282600054163314614974565b811660005b600e54811015610944578060005260048452604060002083600182015416831461101a5750611015906148f6565b610fe7565b600701805460ff19169055005b346103cd5760603660031901126103cd576001600160401b036004358181116103cd5761105890369060040161452e565b6044358281116103cd5761107090369060040161452e565b906110876001600160a01b03600054163314614974565b600d549160405192611098846144bb565b8084526020928385019081526040850193602435855260608601938452608086019460019384875260005260068252604060002096518755838701925192835189811161074657806110ea835461464f565b95601f968781116112c0575b50859087831160011461125d57600092611252575b5050600019600383901b1c191690861b1790555b5160028701556003860193519081519788116107465761113f855461464f565b83811161121a575b50809288116001146111ac5750958060049594938193611191996000946111a1575b50501b916000199060031b1c19161790555b51151591019060ff801983541691151516179055565b61119c600d546148f6565b600d55005b015192508980611169565b9190601f1988168560005283600020936000905b8282106112035750509160049695949391896111919a94106111ea575b505050811b01905561117b565b015160001960f88460031b161c191690558780806111dd565b8087869782949787015181550196019401906111c0565b61124390866000528260002085808c0160051c820192858d10611249575b0160051c0190614905565b88611147565b92508192611238565b015190508b8061110b565b90889350601f1983169185600052876000209260005b898282106112aa5750508411611291575b505050811b01905561111f565b015160001960f88460031b161c191690558b8080611284565b8385015186558c97909501949384019301611273565b6112e89085600052876000208980860160051c8201928a8710611249570160051c0190614905565b8c6110f6565b346103cd5760603660031901126103cd576001600160401b036004358181116103cd5761131f90369060040161452e565b6113356001600160a01b03600054163314614974565b6113406010546148f6565b908160105581600052602060088152604060002092835560019081840192805195861161074657611371845461464f565b601f8111611439575b5081601f87116001146113cb575094806004959493819360009889946113c0575b50501b9186199060031b1c19161790555b602435600282015560443560038201550155005b01519250888061139b565b909591601f198316968560005282600020926000905b898210611422575050908392916004979695946000991061140a575b505050811b0190556113ac565b0151871960f88460031b161c191690558680806113fd565b8087859682949686015181550195019301906113e1565b611464908560005283600020601f890160051c810191858a1061146a575b601f0160051c0190614905565b8661137a565b9091508190611457565b346103cd57611482366147a5565b9293946001600160a01b03929192906114a082600054163314614974565b169384600052600160205260ff6040600020541661157c57600e5495604051966114c9886144d6565b875285602088015260408701526060860152608085015260a084015260c0830152600160e083015260005260016020526040600020600160ff19825416179055600e5460005260046020526115228160406000206149e6565b600a5468010000000000000000811015610746578060016115469201600a55614834565b91909161156657611556916149e6565b611561600e546148f6565b600e55005b634e487b7160e01b600052600060045260246000fd5b60405162461bcd60e51b815260206004820152601e60248201527f436574206167656e74206573742064656a6120656e72656769737472652e00006044820152606490fd5b346103cd5760003660031901126103cd57600f546115de81614ffd565b9060005b8181106115f75760405180610e81858261459a565b8061162091600052602060078152604060002060ff6005820154169081611625575050506148f6565b6115e2565b60049060405193611635856144a0565b81548552600182015490850152600281015460408501526003810154606085015201546080830152151560a0820152610d738286614fe9565b346103cd5760203660031901126103cd57600435600052600760205260c06040600020805490600181015490600281015460038201549060ff6005600485015494015416936040519586526020860152604085015260608401526080830152151560a0820152f35b346103cd5760203660031901126103cd576004356000526008602052604060002080546040519161170e83610e608160018501614689565b600281015490600460038201549101549061173b604051958695865260a0602087015260a086019061460f565b926040850152606084015260808301520390f35b346103cd5760003660031901126103cd576020600e54604051908152f35b346103cd5760803660031901126103cd576004356001600160401b036024358181116103cd576117a190369060040161452e565b906064358181116103cd576117ba90369060040161452e565b916117d16001600160a01b03600054163314614974565b83600052602093600685526117f060ff60046040600020015416614f2b565b60005260068452604060002092600193848101835185811161074657611816825461464f565b94601f958681116119b4575b50889086831160011461194d5760039493929160009183611942575b505060001982861b1c191690881b1790555b6044356002820155019481519384116107465761186d865461464f565b838111611914575b50809284116001146118b157509282939183926000946118a6575b50501b916000199060031b1c1916179055600080f35b015192508580611890565b919083601f1981168760005284600020946000905b888383106118fa57505050106118e1575b505050811b019055005b015160001960f88460031b161c191690558380806118d7565b8587015188559096019594850194879350908101906118c6565b61193c9087600052826000208580880160051c820192858910611249570160051c0190614905565b86611875565b015190508a8061183e565b9392918891601f19821690846000528b6000209160005b8d82821061199e575050968360039810611986575b505050811b019055611850565b015160001983881b60f8161c191690558a8080611979565b838a015185558d96909401939283019201611964565b6119dc90846000528a6000208880860160051c8201928d8710611249570160051c0190614905565b89611822565b346103cd5760203660031901126103cd5760043560005260056020526040600020805460c0528060018101546001600160a01b03166040518060a052806002840190611a2d91614689565b0360a05190611a3b9161450d565b604051829080611a4e8160038501614689565b03611a59908261450d565b6004820154604051919082611a718160058701614689565b03611a7c908461450d565b60405180611a8d8160068801614689565b03611a98908261450d565b60405180611aa98160078901614689565b03611ab4908261450d565b6040519182611ac68160088a01614689565b03611ad1908461450d565b600987015495600a88015494600b8901549660405180600c819c0190611af691614689565b03611b01908b61450d565b600d8c01549a60405180809e600e82910190611b1c91614689565b03611b269161450d565b6040519d8e80611b3981600f8501614689565b03611b439161450d565b6010015460ff166080526040518060e05260c051905260e051602001526102208060e0516040015260e0510160a05190611b7c9161460f565b60e0518082039060600152611b909161460f565b9060e0516080015260e0518082039060a00152611bac9161460f565b60e0518082039060c00152611bc09161460f565b60e0518082039060e00152611bd49161460f565b60e051808203906101000152611be99161460f565b9260e051610120015260e051610140015260e051610160015260e051808203906101800152611c179161460f565b9060e0516101a0015260e051808203906101c00152611c359161460f565b60e051808203906101e00152611c4a9161460f565b608051151560e051610200015260e05180910390f35b346103cd5760003660031901126103cd576020600d54604051908152f35b346103cd5760003660031901126103cd57600b8054611c9c81614fd2565b91611caa604051938461450d565b818352601f19611cb983614fd2565b0160005b818110611fe657505060005b82811115611e4d576040805160208082528651818301819052600093600582901b8401810192808a01929185015b828710611d045785850386f35b909192938280600192603f19898203018552875190815181526001600160a01b03838301511683820152611e30611e1c611dfd611dc8611db4611da2611d8f611d72611d5f60408b01516102208060408d01528b019061460f565b6060808c0151908b8303908c015261460f565b6080808b0151908a015260a0808b0151908a8303908b015261460f565b60c0808a015190898303908a015261460f565b60e088015187820360e089015261460f565b61010080880151908783039088015261460f565b61012080870151908601526101408087015190860152610160808701519086015261018080870151908683039087015261460f565b6101a080860151908501526101c080860151908583039086015261460f565b6101e080850151908483039085015261460f565b916102008091015115159101529601920196019592919092611cf7565b80611e7a916000526005602090808252604060002060ff6010820154169182611e7f575b505050506148f6565b611cc9565b600f91610b04611ef9611fb99360405197611e9989614484565b845489526001600160a01b0360018601541690890152604051611ec381610b048160028901614689565b6040890152604051611edc81610b048160038901614689565b606089015260048401546080890152604051928380928601614689565b60a0860152604051611f1281610b048160068601614689565b60c0860152604051611f2b81610b048160078601614689565b60e0860152604051611f4481610b048160088601614689565b6101008601526009810154610120860152600a81015461014086015287810154610160860152604051611f7e81610b0481600c8601614689565b610180860152600d8101546101a0860152604051611fa381610b0481600e8601614689565b6101c0860152610b046040518094819301614689565b6101e08301521515610200820152611fd18287614fe9565b52611fdc8186614fe9565b5085808080611e71565b602090604051611ff581614484565b600081528260008183015260608060408401528080840152600060808401528060a08401528060c08401528060e0840152806101008401526000610120840152600061014084015260006101608401528061018084015260006101a0840152806101c08401526101e08301526000610200830152828801015201611cbd565b346103cd5760003660031901126103cd576020600b54604051908152f35b346103cd576120a03661478f565b33600052602091600283526120bc60ff60406000205416614884565b806000526007835260ff600560406000200154166121d95780600052600783526040600020916002600384015493015483018093116121c3577f76eae79300052f67aecb8436aa0f1234fd0ac466aa2ecca072227eef9efa7a359360e0938210612179578260005260078152604060002060058101600160ff198254161790556001810154600282015490600460038401549301549360405196875286015260408501526060840152608083015260a0820152600160c0820152a1005b826000526007815260406000206001810154600282015490600460038401549301549360405196875286015260408501526060840152608083015260a0820152600060c0820152a1005b634e487b7160e01b600052601160045260246000fd5b60405162461bcd60e51b815260048101849052601f60248201527f436574746520706174656e746520612064656a61206574652070617965652e006044820152606490fd5b346103cd5760203660031901126103cd5760043560005260096020526040600020805460018201549160405161225b81610b048160028601614689565b6122af60405161227281610b048160038801614689565b6122a160ff6005600487015496015416936040519788978852602088015260c0604088015260c087019061460f565b90858203606087015261460f565b916080840152151560a08301520390f35b346103cd5760203660031901126103cd57610e816122e46122df614584565b614e0d565b60405191829160208352602083019061460f565b346103cd576101e03660031901126103cd57612312614584565b6024356001600160401b0381116103cd5761233190369060040161452e565b906044356001600160401b0381116103cd5761235190369060040161452e565b906084356001600160401b0381116103cd5761237190369060040161452e565b60a4356001600160401b0381116103cd5761239090369060040161452e565b9060c4356001600160401b0381116103cd576123b090369060040161452e565b9060e4356001600160401b0381116103cd576123d090369060040161452e565b610124356001600160401b0381116103cd576123f090369060040161452e565b92610144356001600160401b0381116103cd5761241190369060040161452e565b946101a4356001600160401b0381116103cd5761243290369060040161452e565b936124496001600160a01b03600054163314614974565b6001600160a01b038816600052600260205260ff60406000205416612f07576001600160a01b0398600b549a6040519b6124828d614484565b8c528a8a1660208d015260408c015260608b015260643560808b015260a08a015260c089015260e08801526101008701526101043561012087015261016435610140870152610184356101608701526101808601526101c4356101a08601526101c08501526101e084015260016102008401521660005260026020526040600020600160ff19825416179055600b546000526005602052604060002081518155600181016001600160a01b036020840151166001600160a01b031982541617905560408201519182516001600160401b03811161074657612566600284015461464f565b601f8111612ed2575b506020601f8211600114612e645781929394600092612e59575b50508160011b916000199060031b1c19161760028301555b60608101519182516001600160401b038111610746576125c4600383015461464f565b601f8111612e24575b506020601f8211600114612db65781929394600092612dab575b50508160011b916000199060031b1c19161760038201555b6080820151600482015560a08201519182516001600160401b0381116107465761262c600584015461464f565b601f8111612d76575b506020601f8211600114612d085781929394600092612cfd575b50508160011b916000199060031b1c19161760058301555b60c08101519182516001600160401b0381116107465761268a600683015461464f565b601f8111612cc8575b506020601f8211600114612c5a5781929394600092612c4f575b50508160011b916000199060031b1c19161760068201555b60e08201519182516001600160401b038111610746576126e8600784015461464f565b601f8111612c1a575b506020601f8211600114612bac5781929394600092612ba1575b50508160011b916000199060031b1c19161760078301555b6101008101519182516001600160401b03811161074657612747600883015461464f565b601f8111612b6c575b506020601f8211600114612afe5781929394600092612af3575b50508160011b916000199060031b1c19161760088201555b6101208201516009820155610140820151600a820155610160820151600b8201556101808201519182516001600160401b03811161074657600c8301906127c9825461464f565b601f8111612ac1575b50602094601f8211600114612a5b57948192939495600092612a50575b50508160011b916000199060031b1c19161790555b6101a0810151600d830155600e8201916101c08201519283516001600160401b03811161074657612835825461464f565b601f8111612a1e575b50602094601f82116001146129b8579481929394956000926129ad575b50508160011b916000199060031b1c19161790555b600f8101916101e08101519283516001600160401b03811161074657612896825461464f565b601f811161297b575b506020601f821160011461290a57918160109492610200946128ef986000926128ff575b50508160011b916000199060031b1c19161790555b0151151591019060ff801983541691151516179055565b6128fa600b546148f6565b600b55005b0151905088806128c3565b601f198216958360005260206000209660005b8181106129635750926128ef97610200959360019383601099971061294a575b505050811b0190556128d8565b015160001960f88460031b161c1916905588808061293d565b8383015189556001909801976020938401930161291d565b6129a790836000526020600020601f840160051c8101916020851061146a57601f0160051c0190614905565b8561289f565b01519050858061285b565b601f198216958360005260206000209160005b888110612a06575083600195969798106129ed575b505050811b019055612870565b015160001960f88460031b161c191690558580806129e0565b919260206001819286850151815501940192016129cb565b612a4a90836000526020600020601f840160051c8101916020851061146a57601f0160051c0190614905565b8561283e565b0151905085806127ef565b601f198216958360005260206000209160005b888110612aa957508360019596979810612a90575b505050811b019055612804565b015160001960f88460031b161c19169055858080612a83565b91926020600181928685015181550194019201612a6e565b612aed90836000526020600020601f840160051c8101916020851061146a57601f0160051c0190614905565b856127d2565b01519050848061276a565b6008830160005260206000209060005b601f1984168110612b545750600193949583601f19811610612b3b575b505050811b016008820155612782565b015160001960f88460031b161c19169055848080612b2b565b9091602060018192858a015181550193019101612b0e565b612b9b90600884016000526020600020601f840160051c8101916020851061146a57601f0160051c0190614905565b84612750565b01519050848061270b565b6007840160005260206000209060005b601f1984168110612c025750600193949583601f19811610612be9575b505050811b016007830155612723565b015160001960f88460031b161c19169055848080612bd9565b9091602060018192858a015181550193019101612bbc565b612c4990600785016000526020600020601f840160051c8101916020851061146a57601f0160051c0190614905565b846126f1565b0151905084806126ad565b6006830160005260206000209060005b601f1984168110612cb05750600193949583601f19811610612c97575b505050811b0160068201556126c5565b015160001960f88460031b161c19169055848080612c87565b9091602060018192858a015181550193019101612c6a565b612cf790600684016000526020600020601f840160051c8101916020851061146a57601f0160051c0190614905565b84612693565b01519050848061264f565b6005840160005260206000209060005b601f1984168110612d5e5750600193949583601f19811610612d45575b505050811b016005830155612667565b015160001960f88460031b161c19169055848080612d35565b9091602060018192858a015181550193019101612d18565b612da590600585016000526020600020601f840160051c8101916020851061146a57601f0160051c0190614905565b84612635565b0151905084806125e7565b6003830160005260206000209060005b601f1984168110612e0c5750600193949583601f19811610612df3575b505050811b0160038201556125ff565b015160001960f88460031b161c19169055848080612de3565b9091602060018192858a015181550193019101612dc6565b612e5390600384016000526020600020601f840160051c8101916020851061146a57601f0160051c0190614905565b846125cd565b015190508480612589565b6002840160005260206000209060005b601f1984168110612eba5750600193949583601f19811610612ea1575b505050811b0160028301556125a1565b015160001960f88460031b161c19169055848080612e91565b9091602060018192858a015181550193019101612e74565b612f0190600285016000526020600020601f840160051c8101916020851061146a57601f0160051c0190614905565b8461256f565b60405162461bcd60e51b8152602060048201526024808201527f436520636f6e747269627561626c65206573742064656a6120656e72656769736044820152633a39329760e11b6064820152608490fd5b346103cd576101a03660031901126103cd57612f72614584565b6024356001600160401b0381116103cd57612f9190369060040161452e565b906064356001600160401b0381116103cd57612fb190369060040161452e565b906084356001600160401b0381116103cd57612fd190369060040161452e565b9060a4356001600160401b0381116103cd57612ff190369060040161452e565b9160c4356001600160401b0381116103cd5761301190369060040161452e565b610104356001600160401b0381116103cd5761303190369060040161452e565b93610164356001600160401b0381116103cd5761305290369060040161452e565b926130696001600160a01b03600054163314614974565b6001600160a01b038516600052600260205261308c60ff60406000205416614ed1565b60005b600b548110156109445780600052600560205260406000206001600160a01b036001820154166001600160a01b038816146130d4575b506130cf906148f6565b61308f565b88516001600160401b038111610746576130f1600583015461464f565b601f81116137e7575b50806020601f82116001146137795760009161376e575b508160011b916000199060031b1c19161760058201555b82516001600160401b03811161074657613145600683015461464f565b601f8111613739575b50806020601f82116001146136cc576000916136c1575b508160011b916000199060031b1c19161760068201555b83516001600160401b03811161074657613199600783015461464f565b601f811161368c575b50806020601f821160011461361f57600091613614575b508160011b916000199060031b1c19161760078201555b84516001600160401b038111610746576131ed600883015461464f565b601f81116135df575b50806020601f821160011461357257600091613567575b508160011b916000199060031b1c19161760088201555b60e435600982015561012435600a82015561014435600b82015585516001600160401b0381116107465761325b600c83015461464f565b601f8111613532575b50806020601f82116001146134c5576000916134ba575b508160011b916000199060031b1c191617600c8201555b61018435600d820155604435600482015589516001600160401b038111610746576132c0600383015461464f565b601f8111613485575b50806020601f82116001146134175760009161340c575b508160011b916000199060031b1c19161760038201555b87516001600160401b03811161074657613314600e83015461464f565b601f81116133d7575b506020601f821160011461336357816130cf949392600e92600091613358575b508160011b916000199060031b1c1916179101555b906130c5565b90508b01518e61333d565b600e830160005260206000209060005b8b601f19851682106133bf57505082600e926001926130cf979695601f198116106133a6575b5050811b01910155613352565b8d015160001960f88460031b161c191690558e80613399565b60018394602093948493015181550193019101613373565b61340690600e84016000526020600020601f840160051c8101916020851061146a57601f0160051c0190614905565b8b61331d565b90508b01518c6132e0565b91506003830160005260206000206000925b8d601f198416851061346e57506001935082601f19811610613455575b5050811b0160038201556132f7565b8d015160001960f88460031b161c191690558c80613446565b810151825560209384019360019092019101613429565b6134b490600384016000526020600020601f840160051c8101916020851061146a57601f0160051c0190614905565b8b6132c9565b90508701518c61327b565b9150600c830160005260206000206000925b601f198316841061351a576001935082601f19811610613501575b5050811b01600c820155613292565b89015160001960f88460031b161c191690558c806134f2565b898101518255602093840193600190920191016134d7565b61356190600c84016000526020600020601f840160051c8101916020851061146a57601f0160051c0190614905565b8b613264565b90508601518c61320d565b91506008830160005260206000206000925b601f19831684106135c7576001935082601f198116106135ae575b5050811b016008820155613224565b88015160001960f88460031b161c191690558c8061359f565b88810151825560209384019360019092019101613584565b61360e90600884016000526020600020601f840160051c8101916020851061146a57601f0160051c0190614905565b8b6131f6565b90508501518c6131b9565b91506007830160005260206000206000925b601f1983168410613674576001935082601f1981161061365b575b5050811b0160078201556131d0565b87015160001960f88460031b161c191690558c8061364c565b87810151825560209384019360019092019101613631565b6136bb90600784016000526020600020601f840160051c8101916020851061146a57601f0160051c0190614905565b8b6131a2565b90508401518c613165565b91506006830160005260206000206000925b601f1983168410613721576001935082601f19811610613708575b5050811b01600682015561317c565b86015160001960f88460031b161c191690558c806136f9565b868101518255602093840193600190920191016136de565b61376890600684016000526020600020601f840160051c8101916020851061146a57601f0160051c0190614905565b8b61314e565b90508a01518c613111565b91506005830160005260206000206000925b8c601f19841685106137d057506001935082601f198116106137b7575b5050811b016005820155613128565b8c015160001960f88460031b161c191690558c806137a8565b81015182556020938401936001909201910161378b565b61381690600584016000526020600020601f840160051c8101916020851061146a57601f0160051c0190614905565b8b6130fa565b346103cd5760203660031901126103cd57600435600052600460205260406000208054610e816001600160a01b036001840154169260405190610e2382610ae08160028501614689565b346103cd5760203660031901126103cd576004356000526006602052604060002080546040519161389e83610e608160018501614689565b6138f9600282015460ff6004604051946138c6866138bf8160038501614689565b038761450d565b015416926138e6604051968796875260a0602088015260a087019061460f565b916040860152848203606086015261460f565b90151560808301520390f35b346103cd5760003660031901126103cd576020601154604051908152f35b346103cd5760203660031901126103cd576001600160a01b03613944614584565b166000526003602052604060002080546040519161396983610e608160018501614689565b60405161397d81610b048160028601614689565b613a0360405161399481610b048160038801614689565b6139f5604051916139ac83610e608160048a01614689565b6139e760ff6006600589015498015416956139d96040519a8b9a8b5260e060208c015260e08b019061460f565b9089820360408b015261460f565b90878203606089015261460f565b90858203608087015261460f565b9160a0840152151560c08301520390f35b346103cd576020806003193601126103cd57600435600060a0604051613a39816144a0565b82815282858201526060604082015260608082015282608082015201528060005260098252613a6e604060002054151561491c565b6000526009815260406000208054906001810154613b346003613b2160048501549460ff6005820154169460405197613aa6896144a0565b8852888801908152613ae460405192613acd84613ac68160028501614689565b038561450d565b60408a01938452613ac66040518097819301614689565b606088019384526080880196875260a088019515158652604051988998818a5251908901525160408801525160c0606088015260e087019061460f565b9051858203601f1901608087015261460f565b915160a084015251151560c08301520390f35b346103cd5760003660031901126103cd57601054613b6481614fd2565b90613b72604051928361450d565b808252601f19613b8182614fd2565b0160005b818110613c9b5750506000805b828210613c29576040805160208082528651818301819052600093600582901b8401810192808a01929185015b828710613bcc5785850386f35b909192938280600192603f1989820301855287519081518152613bfb8383015160a0808685015283019061460f565b9160408101516040830152606080820151908301526080809101519101529601920196019592919092613bbf565b613c8f613c9591836000526020600881526004604060002060405192613c4e846144bb565b8154845260405190613c6782610ae08160018701614689565b840152600281015460408401526003810154606084015201546080820152610b218288614fe9565b916148f6565b90613b92565b602090604051613caa816144bb565b60008152606060008491808385015281604085015283015260006080830152828701015201613b85565b346103cd576020806003193601126103cd57613cee614584565b6001600160a01b03613d0581600054163314614974565b8060009216915b600b548110156109445780613d3a91600052600585526040600020836001820154168514613d3f57506148f6565b613d0c565b601001805460ff1916905585610b2c565b346103cd5760203660031901126103cd576001600160a01b03613d71614584565b16806000526002602052613d8c60ff60406000205416614ed1565b600f54613d9881614ffd565b90600092600b54935b84811115613db75760405180610e81868261459a565b80600052600560205260406000206001600160a01b0360018201541690818414613dec575b5050613de7906148f6565b613da1565b601060ff9160405193613dfe85614484565b815485526020850152604051613e1b81610b048160028601614689565b6040850152604051613e3481610b048160038601614689565b606085015260048101546080850152604051613e5781610b048160058601614689565b60a0850152604051613e7081610b048160068601614689565b60c0850152604051613e8981610b048160078601614689565b60e0850152604051613ea281610b048160088601614689565b6101008501526009810154610120850152600a810154610140850152600b810154610160850152604051613edd81610b0481600c8601614689565b610180850152600d8101546101a0850152604051613f0281610b0481600e8601614689565b6101c0850152604051613f1c81610b0481600f8601614689565b6101e0850152015416151561020082015260005b84811015613ddc57613f6090825181600052600760205260406000206001810154809214613f65575b50506148f6565b613f30565b600560ff9160405193613f77856144a0565b815485526020850152600281015460408501526003810154606085015260048101546080850152015416151560a0820152613fb28289614fe9565b52613fbd8188614fe9565b508880613f59565b346103cd5760003660031901126103cd576020600f54604051908152f35b346103cd5760803660031901126103cd576004356001600160401b036024356044358281116103cd5761401a90369060040161452e565b926064358381116103cd5761403390369060040161452e565b336000526020936002855261404f60ff60406000205416614884565b8360005260088552604060002060026004820154910154111561430a576140776011546148f6565b90816011558160005260098652604060002091825560019085828401556002830191885192828411610746576140ad815461464f565b93601f948a8682116142db575b5050808a86821160011461426b57600091614260575b50600019600383901b1c191690831b1790555b60038401928551928311610746576140fb845461464f565b818111614232575b50889083116001146141a15761418b959461417d9484807f7803e1058885cd7b478a852580ffb4687a0d11f3d744d8f65ca155f10a99bde79d968b96600496600093614196575b501b916000199060031b1c19161790555b015560115495604051978897885287015260a0604087015260a086019061460f565b90848203606086015261460f565b9060808301520390a1005b8b015192503861414a565b601f9291921982169084600052896000209160005b81811061421d5750947f7803e1058885cd7b478a852580ffb4687a0d11f3d744d8f65ca155f10a99bde79b948460049461418b9a99948c9761417d9a10614204575b5050811b01905561415b565b8a015160001960f88460031b161c191690558e806141f8565b88830151845592850192918b01918b016141b6565b61425a90856000528a6000208380870160051c8201928d8810611249570160051c0190614905565b8a614103565b90508b01518c6140d0565b8492508b908d601f198416908660005283600020936000915b8383106142ba5750505083116142a1575b5050811b0190556140e3565b8d015160001960f88460031b161c191690558c80614295565b948482949597989293960151815501940192019086949392918f8f90614284565b614303918460005287826000209181860160051c8301938610611249570160051c0190614905565b8b8a6140ba565b60405162461bcd60e51b815260048101869052602360248201527f496c206e2779206120706c757320646520706c6163657320646973706f6e69626044820152626c657360e81b6064820152608490fd5b346103cd5760003660031901126103cd576020600c54604051908152f35b346103cd576020806003193601126103cd5760089060043580600052600982526143a9604060002054151561491c565b80600052600982527f957b01969cdc42cabc104346d913fa50ae06f624c03e34892da59cf44e2cc9a5604060002060058101600160ff19825416179055600181015492836000528585526004604060002001549161444060048201549160405194859485528789860152604085015260e06060850152600361443160e0860160028401614689565b91858303608087015201614689565b9060a08301523360c08301520390a160005252600460406000200161446581546148f6565b9055005b346103cd5760003660031901126103cd576020906012548152f35b61022081019081106001600160401b0382111761074657604052565b60c081019081106001600160401b0382111761074657604052565b60a081019081106001600160401b0382111761074657604052565b61010081019081106001600160401b0382111761074657604052565b604081019081106001600160401b0382111761074657604052565b90601f801991011681019081106001600160401b0382111761074657604052565b81601f820112156103cd578035906001600160401b0382116107465760405192614562601f8401601f19166020018561450d565b828452602083830101116103cd57816000926020809301838601378301015290565b600435906001600160a01b03821682036103cd57565b60208082019080835283518092528060408094019401926000905b8382106145c457505050505090565b84518051875280840151878501528082015187830152606080820151908801526080808201519088015260a09081015115159087015260c090950194938201936001909101906145b5565b919082519283825260005b84811061463b575050826000602080949584010152601f8019910116010190565b60208183018101518483018201520161461a565b90600182811c9216801561467f575b602083101461466957565b634e487b7160e01b600052602260045260246000fd5b91607f169161465e565b906000929180549161469a8361464f565b9182825260019384811690816000146146fc57506001146146bc575b50505050565b90919394506000526020928360002092846000945b8386106146e85750505050010190388080806146b6565b8054858701830152940193859082016146d1565b9294505050602093945060ff191683830152151560051b010190388080806146b6565b96989794906147829461475860e098956001600160a01b0361477496614766958d521660208c01526101008060408d01528b019061460f565b9089820360608b015261460f565b90878203608089015261460f565b9085820360a087015261460f565b9460c08401521515910152565b60409060031901126103cd576004359060243590565b9060c06003198301126103cd576004356001600160a01b03811681036103cd57916001600160401b03906024358281116103cd57816147e69160040161452e565b926044358381116103cd57826147fe9160040161452e565b926064358181116103cd57836148169160040161452e565b926084359182116103cd5761482d9160040161452e565b9060a43590565b600a5481101561486e57600a60005260031b7fc65a7bb8d6351c1cf70c95a316cc6a92839c986682d98bc35f958f4883f9d2a80190600090565b634e487b7160e01b600052603260045260246000fd5b1561488b57565b60405162461bcd60e51b815260206004820152603760248201527f5365756c73206c657320636f6e747269627561626c65732070657576656e742060448201527f65666665637475657220636574746520616374696f6e2e0000000000000000006064820152608490fd5b60001981146121c35760010190565b818110614910575050565b60008155600101614905565b1561492357565b60405162461bcd60e51b8152602060048201526024808201527f4c612064656d616e64652064276f636375706174696f6e206e276578697374656044820152632070617360e01b6064820152608490fd5b1561497b57565b60405162461bcd60e51b815260206004820152603260248201527f5365756c206c2761646d696e697374726174657572207065757420656666656360448201527f7475657220636574746520616374696f6e2e00000000000000000000000000006064820152608490fd5b90805182556001808301906020916001600160a01b0383850151166001600160a01b031982541617905560028401906040840151908151926001600160401b03938481116107465780614a39835461464f565b94601f95868111614ddf575b508790868311600114614d7c57600092614d71575b5050600019600383901b1c191690831b1790555b6003918287016060870151805190868211610746578190614a8f845461464f565b858111614d43575b508890858311600114614ce157600092614cd6575b505060001982871b1c191690841b1790555b600487016080870151805190868211610746578190614add845461464f565b858111614ca8575b508890858311600114614c4657600092614c3b575b505060001982871b1c191690841b1790555b600587019460a087015190815195861161074657614b2a875461464f565b838111614c0d575b5080928611600114614b96575093614b899796938160079794819460e098600095614b8b575b50501b92600019911b1c19161790555b60c081015160068501550151151591019060ff801983541691151516179055565b565b015193503880614b58565b9294939190601f1985168760005284600020946000905b828210614bf65750509285926007989592614b899b9a9760e0999610614bdc575b50505050811b019055614b68565b01519060f884600019921b161c1916905538808080614bce565b808986988294978701518155019701940190614bad565b614c3590886000528260002085808a0160051c820192858b10611249570160051c0190614905565b38614b32565b015190503880614afa565b90869350601f19831691856000528a6000209260005b8c828210614c925750508411614c7a575b505050811b019055614b0c565b015160001983891b60f8161c19169055388080614c6d565b8385015186558a97909501949384019301614c5c565b614cd090856000528a6000208780860160051c8201928d8710611249570160051c0190614905565b38614ae5565b015190503880614aac565b90869350601f19831691856000528a6000209260005b8c828210614d2d5750508411614d15575b505050811b019055614abe565b015160001983891b60f8161c19169055388080614d08565b8385015186558a97909501949384019301614cf7565b614d6b90856000528a6000208780860160051c8201928d8710611249570160051c0190614905565b38614a97565b015190503880614a5a565b90859350601f1983169185600052896000209260005b8b828210614dc95750508411614db0575b505050811b019055614a6e565b015160001960f88460031b161c19169055388080614da3565b8385015186558997909501949384019301614d92565b614e079085600052896000208880860160051c8201928c8710611249570160051c0190614905565b38614a45565b6001600160a01b0380911690816000526020916001835260409160ff836000205416600014614e57575050641059d95b9d60da1b905191614e4d836144f2565b6005835282015290565b6002845260ff836000205416600014614e925750506b436f6e747269627561626c6560a01b905191614e88836144f2565b600c835282015290565b6000541603614eb0576420b236b4b760d91b905191614e4d836144f2565b66496e636f6e6e7560c81b905191614ec7836144f2565b6007835282015290565b15614ed857565b60405162461bcd60e51b815260206004820152602560248201527f436520636f6e747269627561626c65206e276573742070617320656e7265676960448201526439ba39329760d91b6064820152608490fd5b15614f3257565b60405162461bcd60e51b815260206004820152602960248201527f4365207479706520646520636f6d6d65726365206e276573742070617320656e6044820152683932b3b4b9ba39329760b91b6064820152608490fd5b614f93815461464f565b9081614f9d575050565b81601f60009311600114614faf575055565b908083918252614fce601f60208420940160051c840160018501614905565b5555565b6001600160401b0381116107465760051b60200190565b805182101561486e5760209160051b010190565b9061500782614fd2565b6040906150168251918261450d565b8381528093615027601f1991614fd2565b019160005b8381106150395750505050565b6020908251615047816144a0565b60008152826000818301526000858301526000606083015260006080830152600060a083015282860101520161502c56fea2646970667358221220fe637eb5cc0e3ff4466bc0d5c7e3a1b721ddd09ea5b198c2311c2db1a3201e3464736f6c63430008130033",
  "immutableReferences": {},
  "source": "// SPDX-License-Identifier: MIT\npragma solidity >=0.4.22 <0.9.0;\n\n// // Contrat pour la gestion des taxes\n\ncontract TaxManagement {\n\n\n\n    event patentePayer(uint id,uint contribuableId, uint droitFixe, uint droitProportionnelle, uint annePaiement, uint sommePayee, bool estPayee ); \n    event PlaceOccupee(uint indexed marcheId, uint indexed date, uint contributeur, uint place);\n\n   \n    address public admin;\n    \n    mapping(address => bool) public estAgent;\n    mapping(address => bool) public estContribuable;\n    mapping(address => Admin) public admins;\n    mapping(uint => Agent) public agents;\n    mapping(uint => Contribuable) public contribuables;\n    mapping(uint => ActivitePrincipale) public activitePrincipale;\n    mapping(uint => Patente) public patentes;\n    // string[] public classes = [\"Exceptionnelle\", '1' , '2', '3', '4', '5', '6','7','8','9']; \n    mapping(uint => Marche) public marches;\n    mapping(uint => DemandeOccupation) public demandesOccupation;\n\n    Agent[] public allAgents;\n   \n    uint public contribuableCount = 0;\n    uint public commerceCount = 0;\n    uint public activitePrincipaleCount = 0;\n    uint public agentCount = 0; \n    uint public patentesCount= 0; \n    uint public marcheCount = 0;\n    uint public demandeOccupationCount = 0;\n\n    uint public currentYear = 2023; \n\n    struct Admin {\n        uint id;\n        string nom;\n        string prenom;\n        string adresse;\n        string email;\n        uint telephone;\n        bool estEnregistre;\n    }\n    \n    struct Agent {\n        uint id;\n        address ethAddress; // Adresse Ethereum de l'agent\n        string nom;\n        string prenom;\n        string adresse;\n        string email;\n        uint telephone;\n        bool estEnregistre;\n    }\n    \n    struct Contribuable {\n        uint id; \n        address ethAddress; // Adresse Ethereum du contribuable\n        string nif;\n        string denomination;\n        uint activitePrincipaleId;\n        string nom;\n        string prenom;\n        string adresse;\n        string email;\n        uint contact;\n        uint valeurLocative; \n        uint nombreEmployes;\n        string anneeModification;\n        uint agentId; \n        string typeContribuable;\n        string dateCreation; \n        bool estEnregistre;\n    }\n    \n      struct Marche {\n        uint id;\n        string nom;\n        uint nombrePlaces;\n        uint prixPlace;\n        uint placesOccupees; // Mapping des places occupees par date\n    }\n    \n    struct DemandeOccupation {\n        uint idOccupation;\n        uint idMarche; // ID du marche demande\n        string dateDebut; // Date de debut demandee\n        string dateFin; // Date de fin demandee\n        uint idContribuable; // ID du contribuable demandeur\n        bool estValidee; // Indique si la demande a ete validee par l'agent\n    }\n    \n    event DemandeOccupationCreee(uint idOccupation, uint idMarche, string dateDebut, string dateFin, uint idContribuable);\n    event DemandeOccupationValidee(uint idOccupation, uint idMarche, uint place, string dateDebut, string dateFin, uint idContribuable, address agent);\n    \n    struct ActivitePrincipale {\n        uint id;\n        string nom;\n        uint droitFixeAnnuel;\n        string description; \n        bool estEnregistre;\n    }\n\n    struct Patente {\n    uint id;\n    uint contribuableId;\n    uint droitFixe;\n    uint droitProportionnel;\n    uint anneePaiement;\n    bool estPayee;\n}\n\n\n    \n    constructor() {\n        admin = msg.sender;\n    }\n    \n    modifier seulementAdmin() {\n        require(msg.sender == admin, \"Seul l'administrateur peut effectuer cette action.\");\n        _;\n    }\n    \n    modifier seulementAgent() {\n        require(estAgent[msg.sender], \"Seuls les agents peuvent effectuer cette action.\");\n        _;\n    }\n    \n    modifier seulementContribuable() {\n        require(estContribuable[msg.sender], \"Seuls les contribuables peuvent effectuer cette action.\");\n        _;\n    }\n    \n\n    function creerDemandeOccupation(uint idContribuable, uint _idMarche, string memory _dateDebut, string memory _dateFin) public seulementContribuable {\n        // require(estContribuable[msg.sender], \"Seuls les contribuables peuvent creer une demande d'occupation\");\n        require(marches[_idMarche].placesOccupees < marches[_idMarche].nombrePlaces, \"Il n'y a plus de places disponibles\" );\n        demandeOccupationCount++;\n        \n        DemandeOccupation storage nouvelleDemande = demandesOccupation[demandeOccupationCount];\n        nouvelleDemande.idOccupation = demandeOccupationCount;\n        nouvelleDemande.idMarche = _idMarche;\n        nouvelleDemande.dateDebut = _dateDebut;\n        nouvelleDemande.dateFin = _dateFin;\n        nouvelleDemande.idContribuable = idContribuable;\n        \n        emit DemandeOccupationCreee(demandeOccupationCount, _idMarche, _dateDebut, _dateFin, idContribuable);\n    }\n    \n    function validerDemandeOccupation(uint _idOccupation) public  {\n        require(demandesOccupation[_idOccupation].idOccupation != 0, \"La demande d'occupation n'existe pas\");\n        \n        DemandeOccupation storage demande = demandesOccupation[_idOccupation];\n        \n        demande.estValidee = true;\n\n        emit DemandeOccupationValidee(_idOccupation, demande.idMarche, marches[demande.idMarche].placesOccupees, demande.dateDebut, demande.dateFin, demande.idContribuable, msg.sender);\n\n\n        marches[demande.idMarche].placesOccupees++;\n\n        \n    }\n    \n    function getDemandeOccupation(uint _idOccupation) public view returns (DemandeOccupation memory) {\n        require(demandesOccupation[_idOccupation].idOccupation != 0, \"La demande d'occupation n'existe pas\");\n        \n        DemandeOccupation storage demande = demandesOccupation[_idOccupation];\n        \n        return DemandeOccupation(demande.idOccupation, demande.idMarche, demande.dateDebut, demande.dateFin, demande.idContribuable, demande.estValidee);\n    }\n    \n\n    function ajouterAgent(address _ethAddress, string memory _nom, string memory _prenom, string memory _adresse, string memory _email, uint _telephone) public seulementAdmin {\n        require(!estAgent[_ethAddress], \"Cet agent est deja enregistre.\");\n        \n        Agent memory nouvelAgent = Agent({\n            id: agentCount,\n            ethAddress: _ethAddress,\n            nom: _nom,\n            prenom: _prenom,\n            adresse: _adresse,\n            email: _email,\n            telephone: _telephone,\n            estEnregistre: true\n        });\n        \n        estAgent[_ethAddress] = true;\n        agents[agentCount] = nouvelAgent;\n        allAgents.push(nouvelAgent); \n            // emit AgentAjoute(agentCount, _ethAddress, _nom, _prenom, _adresse, _email, _telephone, true);\n        agentCount++;\n    }\n\n    \n    function ajouterContribuable(address  _ethAddress, string memory _nif,string memory _denomination,uint  _activitePrincipaleId,   string memory _nom, string memory _prenom, string memory _adresse, string memory _email, uint _contact, string memory _typeContribuable, string memory _dateCreation, uint  _valeurLocative,uint _nombreEmployee, string memory _anneeModification,uint _agentId ) public seulementAdmin {\n        require(!estContribuable[_ethAddress], \"Ce contribuable est deja enregistre.\");\n        \n        Contribuable memory nouveauContribuable = Contribuable({\n            id: contribuableCount,\n            ethAddress: _ethAddress,\n            nif : _nif,\n            denomination: _denomination, \n            activitePrincipaleId: _activitePrincipaleId, \n            nom: _nom,\n            prenom: _prenom,\n            adresse: _adresse,\n            email: _email,\n            contact: _contact,\n            valeurLocative : _valeurLocative,\n            nombreEmployes : _nombreEmployee,\n            anneeModification: _anneeModification,\n            agentId : _agentId, \n            typeContribuable : _typeContribuable, \n            dateCreation : _dateCreation,  \n            estEnregistre: true\n        });\n        estContribuable[_ethAddress] = true;\n        contribuables[contribuableCount] = nouveauContribuable;\n            // emit ContribuableAjoute(contribuableCount, _ethAddress, _nom, _prenom, _adresse, _email, _telephone, true);\n        contribuableCount++;\n\n    }\n    \n\n    \n    function ajouterActivitePrincipale( string memory _nom, uint _droitFixeAnnuel, string memory _description) public seulementAdmin {\n        ActivitePrincipale memory nouveauActivitePrincipale = ActivitePrincipale({\n            id: activitePrincipaleCount,\n            nom: _nom,\n            droitFixeAnnuel: _droitFixeAnnuel,\n            description: _description,\n            estEnregistre: true\n        });\n        \n        activitePrincipale[activitePrincipaleCount] = nouveauActivitePrincipale;\n    //  emit ActivitePrincipaleAjoute(activitePrincipaleCount, _nom, _droitFixeAnnuel, _description, true);\n    activitePrincipaleCount++;\n    }\n\n    function creerPatente(uint contribuableId, uint anneePaiement) public seulementAgent() {\n    require(!patentes[contribuableId].estPayee, \"Une patente a deja ete payee pour cette annee.\");\n\n    // Recuperer le contribuable correspondant\n    Contribuable storage contribuable = contribuables[contribuableId];\n    \n    // Recuperer le type de contribuable correspondant\n    uint activiteId = contribuable.activitePrincipaleId;\n    ActivitePrincipale storage activite = activitePrincipale[activiteId];\n    \n    // Calculer le droit fixe et le droit proportionnel\n    uint droitFixe = activite.droitFixeAnnuel;\n    uint droitProportionnel = contribuable.valeurLocative / 10 ;\n    \n    // Verifier que le droit proportionnel est superieur ou egal a un quart du droit fixe\n    if (droitProportionnel < (droitFixe / 4)) {\n        droitProportionnel = (droitFixe / 4);\n    }\n    \n    // Creer la patente\n    Patente memory nouvellePatente = Patente({\n        id: patentesCount,\n        contribuableId: contribuableId,\n        droitFixe: droitFixe,\n        droitProportionnel: droitProportionnel,\n        anneePaiement: anneePaiement,\n        estPayee: false\n    });\n    patentes[patentesCount] = nouvellePatente;\n    patentesCount++;\n    \n    // Stocker l'ID de la patente dans le contribuable correspondant\n    // contribuable.patenteId = nouvellePatente.id;\n}\nfunction payerPatente(uint patenteId, uint sommePayee) public seulementContribuable {\n    require(!patentes[patenteId].estPayee, \"Cette patente a deja ete payee.\");\n    \n    // Mettre a jour la propriete estPayee de la patente\n    if (sommePayee >= (patentes[patenteId].droitProportionnel + patentes[patenteId].droitFixe)) {\n      \n      patentes[patenteId].estPayee = true;\n      emit patentePayer(patenteId, patentes[patenteId].contribuableId, patentes[patenteId].droitFixe, patentes[patenteId].droitProportionnel, patentes[patenteId].anneePaiement, sommePayee, true);\n\n    } else {\n      \n      emit patentePayer(patenteId, patentes[patenteId].contribuableId, patentes[patenteId].droitFixe, patentes[patenteId].droitProportionnel, patentes[patenteId].anneePaiement, sommePayee, false);\n\n    }\n    \n    // Envoyer les fonds vers le service des impots\n    // Mettre a jour l'annee de paiement de la patente\n    // patentes[patenteId].anneePaiement = 2024; // Mettre l'annee de paiement suivante ici\n}\n\n\n    function getTypeUtilisateur(address _adresse) public view returns (string memory) {\n        if (estAgent[_adresse]) {\n            return \"Agent\";\n        } else if (estContribuable[_adresse]) {\n            return \"Contribuable\";\n        } else if (_adresse == admin) {\n            return \"Admin\";\n        } else {\n            return \"Inconnu\";\n        }\n    }\n\nfunction supprimerAgent(address _ethAddress) public seulementAdmin {\n    \n    for (uint index = 0; index < agentCount; index++) {\n        if(_ethAddress == agents[index].ethAddress){\n            agents[index].estEnregistre = false; \n            break;\n        }\n    }\n}\nfunction supprimerContribuable(address _ethAddress) public seulementAdmin {\n   for (uint index = 0; index < contribuableCount; index++) {\n          if(_ethAddress == contribuables[index].ethAddress){\n            contribuables[index].estEnregistre = false;\n        }\n    }\n}\nfunction modifierAgent(address _ethAddress, string memory _nom, string memory _prenom, string memory _adresse, string memory _email, uint _telephone) public seulementAdmin {\n    require(estAgent[_ethAddress], \"Cet agent n'est pas enregistre.\");\n        \n\n    for (uint index = 0; index < agentCount; index++) {\n        if(_ethAddress == agents[index].ethAddress){\n            // agents[index].estEnregistre = false; \n            Agent storage agent = agents[index]; \n            agent.id = agents[index].id; \n            agent.ethAddress = _ethAddress; \n            agent.nom = _nom;\n            agent.prenom = _prenom;\n            agent.adresse = _adresse;\n            agent.email = _email;\n            agent.telephone = _telephone;\n            agent.estEnregistre = true; \n            break;\n        }\n    }\n   \n}\nfunction modifierContribuable(address _ethAddress,string memory _denomination,uint _activitePrincipaleId, string memory _nom, string memory _prenom, string memory _adresse, string memory _email, uint _contact,string memory _typeContribuable,  uint _valeurLocative,  uint _nombreEmployes,\n        string memory _anneeModification, uint _agentId ) public seulementAdmin {\n    require(estContribuable[_ethAddress], \"Ce contribuable n'est pas enregistre.\");\n   for (uint index = 0; index < contribuableCount; index++) {\n    if(_ethAddress == contribuables[index].ethAddress){\n    Contribuable storage contribuable = contribuables[index];\n    contribuable.nom = _nom;\n    contribuable.prenom = _prenom;\n    contribuable.adresse = _adresse;\n    contribuable.email = _email;\n    contribuable.contact = _contact;\n    contribuable.valeurLocative = _valeurLocative; \n    contribuable.nombreEmployes = _nombreEmployes;\n    contribuable.anneeModification= _anneeModification;\n    contribuable.agentId = _agentId; \n    contribuable.activitePrincipaleId= _activitePrincipaleId; \n    contribuable.denomination = _denomination;\n    contribuable.typeContribuable = _typeContribuable;\n    }\n   }\n}\nfunction supprimerActivitePrincipale(uint _id) public seulementAdmin {\n    require(activitePrincipale[_id].estEnregistre, \"Ce type de commerce n'est pas enregistre.\");\n    activitePrincipale[_id].estEnregistre = false;\n    delete activitePrincipale[_id];\n}\nfunction modifierActivitePrincipale(uint _id, string memory _nom, uint _droitFixeAnnuel, string memory _description) public seulementAdmin {\n    require(activitePrincipale[_id].estEnregistre, \"Ce type de commerce n'est pas enregistre.\");\n    ActivitePrincipale storage typeC = activitePrincipale[_id];\n    typeC.nom = _nom;\n    typeC.droitFixeAnnuel = _droitFixeAnnuel;\n    typeC.description = _description;\n}\n\n\nfunction getAgents() public view returns (Agent[] memory) {\n    Agent[] memory agentsList = new Agent[](agentCount);\n    for (uint i = 0; i < agentCount; i++) {\n        if(agents[i].estEnregistre){\n        agentsList[i] = agents[i];}\n    }\n    return agentsList;\n}\n\nfunction getContribuables() public view returns (Contribuable[] memory) {\n    Contribuable[] memory contribuablesList = new Contribuable[](contribuableCount);\n    for (uint i = 0; i <= contribuableCount; i++) {\n        if(contribuables[i].estEnregistre){\n        contribuablesList[i] = contribuables[i];}\n    }\n    return contribuablesList;\n}\n\nfunction getPatentesPayer()public view returns (Patente[] memory){\n  Patente[] memory patenteList = new Patente[](patentesCount); \n  for (uint index = 0; index < patentesCount; index++) {\n    if (patentes[index].estPayee) {\n      patenteList[index] = patentes[index]; \n    } \n  }\n  return patenteList;\n}\n\nfunction getPatentesNonPayer()public view returns (Patente[] memory){\n  Patente[] memory patenteList = new Patente[](patentesCount); \n  for (uint index = 0; index < patentesCount; index++) {\n    if (!patentes[index].estPayee) {\n      patenteList[index] = patentes[index]; \n    } \n  }\n  return patenteList;\n}\nfunction getActivitesPrincipales() public view returns (ActivitePrincipale[] memory) {\n  ActivitePrincipale[] memory activitesPrincipalesList = new ActivitePrincipale[](activitePrincipaleCount);\n  uint counter = 0;\n  for (uint id = 0; id < activitePrincipaleCount; id++){\n    if(activitePrincipale[id].estEnregistre){\n      activitesPrincipalesList[counter] = activitePrincipale[id];\n      counter++;\n      }\n      }\n      return activitesPrincipalesList;\n}\n\n\nfunction getPatenteByContribuable(address _contribuableAdress) public view returns (Patente[] memory) {\n  require(estContribuable[_contribuableAdress], \"Ce contribuable n'est pas enregistre.\");\n\n  Patente[] memory patenteList = new Patente[](patentesCount);\n  // Contribuable memory contribuableSelect = new Contribuable(contribuableCount);\n    for (uint i = 0; i <= contribuableCount; i++) {\n    if(_contribuableAdress == contribuables[i].ethAddress){\n        Contribuable memory contribuableSelected = contribuables[i];\n        for (uint j=0 ;j<patentesCount;j++){\n          if(contribuableSelected.id==patentes[j].contribuableId){\n            patenteList[j]=patentes[j];\n          }\n        }\n    }\n  \n}\nreturn patenteList; \n}\n \n    function ajouterMarche(string memory _nom, uint _nombrePlaces, uint _prixPlace) public seulementAdmin {\n        marcheCount++;\n        \n        Marche storage nouveauMarche = marches[marcheCount];\n        nouveauMarche.id = marcheCount;\n        nouveauMarche.nom = _nom;\n        nouveauMarche.nombrePlaces = _nombrePlaces;\n        nouveauMarche.prixPlace = _prixPlace;\n        nouveauMarche.placesOccupees = 0;  \n       \n    }\n    \n    function getMarches() public view returns (Marche[] memory) {\n  Marche[] memory marchesList = new Marche[](marcheCount);\n  uint counter = 0;\n  for (uint id = 0; id < marcheCount; id++){\n   \n      marchesList[counter] = marches[id];\n      counter++;\n    \n      }\n      return marchesList;\n}\n   \n}\n",
  "sourcePath": "D:\\PFE\\pfe_block\\smartContracts\\contracts\\TaxManagement.sol",
  "compiler": {
    "name": "solc",
    "version": "0.8.19+commit.7dd6d404.Emscripten.clang"
  },
  "schemaVersion": "3.4.15",
  "updatedAt": "2023-11-15T20:37:21.649Z",
  "networkType": "ethereum",
  "devdoc": {
    "kind": "dev",
    "methods": {},
    "version": 1
  },
  "userdoc": {
    "kind": "user",
    "methods": {},
    "version": 1
  }
}