{
  "contractName": "TaxManagement",
  "abi": [
    {
      "inputs": [],
      "stateMutability": "nonpayable",
      "type": "constructor"
    },
    {
      "anonymous": false,
      "inputs": [
        {
          "indexed": false,
          "internalType": "uint256",
          "name": "id",
          "type": "uint256"
        },
        {
          "indexed": false,
          "internalType": "uint256",
          "name": "contribuableId",
          "type": "uint256"
        },
        {
          "indexed": false,
          "internalType": "uint256",
          "name": "droitFixe",
          "type": "uint256"
        },
        {
          "indexed": false,
          "internalType": "uint256",
          "name": "droitProportionnelle",
          "type": "uint256"
        },
        {
          "indexed": false,
          "internalType": "uint256",
          "name": "annePaiement",
          "type": "uint256"
        },
        {
          "indexed": false,
          "internalType": "uint256",
          "name": "sommePayee",
          "type": "uint256"
        },
        {
          "indexed": false,
          "internalType": "bool",
          "name": "estPayee",
          "type": "bool"
        }
      ],
      "name": "patentePayer",
      "type": "event"
    },
    {
      "inputs": [
        {
          "internalType": "uint256",
          "name": "",
          "type": "uint256"
        }
      ],
      "name": "activitePrincipale",
      "outputs": [
        {
          "internalType": "uint256",
          "name": "id",
          "type": "uint256"
        },
        {
          "internalType": "string",
          "name": "nom",
          "type": "string"
        },
        {
          "internalType": "uint256",
          "name": "droitFixeAnnuel",
          "type": "uint256"
        },
        {
          "internalType": "string",
          "name": "description",
          "type": "string"
        },
        {
          "internalType": "bool",
          "name": "estEnregistre",
          "type": "bool"
        }
      ],
      "stateMutability": "view",
      "type": "function",
      "constant": true
    },
    {
      "inputs": [],
      "name": "activitePrincipaleCount",
      "outputs": [
        {
          "internalType": "uint256",
          "name": "",
          "type": "uint256"
        }
      ],
      "stateMutability": "view",
      "type": "function",
      "constant": true
    },
    {
      "inputs": [],
      "name": "admin",
      "outputs": [
        {
          "internalType": "address",
          "name": "",
          "type": "address"
        }
      ],
      "stateMutability": "view",
      "type": "function",
      "constant": true
    },
    {
      "inputs": [
        {
          "internalType": "address",
          "name": "",
          "type": "address"
        }
      ],
      "name": "admins",
      "outputs": [
        {
          "internalType": "uint256",
          "name": "id",
          "type": "uint256"
        },
        {
          "internalType": "string",
          "name": "nom",
          "type": "string"
        },
        {
          "internalType": "string",
          "name": "prenom",
          "type": "string"
        },
        {
          "internalType": "string",
          "name": "adresse",
          "type": "string"
        },
        {
          "internalType": "string",
          "name": "email",
          "type": "string"
        },
        {
          "internalType": "uint256",
          "name": "telephone",
          "type": "uint256"
        },
        {
          "internalType": "bool",
          "name": "estEnregistre",
          "type": "bool"
        }
      ],
      "stateMutability": "view",
      "type": "function",
      "constant": true
    },
    {
      "inputs": [],
      "name": "agentCount",
      "outputs": [
        {
          "internalType": "uint256",
          "name": "",
          "type": "uint256"
        }
      ],
      "stateMutability": "view",
      "type": "function",
      "constant": true
    },
    {
      "inputs": [
        {
          "internalType": "uint256",
          "name": "",
          "type": "uint256"
        }
      ],
      "name": "agents",
      "outputs": [
        {
          "internalType": "uint256",
          "name": "id",
          "type": "uint256"
        },
        {
          "internalType": "address",
          "name": "ethAddress",
          "type": "address"
        },
        {
          "internalType": "string",
          "name": "nom",
          "type": "string"
        },
        {
          "internalType": "string",
          "name": "prenom",
          "type": "string"
        },
        {
          "internalType": "string",
          "name": "adresse",
          "type": "string"
        },
        {
          "internalType": "string",
          "name": "email",
          "type": "string"
        },
        {
          "internalType": "uint256",
          "name": "telephone",
          "type": "uint256"
        },
        {
          "internalType": "bool",
          "name": "estEnregistre",
          "type": "bool"
        }
      ],
      "stateMutability": "view",
      "type": "function",
      "constant": true
    },
    {
      "inputs": [
        {
          "internalType": "uint256",
          "name": "",
          "type": "uint256"
        }
      ],
      "name": "allAgents",
      "outputs": [
        {
          "internalType": "uint256",
          "name": "id",
          "type": "uint256"
        },
        {
          "internalType": "address",
          "name": "ethAddress",
          "type": "address"
        },
        {
          "internalType": "string",
          "name": "nom",
          "type": "string"
        },
        {
          "internalType": "string",
          "name": "prenom",
          "type": "string"
        },
        {
          "internalType": "string",
          "name": "adresse",
          "type": "string"
        },
        {
          "internalType": "string",
          "name": "email",
          "type": "string"
        },
        {
          "internalType": "uint256",
          "name": "telephone",
          "type": "uint256"
        },
        {
          "internalType": "bool",
          "name": "estEnregistre",
          "type": "bool"
        }
      ],
      "stateMutability": "view",
      "type": "function",
      "constant": true
    },
    {
      "inputs": [],
      "name": "commerceCount",
      "outputs": [
        {
          "internalType": "uint256",
          "name": "",
          "type": "uint256"
        }
      ],
      "stateMutability": "view",
      "type": "function",
      "constant": true
    },
    {
      "inputs": [],
      "name": "contribuableCount",
      "outputs": [
        {
          "internalType": "uint256",
          "name": "",
          "type": "uint256"
        }
      ],
      "stateMutability": "view",
      "type": "function",
      "constant": true
    },
    {
      "inputs": [
        {
          "internalType": "uint256",
          "name": "",
          "type": "uint256"
        }
      ],
      "name": "contribuables",
      "outputs": [
        {
          "internalType": "uint256",
          "name": "id",
          "type": "uint256"
        },
        {
          "internalType": "address",
          "name": "ethAddress",
          "type": "address"
        },
        {
          "internalType": "string",
          "name": "nif",
          "type": "string"
        },
        {
          "internalType": "string",
          "name": "denomination",
          "type": "string"
        },
        {
          "internalType": "uint256",
          "name": "activitePrincipaleId",
          "type": "uint256"
        },
        {
          "internalType": "string",
          "name": "nom",
          "type": "string"
        },
        {
          "internalType": "string",
          "name": "prenom",
          "type": "string"
        },
        {
          "internalType": "string",
          "name": "adresse",
          "type": "string"
        },
        {
          "internalType": "string",
          "name": "email",
          "type": "string"
        },
        {
          "internalType": "uint256",
          "name": "contact",
          "type": "uint256"
        },
        {
          "internalType": "uint256",
          "name": "valeurLocative",
          "type": "uint256"
        },
        {
          "internalType": "string",
          "name": "typeContribuable",
          "type": "string"
        },
        {
          "internalType": "string",
          "name": "dateCreation",
          "type": "string"
        },
        {
          "internalType": "bool",
          "name": "estEnregistre",
          "type": "bool"
        }
      ],
      "stateMutability": "view",
      "type": "function",
      "constant": true
    },
    {
      "inputs": [],
      "name": "currentYear",
      "outputs": [
        {
          "internalType": "uint256",
          "name": "",
          "type": "uint256"
        }
      ],
      "stateMutability": "view",
      "type": "function",
      "constant": true
    },
    {
      "inputs": [
        {
          "internalType": "address",
          "name": "",
          "type": "address"
        }
      ],
      "name": "estAgent",
      "outputs": [
        {
          "internalType": "bool",
          "name": "",
          "type": "bool"
        }
      ],
      "stateMutability": "view",
      "type": "function",
      "constant": true
    },
    {
      "inputs": [
        {
          "internalType": "address",
          "name": "",
          "type": "address"
        }
      ],
      "name": "estContribuable",
      "outputs": [
        {
          "internalType": "bool",
          "name": "",
          "type": "bool"
        }
      ],
      "stateMutability": "view",
      "type": "function",
      "constant": true
    },
    {
      "inputs": [
        {
          "internalType": "uint256",
          "name": "",
          "type": "uint256"
        }
      ],
      "name": "patentes",
      "outputs": [
        {
          "internalType": "uint256",
          "name": "id",
          "type": "uint256"
        },
        {
          "internalType": "uint256",
          "name": "contribuableId",
          "type": "uint256"
        },
        {
          "internalType": "uint256",
          "name": "droitFixe",
          "type": "uint256"
        },
        {
          "internalType": "uint256",
          "name": "droitProportionnel",
          "type": "uint256"
        },
        {
          "internalType": "uint256",
          "name": "anneePaiement",
          "type": "uint256"
        },
        {
          "internalType": "bool",
          "name": "estPayee",
          "type": "bool"
        }
      ],
      "stateMutability": "view",
      "type": "function",
      "constant": true
    },
    {
      "inputs": [],
      "name": "patentesCount",
      "outputs": [
        {
          "internalType": "uint256",
          "name": "",
          "type": "uint256"
        }
      ],
      "stateMutability": "view",
      "type": "function",
      "constant": true
    },
    {
      "inputs": [
        {
          "internalType": "address",
          "name": "_ethAddress",
          "type": "address"
        },
        {
          "internalType": "string",
          "name": "_nom",
          "type": "string"
        },
        {
          "internalType": "string",
          "name": "_prenom",
          "type": "string"
        },
        {
          "internalType": "string",
          "name": "_adresse",
          "type": "string"
        },
        {
          "internalType": "string",
          "name": "_email",
          "type": "string"
        },
        {
          "internalType": "uint256",
          "name": "_telephone",
          "type": "uint256"
        }
      ],
      "name": "ajouterAgent",
      "outputs": [],
      "stateMutability": "nonpayable",
      "type": "function"
    },
    {
      "inputs": [
        {
          "internalType": "address",
          "name": "_ethAddress",
          "type": "address"
        },
        {
          "internalType": "string",
          "name": "_nif",
          "type": "string"
        },
        {
          "internalType": "string",
          "name": "_denomination",
          "type": "string"
        },
        {
          "internalType": "uint256",
          "name": "_activitePrincipaleId",
          "type": "uint256"
        },
        {
          "internalType": "string",
          "name": "_nom",
          "type": "string"
        },
        {
          "internalType": "string",
          "name": "_prenom",
          "type": "string"
        },
        {
          "internalType": "string",
          "name": "_adresse",
          "type": "string"
        },
        {
          "internalType": "string",
          "name": "_email",
          "type": "string"
        },
        {
          "internalType": "uint256",
          "name": "_contact",
          "type": "uint256"
        },
        {
          "internalType": "string",
          "name": "_typeContribuable",
          "type": "string"
        },
        {
          "internalType": "string",
          "name": "_dateCreation",
          "type": "string"
        },
        {
          "internalType": "uint256",
          "name": "_valeurLocative",
          "type": "uint256"
        }
      ],
      "name": "ajouterContribuable",
      "outputs": [],
      "stateMutability": "nonpayable",
      "type": "function"
    },
    {
      "inputs": [
        {
          "internalType": "string",
          "name": "_nom",
          "type": "string"
        },
        {
          "internalType": "uint256",
          "name": "_droitFixeAnnuel",
          "type": "uint256"
        },
        {
          "internalType": "string",
          "name": "_description",
          "type": "string"
        }
      ],
      "name": "ajouterActivitePrincipale",
      "outputs": [],
      "stateMutability": "nonpayable",
      "type": "function"
    },
    {
      "inputs": [
        {
          "internalType": "uint256",
          "name": "contribuableId",
          "type": "uint256"
        },
        {
          "internalType": "uint256",
          "name": "anneePaiement",
          "type": "uint256"
        }
      ],
      "name": "creerPatente",
      "outputs": [],
      "stateMutability": "nonpayable",
      "type": "function"
    },
    {
      "inputs": [
        {
          "internalType": "uint256",
          "name": "patenteId",
          "type": "uint256"
        },
        {
          "internalType": "uint256",
          "name": "sommePayee",
          "type": "uint256"
        }
      ],
      "name": "payerPatente",
      "outputs": [],
      "stateMutability": "nonpayable",
      "type": "function"
    },
    {
      "inputs": [
        {
          "internalType": "address",
          "name": "_adresse",
          "type": "address"
        }
      ],
      "name": "getTypeUtilisateur",
      "outputs": [
        {
          "internalType": "string",
          "name": "",
          "type": "string"
        }
      ],
      "stateMutability": "view",
      "type": "function",
      "constant": true
    },
    {
      "inputs": [
        {
          "internalType": "address",
          "name": "_ethAddress",
          "type": "address"
        }
      ],
      "name": "supprimerAgent",
      "outputs": [],
      "stateMutability": "nonpayable",
      "type": "function"
    },
    {
      "inputs": [
        {
          "internalType": "address",
          "name": "_ethAddress",
          "type": "address"
        }
      ],
      "name": "supprimerContribuable",
      "outputs": [],
      "stateMutability": "nonpayable",
      "type": "function"
    },
    {
      "inputs": [
        {
          "internalType": "address",
          "name": "_ethAddress",
          "type": "address"
        },
        {
          "internalType": "string",
          "name": "_nom",
          "type": "string"
        },
        {
          "internalType": "string",
          "name": "_prenom",
          "type": "string"
        },
        {
          "internalType": "string",
          "name": "_adresse",
          "type": "string"
        },
        {
          "internalType": "string",
          "name": "_email",
          "type": "string"
        },
        {
          "internalType": "uint256",
          "name": "_telephone",
          "type": "uint256"
        }
      ],
      "name": "modifierAgent",
      "outputs": [],
      "stateMutability": "nonpayable",
      "type": "function"
    },
    {
      "inputs": [
        {
          "internalType": "address",
          "name": "_ethAddress",
          "type": "address"
        },
        {
          "internalType": "string",
          "name": "_denomination",
          "type": "string"
        },
        {
          "internalType": "uint256",
          "name": "_activitePrincipaleId",
          "type": "uint256"
        },
        {
          "internalType": "string",
          "name": "_nom",
          "type": "string"
        },
        {
          "internalType": "string",
          "name": "_prenom",
          "type": "string"
        },
        {
          "internalType": "string",
          "name": "_adresse",
          "type": "string"
        },
        {
          "internalType": "string",
          "name": "_email",
          "type": "string"
        },
        {
          "internalType": "uint256",
          "name": "_contact",
          "type": "uint256"
        },
        {
          "internalType": "string",
          "name": "_typeContribuable",
          "type": "string"
        },
        {
          "internalType": "uint256",
          "name": "_valeurLocative",
          "type": "uint256"
        }
      ],
      "name": "modifierContribuable",
      "outputs": [],
      "stateMutability": "nonpayable",
      "type": "function"
    },
    {
      "inputs": [
        {
          "internalType": "uint256",
          "name": "_id",
          "type": "uint256"
        }
      ],
      "name": "supprimerActivitePrincipale",
      "outputs": [],
      "stateMutability": "nonpayable",
      "type": "function"
    },
    {
      "inputs": [
        {
          "internalType": "uint256",
          "name": "_id",
          "type": "uint256"
        },
        {
          "internalType": "string",
          "name": "_nom",
          "type": "string"
        },
        {
          "internalType": "uint256",
          "name": "_droitFixeAnnuel",
          "type": "uint256"
        },
        {
          "internalType": "string",
          "name": "_description",
          "type": "string"
        }
      ],
      "name": "modifierActivitePrincipale",
      "outputs": [],
      "stateMutability": "nonpayable",
      "type": "function"
    },
    {
      "inputs": [],
      "name": "getAgents",
      "outputs": [
        {
          "components": [
            {
              "internalType": "uint256",
              "name": "id",
              "type": "uint256"
            },
            {
              "internalType": "address",
              "name": "ethAddress",
              "type": "address"
            },
            {
              "internalType": "string",
              "name": "nom",
              "type": "string"
            },
            {
              "internalType": "string",
              "name": "prenom",
              "type": "string"
            },
            {
              "internalType": "string",
              "name": "adresse",
              "type": "string"
            },
            {
              "internalType": "string",
              "name": "email",
              "type": "string"
            },
            {
              "internalType": "uint256",
              "name": "telephone",
              "type": "uint256"
            },
            {
              "internalType": "bool",
              "name": "estEnregistre",
              "type": "bool"
            }
          ],
          "internalType": "struct TaxManagement.Agent[]",
          "name": "",
          "type": "tuple[]"
        }
      ],
      "stateMutability": "view",
      "type": "function",
      "constant": true
    },
    {
      "inputs": [],
      "name": "getContribuables",
      "outputs": [
        {
          "components": [
            {
              "internalType": "uint256",
              "name": "id",
              "type": "uint256"
            },
            {
              "internalType": "address",
              "name": "ethAddress",
              "type": "address"
            },
            {
              "internalType": "string",
              "name": "nif",
              "type": "string"
            },
            {
              "internalType": "string",
              "name": "denomination",
              "type": "string"
            },
            {
              "internalType": "uint256",
              "name": "activitePrincipaleId",
              "type": "uint256"
            },
            {
              "internalType": "string",
              "name": "nom",
              "type": "string"
            },
            {
              "internalType": "string",
              "name": "prenom",
              "type": "string"
            },
            {
              "internalType": "string",
              "name": "adresse",
              "type": "string"
            },
            {
              "internalType": "string",
              "name": "email",
              "type": "string"
            },
            {
              "internalType": "uint256",
              "name": "contact",
              "type": "uint256"
            },
            {
              "internalType": "uint256",
              "name": "valeurLocative",
              "type": "uint256"
            },
            {
              "internalType": "string",
              "name": "typeContribuable",
              "type": "string"
            },
            {
              "internalType": "string",
              "name": "dateCreation",
              "type": "string"
            },
            {
              "internalType": "bool",
              "name": "estEnregistre",
              "type": "bool"
            }
          ],
          "internalType": "struct TaxManagement.Contribuable[]",
          "name": "",
          "type": "tuple[]"
        }
      ],
      "stateMutability": "view",
      "type": "function",
      "constant": true
    }
  ],
  "bytecode": "0x60806040526127106009556000600a556000600b556000600c556000600d556107e7600e5534801561003057600080fd5b50600080546001600160a01b03191633179055613808806100526000396000f3fe608060405234801561001057600080fd5b50600436106101cf5760003560e01c8063a8420b7e11610104578063d86c73b4116100a2578063f433643d11610071578063f433643d1461047d578063f5294c0014610490578063f851a440146104a3578063fec12222146104ce57600080fd5b8063d86c73b4146103ff578063e0a1cce614610432578063e0bb12f714610455578063eac3fda41461046857600080fd5b8063bf84e1dc116100de578063bf84e1dc14610351578063c2955288146103c6578063d24f29dc146103d9578063d2c580b3146103ec57600080fd5b8063a8420b7e14610308578063b730a73814610335578063b7dc12841461034857600080fd5b80634584ed831161017157806383d19c001161014b57806383d19c00146102ce5780639209d938146102e1578063984bff58146102ea578063a1b0ae09146102ff57600080fd5b80634584ed8314610263578063513856c8146102875780637a84e680146102ae57600080fd5b8063112007e5116101ad578063112007e51461021857806322fa5015146102215780632c70d0d81461022a578063429b62e51461023d57600080fd5b80630b0d2251146101d45780630b5a006b146101e95780630ecfa8ee14610205575b600080fd5b6101e76101e2366004612be0565b6104e1565b005b6101f2600e5481565b6040519081526020015b60405180910390f35b6101e7610213366004612d06565b61065d565b6101f2600a5481565b6101f2600d5481565b6101e7610238366004612eb7565b610903565b61025061024b366004612eb7565b610990565b6040516101fc9796959493929190612f1f565b610276610271366004612f8e565b610bef565b6040516101fc959493929190612fa7565b61029a610295366004612f8e565b610d31565b6040516101fc989796959493929190612fed565b6102c16102bc366004612eb7565b610fa0565b6040516101fc919061306f565b6101e76102dc366004613082565b61108d565b6101f260095481565b6102f26112bc565b6040516101fc91906130a4565b6101f2600b5481565b61031b610316366004612f8e565b6118e5565b6040516101fc9e9d9c9b9a9998979695949392919061322b565b6101e761034336600461331b565b611d97565b6101f2600c5481565b61039761035f366004612f8e565b600760205260009081526040902080546001820154600283015460038401546004850154600590950154939492939192909160ff1686565b6040805196875260208701959095529385019290925260608401526080830152151560a082015260c0016101fc565b6101e76103d4366004613392565b611e6e565b6101e76103e7366004613458565b612141565b6101e76103fa366004612eb7565b612216565b61042261040d366004612eb7565b60016020526000908152604090205460ff1681565b60405190151581526020016101fc565b610422610440366004612eb7565b60026020526000908152604090205460ff1681565b61029a610463366004612f8e565b6122a0565b6104706122e6565b6040516101fc91906134c5565b6101e761048b366004613392565b612682565b6101e761049e366004612f8e565b6127e2565b6000546104b6906001600160a01b031681565b6040516001600160a01b0390911681526020016101fc565b6101e76104dc366004613082565b6128d1565b6000546001600160a01b031633146105145760405162461bcd60e51b815260040161050b906135b6565b60405180910390fd5b6001600160a01b038a1660009081526002602052604090205460ff1661058a5760405162461bcd60e51b815260206004820152602560248201527f436520636f6e747269627561626c65206e276573742070617320656e7265676960448201526439ba39329760d91b606482015260840161050b565b6127105b600954811015610650576000818152600560205260409020600101546001600160a01b03908116908c160361063e5760008181526005602081905260409091209081016105db8a82613692565b50600681016105ea8982613692565b50600781016105f98882613692565b50600881016106088782613692565b5060098101859055600a8101839055600481018a90556003810161062c8c82613692565b50600b810161063b8582613692565b50505b8061064881613768565b91505061058e565b5050505050505050505050565b6000546001600160a01b031633146106875760405162461bcd60e51b815260040161050b906135b6565b6001600160a01b038c1660009081526002602052604090205460ff16156106fc5760405162461bcd60e51b8152602060048201526024808201527f436520636f6e747269627561626c65206573742064656a6120656e72656769736044820152633a39329760e11b606482015260840161050b565b6000604051806101c0016040528060095481526020018e6001600160a01b031681526020018d81526020018c81526020018b81526020018a81526020018981526020018881526020018781526020018681526020018381526020018581526020018481526020016001151581525090506001600260008f6001600160a01b03166001600160a01b0316815260200190815260200160002060006101000a81548160ff021916908315150217905550806005600060095481526020019081526020016000206000820151816000015560208201518160010160006101000a8154816001600160a01b0302191690836001600160a01b03160217905550604082015181600201908161080c9190613692565b50606082015160038201906108219082613692565b506080820151600482015560a082015160058201906108409082613692565b5060c082015160068201906108559082613692565b5060e0820151600782019061086a9082613692565b5061010082015160088201906108809082613692565b506101208201516009820155610140820151600a820155610160820151600b8201906108ac9082613692565b50610180820151600c8201906108c29082613692565b506101a09190910151600d909101805460ff1916911515919091179055600980549060006108ef83613768565b919050555050505050505050505050505050565b6000546001600160a01b0316331461092d5760405162461bcd60e51b815260040161050b906135b6565b6127105b60095481101561098c576000818152600560205260409020600101546001600160a01b039081169083160361097a576000818152600560205260409020600d01805460ff191690555b8061098481613768565b915050610931565b5050565b600360205260009081526040902080546001820180549192916109b290613613565b80601f01602080910402602001604051908101604052809291908181526020018280546109de90613613565b8015610a2b5780601f10610a0057610100808354040283529160200191610a2b565b820191906000526020600020905b815481529060010190602001808311610a0e57829003601f168201915b505050505090806002018054610a4090613613565b80601f0160208091040260200160405190810160405280929190818152602001828054610a6c90613613565b8015610ab95780601f10610a8e57610100808354040283529160200191610ab9565b820191906000526020600020905b815481529060010190602001808311610a9c57829003601f168201915b505050505090806003018054610ace90613613565b80601f0160208091040260200160405190810160405280929190818152602001828054610afa90613613565b8015610b475780601f10610b1c57610100808354040283529160200191610b47565b820191906000526020600020905b815481529060010190602001808311610b2a57829003601f168201915b505050505090806004018054610b5c90613613565b80601f0160208091040260200160405190810160405280929190818152602001828054610b8890613613565b8015610bd55780601f10610baa57610100808354040283529160200191610bd5565b820191906000526020600020905b815481529060010190602001808311610bb857829003601f168201915b50505050600583015460069093015491929160ff16905087565b60066020526000908152604090208054600182018054919291610c1190613613565b80601f0160208091040260200160405190810160405280929190818152602001828054610c3d90613613565b8015610c8a5780601f10610c5f57610100808354040283529160200191610c8a565b820191906000526020600020905b815481529060010190602001808311610c6d57829003601f168201915b505050505090806002015490806003018054610ca590613613565b80601f0160208091040260200160405190810160405280929190818152602001828054610cd190613613565b8015610d1e5780601f10610cf357610100808354040283529160200191610d1e565b820191906000526020600020905b815481529060010190602001808311610d0157829003601f168201915b5050506004909301549192505060ff1685565b60046020526000908152604090208054600182015460028301805492936001600160a01b0390921692610d6390613613565b80601f0160208091040260200160405190810160405280929190818152602001828054610d8f90613613565b8015610ddc5780601f10610db157610100808354040283529160200191610ddc565b820191906000526020600020905b815481529060010190602001808311610dbf57829003601f168201915b505050505090806003018054610df190613613565b80601f0160208091040260200160405190810160405280929190818152602001828054610e1d90613613565b8015610e6a5780601f10610e3f57610100808354040283529160200191610e6a565b820191906000526020600020905b815481529060010190602001808311610e4d57829003601f168201915b505050505090806004018054610e7f90613613565b80601f0160208091040260200160405190810160405280929190818152602001828054610eab90613613565b8015610ef85780601f10610ecd57610100808354040283529160200191610ef8565b820191906000526020600020905b815481529060010190602001808311610edb57829003601f168201915b505050505090806005018054610f0d90613613565b80601f0160208091040260200160405190810160405280929190818152602001828054610f3990613613565b8015610f865780601f10610f5b57610100808354040283529160200191610f86565b820191906000526020600020905b815481529060010190602001808311610f6957829003601f168201915b50505050600683015460079093015491929160ff16905088565b6001600160a01b03811660009081526001602052604090205460609060ff1615610fe55750506040805180820190915260058152641059d95b9d60da1b602082015290565b6001600160a01b03821660009081526002602052604090205460ff161561102e57505060408051808201909152600c81526b436f6e747269627561626c6560a01b602082015290565b6000546001600160a01b039081169083160361106557505060408051808201909152600581526420b236b4b760d91b602082015290565b5050604080518082019091526007815266496e636f6e6e7560c81b602082015290565b919050565b3360009081526002602052604090205460ff166111125760405162461bcd60e51b815260206004820152603760248201527f5365756c73206c657320636f6e747269627561626c65732070657576656e742060448201527f65666665637475657220636574746520616374696f6e2e000000000000000000606482015260840161050b565b60008281526007602052604090206005015460ff16156111745760405162461bcd60e51b815260206004820152601f60248201527f436574746520706174656e746520612064656a61206574652070617965652e00604482015260640161050b565b600082815260076020526040902060028101546003909101546111979190613781565b8110611240576000828152600760205260409081902060058101805460ff19166001908117909155818101546002830154600384015460049094015494517f76eae79300052f67aecb8436aa0f1234fd0ac466aa2ecca072227eef9efa7a35956112349589959092899190968752602087019590955260408601939093526060850191909152608084015260a0830152151560c082015260e00190565b60405180910390a15050565b6000828152600760209081526040808320600181015460028201546003830154600490930154845189815295860192909252928401929092526060830152608082015260a0810183905260c08101919091527f76eae79300052f67aecb8436aa0f1234fd0ac466aa2ecca072227eef9efa7a359060e001611234565b6060600060095467ffffffffffffffff8111156112db576112db612b3d565b60405190808252806020026020018201604052801561138957816020015b611376604051806101c001604052806000815260200160006001600160a01b0316815260200160608152602001606081526020016000815260200160608152602001606081526020016060815260200160608152602001600081526020016000815260200160608152602001606081526020016000151581525090565b8152602001906001900390816112f95790505b5090506127105b60095481116118df576000818152600560205260409020600d015460ff16156118cd5760008181526005602090815260409182902082516101c0810184528154815260018201546001600160a01b03169281019290925260028101805492939192918401916113fe90613613565b80601f016020809104026020016040519081016040528092919081815260200182805461142a90613613565b80156114775780601f1061144c57610100808354040283529160200191611477565b820191906000526020600020905b81548152906001019060200180831161145a57829003601f168201915b5050505050815260200160038201805461149090613613565b80601f01602080910402602001604051908101604052809291908181526020018280546114bc90613613565b80156115095780601f106114de57610100808354040283529160200191611509565b820191906000526020600020905b8154815290600101906020018083116114ec57829003601f168201915b505050505081526020016004820154815260200160058201805461152c90613613565b80601f016020809104026020016040519081016040528092919081815260200182805461155890613613565b80156115a55780601f1061157a576101008083540402835291602001916115a5565b820191906000526020600020905b81548152906001019060200180831161158857829003601f168201915b505050505081526020016006820180546115be90613613565b80601f01602080910402602001604051908101604052809291908181526020018280546115ea90613613565b80156116375780601f1061160c57610100808354040283529160200191611637565b820191906000526020600020905b81548152906001019060200180831161161a57829003601f168201915b5050505050815260200160078201805461165090613613565b80601f016020809104026020016040519081016040528092919081815260200182805461167c90613613565b80156116c95780601f1061169e576101008083540402835291602001916116c9565b820191906000526020600020905b8154815290600101906020018083116116ac57829003601f168201915b505050505081526020016008820180546116e290613613565b80601f016020809104026020016040519081016040528092919081815260200182805461170e90613613565b801561175b5780601f106117305761010080835404028352916020019161175b565b820191906000526020600020905b81548152906001019060200180831161173e57829003601f168201915b5050505050815260200160098201548152602001600a8201548152602001600b8201805461178890613613565b80601f01602080910402602001604051908101604052809291908181526020018280546117b490613613565b80156118015780601f106117d657610100808354040283529160200191611801565b820191906000526020600020905b8154815290600101906020018083116117e457829003601f168201915b50505050508152602001600c8201805461181a90613613565b80601f016020809104026020016040519081016040528092919081815260200182805461184690613613565b80156118935780601f1061186857610100808354040283529160200191611893565b820191906000526020600020905b81548152906001019060200180831161187657829003601f168201915b5050509183525050600d919091015460ff16151560209091015282518390839081106118c1576118c161379a565b60200260200101819052505b806118d781613768565b915050611390565b50919050565b60056020526000908152604090208054600182015460028301805492936001600160a01b039092169261191790613613565b80601f016020809104026020016040519081016040528092919081815260200182805461194390613613565b80156119905780601f1061196557610100808354040283529160200191611990565b820191906000526020600020905b81548152906001019060200180831161197357829003601f168201915b5050505050908060030180546119a590613613565b80601f01602080910402602001604051908101604052809291908181526020018280546119d190613613565b8015611a1e5780601f106119f357610100808354040283529160200191611a1e565b820191906000526020600020905b815481529060010190602001808311611a0157829003601f168201915b505050505090806004015490806005018054611a3990613613565b80601f0160208091040260200160405190810160405280929190818152602001828054611a6590613613565b8015611ab25780601f10611a8757610100808354040283529160200191611ab2565b820191906000526020600020905b815481529060010190602001808311611a9557829003601f168201915b505050505090806006018054611ac790613613565b80601f0160208091040260200160405190810160405280929190818152602001828054611af390613613565b8015611b405780601f10611b1557610100808354040283529160200191611b40565b820191906000526020600020905b815481529060010190602001808311611b2357829003601f168201915b505050505090806007018054611b5590613613565b80601f0160208091040260200160405190810160405280929190818152602001828054611b8190613613565b8015611bce5780601f10611ba357610100808354040283529160200191611bce565b820191906000526020600020905b815481529060010190602001808311611bb157829003601f168201915b505050505090806008018054611be390613613565b80601f0160208091040260200160405190810160405280929190818152602001828054611c0f90613613565b8015611c5c5780601f10611c3157610100808354040283529160200191611c5c565b820191906000526020600020905b815481529060010190602001808311611c3f57829003601f168201915b50505050509080600901549080600a01549080600b018054611c7d90613613565b80601f0160208091040260200160405190810160405280929190818152602001828054611ca990613613565b8015611cf65780601f10611ccb57610100808354040283529160200191611cf6565b820191906000526020600020905b815481529060010190602001808311611cd957829003601f168201915b50505050509080600c018054611d0b90613613565b80601f0160208091040260200160405190810160405280929190818152602001828054611d3790613613565b8015611d845780601f10611d5957610100808354040283529160200191611d84565b820191906000526020600020905b815481529060010190602001808311611d6757829003601f168201915b505050600d909301549192505060ff168e565b6000546001600160a01b03163314611dc15760405162461bcd60e51b815260040161050b906135b6565b60008481526006602052604090206004015460ff16611e345760405162461bcd60e51b815260206004820152602960248201527f4365207479706520646520636f6d6d65726365206e276573742070617320656e6044820152683932b3b4b9ba39329760b91b606482015260840161050b565b600084815260066020526040902060018101611e508582613692565b506002810183905560038101611e668382613692565b505050505050565b6000546001600160a01b03163314611e985760405162461bcd60e51b815260040161050b906135b6565b6001600160a01b03861660009081526001602052604090205460ff1615611f015760405162461bcd60e51b815260206004820152601e60248201527f436574206167656e74206573742064656a6120656e72656769737472652e0000604482015260640161050b565b6040805161010081018252600c805482526001600160a01b0389811660208085018281528587018c8152606087018c9052608087018b905260a087018a905260c08701899052600160e088018190526000948552808452888520805460ff1916821790559554845260049092529590912084518155945192850180546001600160a01b0319169390921692909217905551909182916002820190611fa59082613692565b5060608201516003820190611fba9082613692565b5060808201516004820190611fcf9082613692565b5060a08201516005820190611fe49082613692565b5060c0820151600682015560e0909101516007909101805460ff191691151591909117905560088054600181018255600082905282517ff3f7a9fe364faab93b216da50a3214154f22a0a2b415b23a84c8169e8b636ee39190920290810191825560208301517ff3f7a9fe364faab93b216da50a3214154f22a0a2b415b23a84c8169e8b636ee4820180546001600160a01b0319166001600160a01b0390921691909117905560408301518392917ff3f7a9fe364faab93b216da50a3214154f22a0a2b415b23a84c8169e8b636ee501906120bf9082613692565b50606082015160038201906120d49082613692565b50608082015160048201906120e99082613692565b5060a082015160058201906120fe9082613692565b5060c0820151600682015560e0909101516007909101805460ff1916911515919091179055600c805490600061213383613768565b919050555050505050505050565b6000546001600160a01b0316331461216b5760405162461bcd60e51b815260040161050b906135b6565b6040805160a081018252600b5480825260208083018781528385018790526060840186905260016080850181905260009384526006909252939091208251815592519192839290918201906121c09082613692565b5060408201516002820155606082015160038201906121df9082613692565b50608091909101516004909101805460ff1916911515919091179055600b805490600061220b83613768565b919050555050505050565b6000546001600160a01b031633146122405760405162461bcd60e51b815260040161050b906135b6565b60005b600c5481101561098c576000818152600460205260409020600101546001600160a01b039081169083160361228e576000908152600460205260409020600701805460ff1916905550565b8061229881613768565b915050612243565b600881815481106122b057600080fd5b60009182526020909120600890910201805460018201546002830180549294506001600160a01b039091169291610d6390613613565b60606000600c5467ffffffffffffffff81111561230557612305612b3d565b60405190808252806020026020018201604052801561238957816020015b6123766040518061010001604052806000815260200160006001600160a01b0316815260200160608152602001606081526020016060815260200160608152602001600081526020016000151581525090565b8152602001906001900390816123235790505b50905060005b600c548110156118df5760008181526004602052604090206007015460ff1615612670576000818152600460209081526040918290208251610100810184528154815260018201546001600160a01b03169281019290925260028101805492939192918401916123fe90613613565b80601f016020809104026020016040519081016040528092919081815260200182805461242a90613613565b80156124775780601f1061244c57610100808354040283529160200191612477565b820191906000526020600020905b81548152906001019060200180831161245a57829003601f168201915b5050505050815260200160038201805461249090613613565b80601f01602080910402602001604051908101604052809291908181526020018280546124bc90613613565b80156125095780601f106124de57610100808354040283529160200191612509565b820191906000526020600020905b8154815290600101906020018083116124ec57829003601f168201915b5050505050815260200160048201805461252290613613565b80601f016020809104026020016040519081016040528092919081815260200182805461254e90613613565b801561259b5780601f106125705761010080835404028352916020019161259b565b820191906000526020600020905b81548152906001019060200180831161257e57829003601f168201915b505050505081526020016005820180546125b490613613565b80601f01602080910402602001604051908101604052809291908181526020018280546125e090613613565b801561262d5780601f106126025761010080835404028352916020019161262d565b820191906000526020600020905b81548152906001019060200180831161261057829003601f168201915b50505091835250506006820154602082015260079091015460ff16151560409091015282518390839081106126645761266461379a565b60200260200101819052505b8061267a81613768565b91505061238f565b6000546001600160a01b031633146126ac5760405162461bcd60e51b815260040161050b906135b6565b6001600160a01b03861660009081526001602052604090205460ff166127145760405162461bcd60e51b815260206004820152601f60248201527f436574206167656e74206e276573742070617320656e72656769737472652e00604482015260640161050b565b60005b600c548110156127d9576000818152600460205260409020600101546001600160a01b03908116908816036127c75760008181526004602052604090206001810180546001600160a01b0319166001600160a01b038a161790556002810161277f8882613692565b506003810161278e8782613692565b506004810161279d8682613692565b50600581016127ac8582613692565b5060068101839055600701805460ff191660011790556127d9565b806127d181613768565b915050612717565b50505050505050565b6000546001600160a01b0316331461280c5760405162461bcd60e51b815260040161050b906135b6565b60008181526006602052604090206004015460ff1661287f5760405162461bcd60e51b815260206004820152602960248201527f4365207479706520646520636f6d6d65726365206e276573742070617320656e6044820152683932b3b4b9ba39329760b91b606482015260840161050b565b600081815260066020526040812060048101805460ff19169055818155906128aa6001830182612ad0565b60028201600090556003820160006128c29190612ad0565b50600401805460ff1916905550565b3360009081526001602052604090205460ff166129565760405162461bcd60e51b815260206004820152603060248201527f5365756c73206c6573206167656e74732070657576656e74206566666563747560448201527f657220636574746520616374696f6e2e00000000000000000000000000000000606482015260840161050b565b60008281526007602052604090206005015460ff16156129de5760405162461bcd60e51b815260206004820152602e60248201527f556e6520706174656e746520612064656a612065746520706179656520706f7560448201527f7220636574746520616e6e65652e000000000000000000000000000000000000606482015260840161050b565b6000828152600560209081526040808320600481015480855260069093529083206002810154600a8084015493959293919291612a1b91906137b0565b9050612a286004836137b0565b811015612a3d57612a3a6004836137b0565b90505b6040805160c081018252600d805480835260208084018c815284860188815260608601888152608087018e8152600060a0890181815296815260079095529784208751815592516001840155905160028301555160038201559451600486015590516005909401805460ff19169415159490941790935580549192612ac183613768565b91905055505050505050505050565b508054612adc90613613565b6000825580601f10612aec575050565b601f016020900490600052602060002090810190612b0a9190612b0d565b50565b5b80821115612b225760008155600101612b0e565b5090565b80356001600160a01b038116811461108857600080fd5b634e487b7160e01b600052604160045260246000fd5b600082601f830112612b6457600080fd5b813567ffffffffffffffff80821115612b7f57612b7f612b3d565b604051601f8301601f19908116603f01168101908282118183101715612ba757612ba7612b3d565b81604052838152866020858801011115612bc057600080fd5b836020870160208301376000602085830101528094505050505092915050565b6000806000806000806000806000806101408b8d031215612c0057600080fd5b612c098b612b26565b995060208b013567ffffffffffffffff80821115612c2657600080fd5b612c328e838f01612b53565b9a5060408d0135995060608d0135915080821115612c4f57600080fd5b612c5b8e838f01612b53565b985060808d0135915080821115612c7157600080fd5b612c7d8e838f01612b53565b975060a08d0135915080821115612c9357600080fd5b612c9f8e838f01612b53565b965060c08d0135915080821115612cb557600080fd5b612cc18e838f01612b53565b955060e08d013594506101008d0135915080821115612cdf57600080fd5b50612cec8d828e01612b53565b9250506101208b013590509295989b9194979a5092959850565b6000806000806000806000806000806000806101808d8f031215612d2957600080fd5b612d328d612b26565b9b5067ffffffffffffffff60208e01351115612d4d57600080fd5b612d5d8e60208f01358f01612b53565b9a5067ffffffffffffffff60408e01351115612d7857600080fd5b612d888e60408f01358f01612b53565b995060608d0135985067ffffffffffffffff60808e01351115612daa57600080fd5b612dba8e60808f01358f01612b53565b975067ffffffffffffffff60a08e01351115612dd557600080fd5b612de58e60a08f01358f01612b53565b965067ffffffffffffffff60c08e01351115612e0057600080fd5b612e108e60c08f01358f01612b53565b955067ffffffffffffffff60e08e01351115612e2b57600080fd5b612e3b8e60e08f01358f01612b53565b94506101008d0135935067ffffffffffffffff6101208e01351115612e5f57600080fd5b612e708e6101208f01358f01612b53565b925067ffffffffffffffff6101408e01351115612e8c57600080fd5b612e9d8e6101408f01358f01612b53565b91506101608d013590509295989b509295989b509295989b565b600060208284031215612ec957600080fd5b612ed282612b26565b9392505050565b6000815180845260005b81811015612eff57602081850181015186830182015201612ee3565b506000602082860101526020601f19601f83011685010191505092915050565b87815260e060208201526000612f3860e0830189612ed9565b8281036040840152612f4a8189612ed9565b90508281036060840152612f5e8188612ed9565b90508281036080840152612f728187612ed9565b60a0840195909552505090151560c09091015295945050505050565b600060208284031215612fa057600080fd5b5035919050565b85815260a060208201526000612fc060a0830187612ed9565b8560408401528281036060840152612fd88186612ed9565b91505082151560808301529695505050505050565b60006101008a83526001600160a01b038a1660208401528060408401526130168184018a612ed9565b9050828103606084015261302a8189612ed9565b9050828103608084015261303e8188612ed9565b905082810360a08401526130528187612ed9565b60c0840195909552505090151560e0909101529695505050505050565b602081526000612ed26020830184612ed9565b6000806040838503121561309557600080fd5b50508035926020909101359150565b60006020808301818452808551808352604092508286019150828160051b87010184880160005b8381101561321d57603f19898403018552815180518452878101516001600160a01b031688850152868101516101c08886018190529061310d82870182612ed9565b915050606080830151868303828801526131278382612ed9565b92505050608080830151818701525060a0808301518683038288015261314d8382612ed9565b9250505060c080830151868303828801526131688382612ed9565b9250505060e080830151868303828801526131838382612ed9565b92505050610100808301518683038288015261319f8382612ed9565b9250505061012080830151818701525061014080830151818701525061016080830151868303828801526131d38382612ed9565b9250505061018080830151868303828801526131ef8382612ed9565b925050506101a08083015192506132098187018415159052565b5095880195935050908601906001016130cb565b509098975050505050505050565b8e81526001600160a01b038e1660208201526101c0604082015260006132556101c083018f612ed9565b8281036060840152613267818f612ed9565b90508c608084015282810360a0840152613281818d612ed9565b905082810360c0840152613295818c612ed9565b905082810360e08401526132a9818b612ed9565b90508281036101008401526132be818a612ed9565b905087610120840152866101408401528281036101608401526132e18187612ed9565b90508281036101808401526132f68186612ed9565b9150506133086101a083018415159052565b9f9e505050505050505050505050505050565b6000806000806080858703121561333157600080fd5b84359350602085013567ffffffffffffffff8082111561335057600080fd5b61335c88838901612b53565b945060408701359350606087013591508082111561337957600080fd5b5061338687828801612b53565b91505092959194509250565b60008060008060008060c087890312156133ab57600080fd5b6133b487612b26565b9550602087013567ffffffffffffffff808211156133d157600080fd5b6133dd8a838b01612b53565b965060408901359150808211156133f357600080fd5b6133ff8a838b01612b53565b9550606089013591508082111561341557600080fd5b6134218a838b01612b53565b9450608089013591508082111561343757600080fd5b5061344489828a01612b53565b92505060a087013590509295509295509295565b60008060006060848603121561346d57600080fd5b833567ffffffffffffffff8082111561348557600080fd5b61349187838801612b53565b94506020860135935060408601359150808211156134ae57600080fd5b506134bb86828701612b53565b9150509250925092565b60006020808301818452808551808352604092508286019150828160051b87010184880160005b8381101561321d57603f19898403018552815180518452878101516001600160a01b031688850152868101516101008886018190529061352e82870182612ed9565b915050606080830151868303828801526135488382612ed9565b92505050608080830151868303828801526135638382612ed9565b9250505060a0808301518683038288015261357e8382612ed9565b9250505060c080830151818701525060e08083015192506135a28187018415159052565b5095880195935050908601906001016134ec565b60208082526032908201527f5365756c206c2761646d696e697374726174657572207065757420656666656360408201527f7475657220636574746520616374696f6e2e0000000000000000000000000000606082015260800190565b600181811c9082168061362757607f821691505b6020821081036118df57634e487b7160e01b600052602260045260246000fd5b601f82111561368d57600081815260208120601f850160051c8101602086101561366e5750805b601f850160051c820191505b81811015611e665782815560010161367a565b505050565b815167ffffffffffffffff8111156136ac576136ac612b3d565b6136c0816136ba8454613613565b84613647565b602080601f8311600181146136f557600084156136dd5750858301515b600019600386901b1c1916600185901b178555611e66565b600085815260208120601f198616915b8281101561372457888601518255948401946001909101908401613705565b50858210156137425787850151600019600388901b60f8161c191681555b5050505050600190811b01905550565b634e487b7160e01b600052601160045260246000fd5b60006001820161377a5761377a613752565b5060010190565b8082018082111561379457613794613752565b92915050565b634e487b7160e01b600052603260045260246000fd5b6000826137cd57634e487b7160e01b600052601260045260246000fd5b50049056fea26469706673582212203a0f5bbf2499aab5a5422bf983f921be42128f57d62fca0f5aeee4b02d5428f964736f6c63430008130033",
  "immutableReferences": {},
  "source": "// SPDX-License-Identifier: MIT\npragma solidity >=0.4.22 <0.9.0;\n\n// // Contrat pour la gestion des taxes\n\ncontract TaxManagement {\n\n\n\n  // event AgentAjoute(uint id, address indexed agentAddress, string nom, string prenom, string adresse, string email, uint256 telephone, bool estEnregister);\n  // event ContribuableAjoute(uint id, address indexed contribuableAddress, string nom, string prenom, string adresse, string email, uint256 telephone,bool estEnregister);\n  // event CommerceAjoute(uint id, string nom, string adresse, address indexed contribuableAddress, uint valeurLocative, uint activitePrincipaleId, address indexed agentAddress, bool estEnregister);\n  event patentePayer(uint id,uint contribuableId, uint droitFixe, uint droitProportionnelle, uint annePaiement, uint sommePayee, bool estPayee ); \n    address public admin;\n    \n    mapping(address => bool) public estAgent;\n    mapping(address => bool) public estContribuable;\n    mapping(address => Admin) public admins;\n    mapping(uint => Agent) public agents;\n    mapping(uint => Contribuable) public contribuables;\n    // mapping(uint => Commerce) public commerces;\n    mapping(uint => ActivitePrincipale) public activitePrincipale;\n    mapping(uint => Patente) public patentes;\n    Agent[] public allAgents;\n   \n    uint public contribuableCount = 10000;\n    uint public commerceCount = 0;\n    uint public activitePrincipaleCount = 0;\n    uint public agentCount = 0; \n    uint public patentesCount= 0; \n\n    uint public currentYear = 2023; \n\n    struct Admin {\n        uint id;\n        string nom;\n        string prenom;\n        string adresse;\n        string email;\n        uint telephone;\n        bool estEnregistre;\n    }\n    \n    struct Agent {\n        uint id;\n        address ethAddress; // Adresse Ethereum de l'agent\n        string nom;\n        string prenom;\n        string adresse;\n        string email;\n        uint telephone;\n        bool estEnregistre;\n    }\n    \n    struct Contribuable {\n        uint id; \n        address ethAddress; // Adresse Ethereum du contribuable\n        string nif;\n        string denomination;\n        uint activitePrincipaleId;\n        string nom;\n        string prenom;\n        string adresse;\n        string email;\n        uint contact;\n        uint valeurLocative; \n        string typeContribuable;\n        string dateCreation; \n        bool estEnregistre;\n    }\n    \n    // struct Commerce {\n    //     uint id;\n    //     string nom;\n    //     string adresse;\n    //     address contribuableAddress; // Adresse Ethereum du contribuable qui ajoute le commerce\n    //     uint valeurLocative;\n    //     uint activitePrincipale;\n    //     address agentAddress; // Adresse Ethereum de l'agent qui ajoute le commerce\n    //     bool estEnregistre;\n    // }\n    \n    struct ActivitePrincipale {\n        uint id;\n        string nom;\n        uint droitFixeAnnuel;\n        string description; \n        bool estEnregistre;\n    }\n\n    struct Patente {\n    uint id;\n    uint contribuableId;\n    uint droitFixe;\n    uint droitProportionnel;\n    uint anneePaiement;\n    bool estPayee;\n}\n\n    \n    constructor() {\n        admin = msg.sender;\n    }\n    \n    modifier seulementAdmin() {\n        require(msg.sender == admin, \"Seul l'administrateur peut effectuer cette action.\");\n        _;\n    }\n    \n    modifier seulementAgent() {\n        require(estAgent[msg.sender], \"Seuls les agents peuvent effectuer cette action.\");\n        _;\n    }\n    \n    modifier seulementContribuable() {\n        require(estContribuable[msg.sender], \"Seuls les contribuables peuvent effectuer cette action.\");\n        _;\n    }\n    \n    function ajouterAgent(address _ethAddress, string memory _nom, string memory _prenom, string memory _adresse, string memory _email, uint _telephone) public seulementAdmin {\n        require(!estAgent[_ethAddress], \"Cet agent est deja enregistre.\");\n        \n        Agent memory nouvelAgent = Agent({\n            id: agentCount,\n            ethAddress: _ethAddress,\n            nom: _nom,\n            prenom: _prenom,\n            adresse: _adresse,\n            email: _email,\n            telephone: _telephone,\n            estEnregistre: true\n        });\n        \n        estAgent[_ethAddress] = true;\n        agents[agentCount] = nouvelAgent;\n        allAgents.push(nouvelAgent); \n            // emit AgentAjoute(agentCount, _ethAddress, _nom, _prenom, _adresse, _email, _telephone, true);\n        agentCount++;\n    }\n\n    \n    function ajouterContribuable(address  _ethAddress, string memory _nif,string memory _denomination,uint  _activitePrincipaleId,   string memory _nom, string memory _prenom, string memory _adresse, string memory _email, uint _contact, string memory _typeContribuable, string memory _dateCreation, uint  _valeurLocative) public seulementAdmin {\n        require(!estContribuable[_ethAddress], \"Ce contribuable est deja enregistre.\");\n        \n        Contribuable memory nouveauContribuable = Contribuable({\n            id: contribuableCount,\n            ethAddress: _ethAddress,\n            nif : _nif, \n            denomination: _denomination, \n            activitePrincipaleId: _activitePrincipaleId, \n            nom: _nom,\n            prenom: _prenom,\n            adresse: _adresse,\n            email: _email,\n            contact: _contact,\n            valeurLocative : _valeurLocative,\n            typeContribuable : _typeContribuable, \n            dateCreation : _dateCreation,  \n            estEnregistre: true\n        });\n        estContribuable[_ethAddress] = true;\n        contribuables[contribuableCount] = nouveauContribuable;\n            // emit ContribuableAjoute(contribuableCount, _ethAddress, _nom, _prenom, _adresse, _email, _telephone, true);\n        contribuableCount++;\n\n    }\n    \n\n    \n    function ajouterActivitePrincipale( string memory _nom, uint _droitFixeAnnuel, string memory _description) public seulementAdmin {\n        ActivitePrincipale memory nouveauActivitePrincipale = ActivitePrincipale({\n            id: activitePrincipaleCount,\n            nom: _nom,\n            droitFixeAnnuel: _droitFixeAnnuel,\n            description: _description,\n            estEnregistre: true\n        });\n        \n        activitePrincipale[activitePrincipaleCount] = nouveauActivitePrincipale;\n    //  emit ActivitePrincipaleAjoute(activitePrincipaleCount, _nom, _droitFixeAnnuel, _description, true);\n    activitePrincipaleCount++;\n    }\n\n    function creerPatente(uint contribuableId, uint anneePaiement) public seulementAgent() {\n    require(!patentes[contribuableId].estPayee, \"Une patente a deja ete payee pour cette annee.\");\n    \n    // Recuperer le contribuable correspondant\n    Contribuable storage contribuable = contribuables[contribuableId];\n    \n    // Recuperer le type de contribuable correspondant\n    uint activiteId = contribuable.activitePrincipaleId;\n    ActivitePrincipale storage activite = activitePrincipale[activiteId];\n    \n    // Calculer le droit fixe et le droit proportionnel\n    uint droitFixe = activite.droitFixeAnnuel;\n    uint droitProportionnel = contribuable.valeurLocative / 10 ;\n    \n    // Verifier que le droit proportionnel est superieur ou egal a un quart du droit fixe\n    if (droitProportionnel < (droitFixe / 4)) {\n        droitProportionnel = (droitFixe / 4);\n    }\n    \n    // Creer la patente\n    Patente memory nouvellePatente = Patente({\n        id: patentesCount,\n        contribuableId: contribuableId,\n        droitFixe: droitFixe,\n        droitProportionnel: droitProportionnel,\n        anneePaiement: anneePaiement,\n        estPayee: false\n    });\n    patentes[patentesCount] = nouvellePatente;\n    patentesCount++;\n    \n    // Stocker l'ID de la patente dans le contribuable correspondant\n    // contribuable.patenteId = nouvellePatente.id;\n}\nfunction payerPatente(uint patenteId, uint sommePayee) public seulementContribuable {\n    require(!patentes[patenteId].estPayee, \"Cette patente a deja ete payee.\");\n    \n    // Mettre  jour la proprit estPayee de la patente\n    if (sommePayee >= (patentes[patenteId].droitProportionnel + patentes[patenteId].droitFixe)) {\n      \n      patentes[patenteId].estPayee = true;\n      emit patentePayer(patenteId, patentes[patenteId].contribuableId, patentes[patenteId].droitFixe, patentes[patenteId].droitProportionnel, patentes[patenteId].anneePaiement, sommePayee, true);\n\n    } else {\n      \n      emit patentePayer(patenteId, patentes[patenteId].contribuableId, patentes[patenteId].droitFixe, patentes[patenteId].droitProportionnel, patentes[patenteId].anneePaiement, sommePayee, false);\n\n    }\n    \n    // Envoyer les fonds vers le service des impots\n    // Mettre  jour l'anne de paiement de la patente\n    // patentes[patenteId].anneePaiement = 2024; // Mettre l'anne de paiement suivante ici\n}\n\n\n    function getTypeUtilisateur(address _adresse) public view returns (string memory) {\n        if (estAgent[_adresse]) {\n            return \"Agent\";\n        } else if (estContribuable[_adresse]) {\n            return \"Contribuable\";\n        } else if (_adresse == admin) {\n            return \"Admin\";\n        } else {\n            return \"Inconnu\";\n        }\n    }\n\nfunction supprimerAgent(address _ethAddress) public seulementAdmin {\n    \n    for (uint index = 0; index < agentCount; index++) {\n        if(_ethAddress == agents[index].ethAddress){\n            agents[index].estEnregistre = false; \n            break;\n        }\n    }\n}\nfunction supprimerContribuable(address _ethAddress) public seulementAdmin {\n   for (uint index = 10000; index < contribuableCount; index++) {\n          if(_ethAddress == contribuables[index].ethAddress){\n            contribuables[index].estEnregistre = false;\n        }\n    }\n}\nfunction modifierAgent(address _ethAddress, string memory _nom, string memory _prenom, string memory _adresse, string memory _email, uint _telephone) public seulementAdmin {\n    require(estAgent[_ethAddress], \"Cet agent n'est pas enregistre.\");\n        \n\n    for (uint index = 0; index < agentCount; index++) {\n        if(_ethAddress == agents[index].ethAddress){\n            // agents[index].estEnregistre = false; \n            Agent storage agent = agents[index]; \n            agent.id = agents[index].id; \n            agent.ethAddress = _ethAddress; \n            agent.nom = _nom;\n            agent.prenom = _prenom;\n            agent.adresse = _adresse;\n            agent.email = _email;\n            agent.telephone = _telephone;\n            agent.estEnregistre = true; \n            break;\n        }\n    }\n   \n}\nfunction modifierContribuable(address _ethAddress,string memory _denomination,uint _activitePrincipaleId, string memory _nom, string memory _prenom, string memory _adresse, string memory _email, uint _contact,string memory _typeContribuable,  uint _valeurLocative) public seulementAdmin {\n    require(estContribuable[_ethAddress], \"Ce contribuable n'est pas enregistre.\");\n   for (uint index = 10000; index < contribuableCount; index++) {\n    if(_ethAddress == contribuables[index].ethAddress){\n    Contribuable storage contribuable = contribuables[index];\n    contribuable.nom = _nom;\n    contribuable.prenom = _prenom;\n    contribuable.adresse = _adresse;\n    contribuable.email = _email;\n    contribuable.contact = _contact;\n    contribuable.valeurLocative = _valeurLocative; \n    contribuable.activitePrincipaleId= _activitePrincipaleId; \n    contribuable.denomination = _denomination;\n    contribuable.typeContribuable = _typeContribuable;\n    }\n   }\n}\nfunction supprimerActivitePrincipale(uint _id) public seulementAdmin {\n    require(activitePrincipale[_id].estEnregistre, \"Ce type de commerce n'est pas enregistre.\");\n    activitePrincipale[_id].estEnregistre = false;\n    delete activitePrincipale[_id];\n}\nfunction modifierActivitePrincipale(uint _id, string memory _nom, uint _droitFixeAnnuel, string memory _description) public seulementAdmin {\n    require(activitePrincipale[_id].estEnregistre, \"Ce type de commerce n'est pas enregistre.\");\n    ActivitePrincipale storage typeC = activitePrincipale[_id];\n    typeC.nom = _nom;\n    typeC.droitFixeAnnuel = _droitFixeAnnuel;\n    typeC.description = _description;\n}\n\n\nfunction getAgents() public view returns (Agent[] memory) {\n    Agent[] memory agentsList = new Agent[](agentCount);\n    for (uint i = 0; i < agentCount; i++) {\n        if(agents[i].estEnregistre){\n        agentsList[i] = agents[i];}\n    }\n    return agentsList;\n}\n\nfunction getContribuables() public view returns (Contribuable[] memory) {\n    Contribuable[] memory contribuablesList = new Contribuable[](contribuableCount);\n    for (uint i = 10000; i <= contribuableCount; i++) {\n        if(contribuables[i].estEnregistre){\n        contribuablesList[i] = contribuables[i];}\n    }\n    return contribuablesList;\n}\n\n}\n",
  "sourcePath": "D:\\PFE\\pfe_block\\smartContracts\\contracts\\TaxManagement.sol",
  "compiler": {
    "name": "solc",
    "version": "0.8.19+commit.7dd6d404.Emscripten.clang"
  },
  "schemaVersion": "3.4.15",
  "updatedAt": "2023-10-20T14:42:20.251Z",
  "networkType": "ethereum",
  "devdoc": {
    "kind": "dev",
    "methods": {},
    "version": 1
  },
  "userdoc": {
    "kind": "user",
    "methods": {},
    "version": 1
  }
}