{
  "contractName": "TaxManagement",
  "abi": [
    {
      "inputs": [],
      "stateMutability": "nonpayable",
      "type": "constructor"
    },
    {
      "anonymous": false,
      "inputs": [
        {
          "indexed": false,
          "internalType": "uint256",
          "name": "id",
          "type": "uint256"
        },
        {
          "indexed": false,
          "internalType": "uint256",
          "name": "contribuableId",
          "type": "uint256"
        },
        {
          "indexed": false,
          "internalType": "uint256",
          "name": "droitFixe",
          "type": "uint256"
        },
        {
          "indexed": false,
          "internalType": "uint256",
          "name": "droitProportionnelle",
          "type": "uint256"
        },
        {
          "indexed": false,
          "internalType": "uint256",
          "name": "annePaiement",
          "type": "uint256"
        },
        {
          "indexed": false,
          "internalType": "uint256",
          "name": "sommePayee",
          "type": "uint256"
        },
        {
          "indexed": false,
          "internalType": "bool",
          "name": "estPayee",
          "type": "bool"
        }
      ],
      "name": "patentePayer",
      "type": "event"
    },
    {
      "inputs": [
        {
          "internalType": "uint256",
          "name": "",
          "type": "uint256"
        }
      ],
      "name": "activitePrincipale",
      "outputs": [
        {
          "internalType": "uint256",
          "name": "id",
          "type": "uint256"
        },
        {
          "internalType": "string",
          "name": "nom",
          "type": "string"
        },
        {
          "internalType": "uint256",
          "name": "droitFixeAnnuel",
          "type": "uint256"
        },
        {
          "internalType": "string",
          "name": "description",
          "type": "string"
        },
        {
          "internalType": "bool",
          "name": "estEnregistre",
          "type": "bool"
        }
      ],
      "stateMutability": "view",
      "type": "function",
      "constant": true
    },
    {
      "inputs": [],
      "name": "activitePrincipaleCount",
      "outputs": [
        {
          "internalType": "uint256",
          "name": "",
          "type": "uint256"
        }
      ],
      "stateMutability": "view",
      "type": "function",
      "constant": true
    },
    {
      "inputs": [],
      "name": "admin",
      "outputs": [
        {
          "internalType": "address",
          "name": "",
          "type": "address"
        }
      ],
      "stateMutability": "view",
      "type": "function",
      "constant": true
    },
    {
      "inputs": [
        {
          "internalType": "address",
          "name": "",
          "type": "address"
        }
      ],
      "name": "admins",
      "outputs": [
        {
          "internalType": "uint256",
          "name": "id",
          "type": "uint256"
        },
        {
          "internalType": "string",
          "name": "nom",
          "type": "string"
        },
        {
          "internalType": "string",
          "name": "prenom",
          "type": "string"
        },
        {
          "internalType": "string",
          "name": "adresse",
          "type": "string"
        },
        {
          "internalType": "string",
          "name": "email",
          "type": "string"
        },
        {
          "internalType": "uint256",
          "name": "telephone",
          "type": "uint256"
        },
        {
          "internalType": "bool",
          "name": "estEnregistre",
          "type": "bool"
        }
      ],
      "stateMutability": "view",
      "type": "function",
      "constant": true
    },
    {
      "inputs": [],
      "name": "agentCount",
      "outputs": [
        {
          "internalType": "uint256",
          "name": "",
          "type": "uint256"
        }
      ],
      "stateMutability": "view",
      "type": "function",
      "constant": true
    },
    {
      "inputs": [
        {
          "internalType": "uint256",
          "name": "",
          "type": "uint256"
        }
      ],
      "name": "agents",
      "outputs": [
        {
          "internalType": "uint256",
          "name": "id",
          "type": "uint256"
        },
        {
          "internalType": "address",
          "name": "ethAddress",
          "type": "address"
        },
        {
          "internalType": "string",
          "name": "nom",
          "type": "string"
        },
        {
          "internalType": "string",
          "name": "prenom",
          "type": "string"
        },
        {
          "internalType": "string",
          "name": "adresse",
          "type": "string"
        },
        {
          "internalType": "string",
          "name": "email",
          "type": "string"
        },
        {
          "internalType": "uint256",
          "name": "telephone",
          "type": "uint256"
        },
        {
          "internalType": "bool",
          "name": "estEnregistre",
          "type": "bool"
        }
      ],
      "stateMutability": "view",
      "type": "function",
      "constant": true
    },
    {
      "inputs": [
        {
          "internalType": "uint256",
          "name": "",
          "type": "uint256"
        }
      ],
      "name": "allAgents",
      "outputs": [
        {
          "internalType": "uint256",
          "name": "id",
          "type": "uint256"
        },
        {
          "internalType": "address",
          "name": "ethAddress",
          "type": "address"
        },
        {
          "internalType": "string",
          "name": "nom",
          "type": "string"
        },
        {
          "internalType": "string",
          "name": "prenom",
          "type": "string"
        },
        {
          "internalType": "string",
          "name": "adresse",
          "type": "string"
        },
        {
          "internalType": "string",
          "name": "email",
          "type": "string"
        },
        {
          "internalType": "uint256",
          "name": "telephone",
          "type": "uint256"
        },
        {
          "internalType": "bool",
          "name": "estEnregistre",
          "type": "bool"
        }
      ],
      "stateMutability": "view",
      "type": "function",
      "constant": true
    },
    {
      "inputs": [],
      "name": "commerceCount",
      "outputs": [
        {
          "internalType": "uint256",
          "name": "",
          "type": "uint256"
        }
      ],
      "stateMutability": "view",
      "type": "function",
      "constant": true
    },
    {
      "inputs": [],
      "name": "contribuableCount",
      "outputs": [
        {
          "internalType": "uint256",
          "name": "",
          "type": "uint256"
        }
      ],
      "stateMutability": "view",
      "type": "function",
      "constant": true
    },
    {
      "inputs": [
        {
          "internalType": "uint256",
          "name": "",
          "type": "uint256"
        }
      ],
      "name": "contribuables",
      "outputs": [
        {
          "internalType": "uint256",
          "name": "id",
          "type": "uint256"
        },
        {
          "internalType": "address",
          "name": "ethAddress",
          "type": "address"
        },
        {
          "internalType": "string",
          "name": "nif",
          "type": "string"
        },
        {
          "internalType": "string",
          "name": "denomination",
          "type": "string"
        },
        {
          "internalType": "uint256",
          "name": "activitePrincipaleId",
          "type": "uint256"
        },
        {
          "internalType": "string",
          "name": "nom",
          "type": "string"
        },
        {
          "internalType": "string",
          "name": "prenom",
          "type": "string"
        },
        {
          "internalType": "string",
          "name": "adresse",
          "type": "string"
        },
        {
          "internalType": "string",
          "name": "email",
          "type": "string"
        },
        {
          "internalType": "uint256",
          "name": "contact",
          "type": "uint256"
        },
        {
          "internalType": "uint256",
          "name": "valeurLocative",
          "type": "uint256"
        },
        {
          "internalType": "string",
          "name": "typeContribuable",
          "type": "string"
        },
        {
          "internalType": "string",
          "name": "dateCreation",
          "type": "string"
        },
        {
          "internalType": "bool",
          "name": "estEnregistre",
          "type": "bool"
        }
      ],
      "stateMutability": "view",
      "type": "function",
      "constant": true
    },
    {
      "inputs": [],
      "name": "currentYear",
      "outputs": [
        {
          "internalType": "uint256",
          "name": "",
          "type": "uint256"
        }
      ],
      "stateMutability": "view",
      "type": "function",
      "constant": true
    },
    {
      "inputs": [
        {
          "internalType": "address",
          "name": "",
          "type": "address"
        }
      ],
      "name": "estAgent",
      "outputs": [
        {
          "internalType": "bool",
          "name": "",
          "type": "bool"
        }
      ],
      "stateMutability": "view",
      "type": "function",
      "constant": true
    },
    {
      "inputs": [
        {
          "internalType": "address",
          "name": "",
          "type": "address"
        }
      ],
      "name": "estContribuable",
      "outputs": [
        {
          "internalType": "bool",
          "name": "",
          "type": "bool"
        }
      ],
      "stateMutability": "view",
      "type": "function",
      "constant": true
    },
    {
      "inputs": [
        {
          "internalType": "uint256",
          "name": "",
          "type": "uint256"
        }
      ],
      "name": "patentes",
      "outputs": [
        {
          "internalType": "uint256",
          "name": "id",
          "type": "uint256"
        },
        {
          "internalType": "uint256",
          "name": "contribuableId",
          "type": "uint256"
        },
        {
          "internalType": "uint256",
          "name": "droitFixe",
          "type": "uint256"
        },
        {
          "internalType": "uint256",
          "name": "droitProportionnel",
          "type": "uint256"
        },
        {
          "internalType": "uint256",
          "name": "anneePaiement",
          "type": "uint256"
        },
        {
          "internalType": "bool",
          "name": "estPayee",
          "type": "bool"
        }
      ],
      "stateMutability": "view",
      "type": "function",
      "constant": true
    },
    {
      "inputs": [],
      "name": "patentesCount",
      "outputs": [
        {
          "internalType": "uint256",
          "name": "",
          "type": "uint256"
        }
      ],
      "stateMutability": "view",
      "type": "function",
      "constant": true
    },
    {
      "inputs": [
        {
          "internalType": "address",
          "name": "_ethAddress",
          "type": "address"
        },
        {
          "internalType": "string",
          "name": "_nom",
          "type": "string"
        },
        {
          "internalType": "string",
          "name": "_prenom",
          "type": "string"
        },
        {
          "internalType": "string",
          "name": "_adresse",
          "type": "string"
        },
        {
          "internalType": "string",
          "name": "_email",
          "type": "string"
        },
        {
          "internalType": "uint256",
          "name": "_telephone",
          "type": "uint256"
        }
      ],
      "name": "ajouterAgent",
      "outputs": [],
      "stateMutability": "nonpayable",
      "type": "function"
    },
    {
      "inputs": [
        {
          "internalType": "address",
          "name": "_ethAddress",
          "type": "address"
        },
        {
          "internalType": "string",
          "name": "_nif",
          "type": "string"
        },
        {
          "internalType": "string",
          "name": "_denomination",
          "type": "string"
        },
        {
          "internalType": "uint256",
          "name": "_activitePrincipaleId",
          "type": "uint256"
        },
        {
          "internalType": "string",
          "name": "_nom",
          "type": "string"
        },
        {
          "internalType": "string",
          "name": "_prenom",
          "type": "string"
        },
        {
          "internalType": "string",
          "name": "_adresse",
          "type": "string"
        },
        {
          "internalType": "string",
          "name": "_email",
          "type": "string"
        },
        {
          "internalType": "uint256",
          "name": "_contact",
          "type": "uint256"
        },
        {
          "internalType": "string",
          "name": "_typeContribuable",
          "type": "string"
        },
        {
          "internalType": "string",
          "name": "_dateCreation",
          "type": "string"
        },
        {
          "internalType": "uint256",
          "name": "_valeurLocative",
          "type": "uint256"
        }
      ],
      "name": "ajouterContribuable",
      "outputs": [],
      "stateMutability": "nonpayable",
      "type": "function"
    },
    {
      "inputs": [
        {
          "internalType": "string",
          "name": "_nom",
          "type": "string"
        },
        {
          "internalType": "uint256",
          "name": "_droitFixeAnnuel",
          "type": "uint256"
        },
        {
          "internalType": "string",
          "name": "_description",
          "type": "string"
        }
      ],
      "name": "ajouterActivitePrincipale",
      "outputs": [],
      "stateMutability": "nonpayable",
      "type": "function"
    },
    {
      "inputs": [
        {
          "internalType": "uint256",
          "name": "contribuableId",
          "type": "uint256"
        },
        {
          "internalType": "uint256",
          "name": "anneePaiement",
          "type": "uint256"
        }
      ],
      "name": "creerPatente",
      "outputs": [],
      "stateMutability": "nonpayable",
      "type": "function"
    },
    {
      "inputs": [
        {
          "internalType": "uint256",
          "name": "patenteId",
          "type": "uint256"
        },
        {
          "internalType": "uint256",
          "name": "sommePayee",
          "type": "uint256"
        }
      ],
      "name": "payerPatente",
      "outputs": [],
      "stateMutability": "nonpayable",
      "type": "function"
    },
    {
      "inputs": [
        {
          "internalType": "address",
          "name": "_adresse",
          "type": "address"
        }
      ],
      "name": "getTypeUtilisateur",
      "outputs": [
        {
          "internalType": "string",
          "name": "",
          "type": "string"
        }
      ],
      "stateMutability": "view",
      "type": "function",
      "constant": true
    },
    {
      "inputs": [
        {
          "internalType": "address",
          "name": "_ethAddress",
          "type": "address"
        }
      ],
      "name": "supprimerAgent",
      "outputs": [],
      "stateMutability": "nonpayable",
      "type": "function"
    },
    {
      "inputs": [
        {
          "internalType": "address",
          "name": "_ethAddress",
          "type": "address"
        }
      ],
      "name": "supprimerContribuable",
      "outputs": [],
      "stateMutability": "nonpayable",
      "type": "function"
    },
    {
      "inputs": [
        {
          "internalType": "address",
          "name": "_ethAddress",
          "type": "address"
        },
        {
          "internalType": "string",
          "name": "_nom",
          "type": "string"
        },
        {
          "internalType": "string",
          "name": "_prenom",
          "type": "string"
        },
        {
          "internalType": "string",
          "name": "_adresse",
          "type": "string"
        },
        {
          "internalType": "string",
          "name": "_email",
          "type": "string"
        },
        {
          "internalType": "uint256",
          "name": "_telephone",
          "type": "uint256"
        }
      ],
      "name": "modifierAgent",
      "outputs": [],
      "stateMutability": "nonpayable",
      "type": "function"
    },
    {
      "inputs": [
        {
          "internalType": "address",
          "name": "_ethAddress",
          "type": "address"
        },
        {
          "internalType": "string",
          "name": "_denomination",
          "type": "string"
        },
        {
          "internalType": "uint256",
          "name": "_activitePrincipaleId",
          "type": "uint256"
        },
        {
          "internalType": "string",
          "name": "_nom",
          "type": "string"
        },
        {
          "internalType": "string",
          "name": "_prenom",
          "type": "string"
        },
        {
          "internalType": "string",
          "name": "_adresse",
          "type": "string"
        },
        {
          "internalType": "string",
          "name": "_email",
          "type": "string"
        },
        {
          "internalType": "uint256",
          "name": "_contact",
          "type": "uint256"
        },
        {
          "internalType": "string",
          "name": "_typeContribuable",
          "type": "string"
        },
        {
          "internalType": "uint256",
          "name": "_valeurLocative",
          "type": "uint256"
        }
      ],
      "name": "modifierContribuable",
      "outputs": [],
      "stateMutability": "nonpayable",
      "type": "function"
    },
    {
      "inputs": [
        {
          "internalType": "uint256",
          "name": "_id",
          "type": "uint256"
        }
      ],
      "name": "supprimerActivitePrincipale",
      "outputs": [],
      "stateMutability": "nonpayable",
      "type": "function"
    },
    {
      "inputs": [
        {
          "internalType": "uint256",
          "name": "_id",
          "type": "uint256"
        },
        {
          "internalType": "string",
          "name": "_nom",
          "type": "string"
        },
        {
          "internalType": "uint256",
          "name": "_droitFixeAnnuel",
          "type": "uint256"
        },
        {
          "internalType": "string",
          "name": "_description",
          "type": "string"
        }
      ],
      "name": "modifierActivitePrincipale",
      "outputs": [],
      "stateMutability": "nonpayable",
      "type": "function"
    },
    {
      "inputs": [],
      "name": "getAgents",
      "outputs": [
        {
          "components": [
            {
              "internalType": "uint256",
              "name": "id",
              "type": "uint256"
            },
            {
              "internalType": "address",
              "name": "ethAddress",
              "type": "address"
            },
            {
              "internalType": "string",
              "name": "nom",
              "type": "string"
            },
            {
              "internalType": "string",
              "name": "prenom",
              "type": "string"
            },
            {
              "internalType": "string",
              "name": "adresse",
              "type": "string"
            },
            {
              "internalType": "string",
              "name": "email",
              "type": "string"
            },
            {
              "internalType": "uint256",
              "name": "telephone",
              "type": "uint256"
            },
            {
              "internalType": "bool",
              "name": "estEnregistre",
              "type": "bool"
            }
          ],
          "internalType": "struct TaxManagement.Agent[]",
          "name": "",
          "type": "tuple[]"
        }
      ],
      "stateMutability": "view",
      "type": "function",
      "constant": true
    },
    {
      "inputs": [],
      "name": "getContribuables",
      "outputs": [
        {
          "components": [
            {
              "internalType": "uint256",
              "name": "id",
              "type": "uint256"
            },
            {
              "internalType": "address",
              "name": "ethAddress",
              "type": "address"
            },
            {
              "internalType": "string",
              "name": "nif",
              "type": "string"
            },
            {
              "internalType": "string",
              "name": "denomination",
              "type": "string"
            },
            {
              "internalType": "uint256",
              "name": "activitePrincipaleId",
              "type": "uint256"
            },
            {
              "internalType": "string",
              "name": "nom",
              "type": "string"
            },
            {
              "internalType": "string",
              "name": "prenom",
              "type": "string"
            },
            {
              "internalType": "string",
              "name": "adresse",
              "type": "string"
            },
            {
              "internalType": "string",
              "name": "email",
              "type": "string"
            },
            {
              "internalType": "uint256",
              "name": "contact",
              "type": "uint256"
            },
            {
              "internalType": "uint256",
              "name": "valeurLocative",
              "type": "uint256"
            },
            {
              "internalType": "string",
              "name": "typeContribuable",
              "type": "string"
            },
            {
              "internalType": "string",
              "name": "dateCreation",
              "type": "string"
            },
            {
              "internalType": "bool",
              "name": "estEnregistre",
              "type": "bool"
            }
          ],
          "internalType": "struct TaxManagement.Contribuable[]",
          "name": "",
          "type": "tuple[]"
        }
      ],
      "stateMutability": "view",
      "type": "function",
      "constant": true
    },
    {
      "inputs": [],
      "name": "getPatentesPayer",
      "outputs": [
        {
          "components": [
            {
              "internalType": "uint256",
              "name": "id",
              "type": "uint256"
            },
            {
              "internalType": "uint256",
              "name": "contribuableId",
              "type": "uint256"
            },
            {
              "internalType": "uint256",
              "name": "droitFixe",
              "type": "uint256"
            },
            {
              "internalType": "uint256",
              "name": "droitProportionnel",
              "type": "uint256"
            },
            {
              "internalType": "uint256",
              "name": "anneePaiement",
              "type": "uint256"
            },
            {
              "internalType": "bool",
              "name": "estPayee",
              "type": "bool"
            }
          ],
          "internalType": "struct TaxManagement.Patente[]",
          "name": "",
          "type": "tuple[]"
        }
      ],
      "stateMutability": "view",
      "type": "function",
      "constant": true
    },
    {
      "inputs": [],
      "name": "getPatentesNonPayer",
      "outputs": [
        {
          "components": [
            {
              "internalType": "uint256",
              "name": "id",
              "type": "uint256"
            },
            {
              "internalType": "uint256",
              "name": "contribuableId",
              "type": "uint256"
            },
            {
              "internalType": "uint256",
              "name": "droitFixe",
              "type": "uint256"
            },
            {
              "internalType": "uint256",
              "name": "droitProportionnel",
              "type": "uint256"
            },
            {
              "internalType": "uint256",
              "name": "anneePaiement",
              "type": "uint256"
            },
            {
              "internalType": "bool",
              "name": "estPayee",
              "type": "bool"
            }
          ],
          "internalType": "struct TaxManagement.Patente[]",
          "name": "",
          "type": "tuple[]"
        }
      ],
      "stateMutability": "view",
      "type": "function",
      "constant": true
    },
    {
      "inputs": [],
      "name": "getActivitesPrincipales",
      "outputs": [
        {
          "components": [
            {
              "internalType": "uint256",
              "name": "id",
              "type": "uint256"
            },
            {
              "internalType": "string",
              "name": "nom",
              "type": "string"
            },
            {
              "internalType": "uint256",
              "name": "droitFixeAnnuel",
              "type": "uint256"
            },
            {
              "internalType": "string",
              "name": "description",
              "type": "string"
            },
            {
              "internalType": "bool",
              "name": "estEnregistre",
              "type": "bool"
            }
          ],
          "internalType": "struct TaxManagement.ActivitePrincipale[]",
          "name": "",
          "type": "tuple[]"
        }
      ],
      "stateMutability": "view",
      "type": "function",
      "constant": true
    },
    {
      "inputs": [
        {
          "internalType": "address",
          "name": "_contribuableAdress",
          "type": "address"
        }
      ],
      "name": "getPatenteByContribuable",
      "outputs": [
        {
          "components": [
            {
              "internalType": "uint256",
              "name": "id",
              "type": "uint256"
            },
            {
              "internalType": "uint256",
              "name": "contribuableId",
              "type": "uint256"
            },
            {
              "internalType": "uint256",
              "name": "droitFixe",
              "type": "uint256"
            },
            {
              "internalType": "uint256",
              "name": "droitProportionnel",
              "type": "uint256"
            },
            {
              "internalType": "uint256",
              "name": "anneePaiement",
              "type": "uint256"
            },
            {
              "internalType": "bool",
              "name": "estPayee",
              "type": "bool"
            }
          ],
          "internalType": "struct TaxManagement.Patente[]",
          "name": "",
          "type": "tuple[]"
        }
      ],
      "stateMutability": "view",
      "type": "function",
      "constant": true
    }
  ],
  "bytecode": "0x608060405260006009556000600a556000600b556000600c556000600d556107e7600e5534801561002f57600080fd5b50600080546001600160a01b03191633179055614566806100516000396000f3fe608060405234801561001057600080fd5b50600436106101fb5760003560e01c8063b730a7381161011a578063d8dba2e8116100ad578063ec3e1c561161007c578063ec3e1c56146104d9578063f433643d146104ee578063f5294c0014610501578063f851a44014610514578063fec122221461053f57600080fd5b8063d8dba2e814610486578063e0a1cce61461048e578063e0bb12f7146104b1578063eac3fda4146104c457600080fd5b8063c2955288116100e9578063c29552881461041a578063d24f29dc1461042d578063d2c580b314610440578063d86c73b41461045357600080fd5b8063b730a73814610381578063b7dc128414610394578063bf84e1dc1461039d578063c228e5eb1461041257600080fd5b80634584ed83116101925780639209d938116101615780639209d9381461032d578063984bff5814610336578063a1b0ae091461034b578063a8420b7e1461035457600080fd5b80634584ed83146102af578063513856c8146102d35780637a84e680146102fa57806383d19c001461031a57600080fd5b806322fa5015116101ce57806322fa50151461024d5780632470fa5d146102565780632c70d0d814610276578063429b62e51461028957600080fd5b80630b0d2251146102005780630b5a006b146102155780630ecfa8ee14610231578063112007e514610244575b600080fd5b61021361020e366004613829565b610552565b005b61021e600e5481565b6040519081526020015b60405180910390f35b61021361023f36600461394f565b6106cd565b61021e600a5481565b61021e600d5481565b610269610264366004613b00565b610973565b6040516102289190613b22565b610213610284366004613b00565b61106f565b61029c610297366004613b00565b6110fb565b6040516102289796959493929190613be2565b6102c26102bd366004613c51565b61135a565b604051610228959493929190613c6a565b6102e66102e1366004613c51565b61149c565b604051610228989796959493929190613cb0565b61030d610308366004613b00565b61170b565b6040516102289190613d32565b610213610328366004613d45565b6117f8565b61021e60095481565b61033e611a27565b6040516102289190613d67565b61021e600b5481565b610367610362366004613c51565b61204f565b6040516102289e9d9c9b9a99989796959493929190613eee565b61021361038f366004613fde565b612501565b61021e600c5481565b6103e36103ab366004613c51565b600760205260009081526040902080546001820154600283015460038401546004850154600590950154939492939192909160ff1686565b6040805196875260208701959095529385019290925260608401526080830152151560a082015260c001610228565b6102696125d8565b610213610428366004614055565b612719565b61021361043b36600461411b565b6129ec565b61021361044e366004613b00565b612ac1565b610476610461366004613b00565b60016020526000908152604090205460ff1681565b6040519015158152602001610228565b610269612b4b565b61047661049c366004613b00565b60026020526000908152604090205460ff1681565b6102e66104bf366004613c51565b612c8b565b6104cc612cd1565b6040516102289190614188565b6104e161306d565b6040516102289190614279565b6102136104fc366004614055565b6132cb565b61021361050f366004613c51565b61342b565b600054610527906001600160a01b031681565b6040516001600160a01b039091168152602001610228565b61021361054d366004613d45565b61351a565b6000546001600160a01b031633146105855760405162461bcd60e51b815260040161057c90614314565b60405180910390fd5b6001600160a01b038a1660009081526002602052604090205460ff166105fb5760405162461bcd60e51b815260206004820152602560248201527f436520636f6e747269627561626c65206e276573742070617320656e7265676960448201526439ba39329760d91b606482015260840161057c565b60005b6009548110156106c0576000818152600560205260409020600101546001600160a01b03908116908c16036106ae57600081815260056020819052604090912090810161064b8a826143f0565b506006810161065a89826143f0565b506007810161066988826143f0565b506008810161067887826143f0565b5060098101859055600a8101839055600481018a90556003810161069c8c826143f0565b50600b81016106ab85826143f0565b50505b806106b8816144c6565b9150506105fe565b5050505050505050505050565b6000546001600160a01b031633146106f75760405162461bcd60e51b815260040161057c90614314565b6001600160a01b038c1660009081526002602052604090205460ff161561076c5760405162461bcd60e51b8152602060048201526024808201527f436520636f6e747269627561626c65206573742064656a6120656e72656769736044820152633a39329760e11b606482015260840161057c565b6000604051806101c0016040528060095481526020018e6001600160a01b031681526020018d81526020018c81526020018b81526020018a81526020018981526020018881526020018781526020018681526020018381526020018581526020018481526020016001151581525090506001600260008f6001600160a01b03166001600160a01b0316815260200190815260200160002060006101000a81548160ff021916908315150217905550806005600060095481526020019081526020016000206000820151816000015560208201518160010160006101000a8154816001600160a01b0302191690836001600160a01b03160217905550604082015181600201908161087c91906143f0565b506060820151600382019061089190826143f0565b506080820151600482015560a082015160058201906108b090826143f0565b5060c082015160068201906108c590826143f0565b5060e082015160078201906108da90826143f0565b5061010082015160088201906108f090826143f0565b506101208201516009820155610140820151600a820155610160820151600b82019061091c90826143f0565b50610180820151600c82019061093290826143f0565b506101a09190910151600d909101805460ff19169115159190911790556009805490600061095f836144c6565b919050555050505050505050505050505050565b6001600160a01b03811660009081526002602052604090205460609060ff166109ec5760405162461bcd60e51b815260206004820152602560248201527f436520636f6e747269627561626c65206e276573742070617320656e7265676960448201526439ba39329760d91b606482015260840161057c565b6000600d5467ffffffffffffffff811115610a0957610a09613786565b604051908082528060200260200182016040528015610a7557816020015b610a626040518060c0016040528060008152602001600081526020016000815260200160008152602001600081526020016000151581525090565b815260200190600190039081610a275790505b50905060005b6009548111611068576000818152600560205260409020600101546001600160a01b039081169085160361105657600081815260056020908152604080832081516101c0810183528154815260018201546001600160a01b0316938101939093526002810180549192840191610af090614371565b80601f0160208091040260200160405190810160405280929190818152602001828054610b1c90614371565b8015610b695780601f10610b3e57610100808354040283529160200191610b69565b820191906000526020600020905b815481529060010190602001808311610b4c57829003601f168201915b50505050508152602001600382018054610b8290614371565b80601f0160208091040260200160405190810160405280929190818152602001828054610bae90614371565b8015610bfb5780601f10610bd057610100808354040283529160200191610bfb565b820191906000526020600020905b815481529060010190602001808311610bde57829003601f168201915b5050505050815260200160048201548152602001600582018054610c1e90614371565b80601f0160208091040260200160405190810160405280929190818152602001828054610c4a90614371565b8015610c975780601f10610c6c57610100808354040283529160200191610c97565b820191906000526020600020905b815481529060010190602001808311610c7a57829003601f168201915b50505050508152602001600682018054610cb090614371565b80601f0160208091040260200160405190810160405280929190818152602001828054610cdc90614371565b8015610d295780601f10610cfe57610100808354040283529160200191610d29565b820191906000526020600020905b815481529060010190602001808311610d0c57829003601f168201915b50505050508152602001600782018054610d4290614371565b80601f0160208091040260200160405190810160405280929190818152602001828054610d6e90614371565b8015610dbb5780601f10610d9057610100808354040283529160200191610dbb565b820191906000526020600020905b815481529060010190602001808311610d9e57829003601f168201915b50505050508152602001600882018054610dd490614371565b80601f0160208091040260200160405190810160405280929190818152602001828054610e0090614371565b8015610e4d5780601f10610e2257610100808354040283529160200191610e4d565b820191906000526020600020905b815481529060010190602001808311610e3057829003601f168201915b5050505050815260200160098201548152602001600a8201548152602001600b82018054610e7a90614371565b80601f0160208091040260200160405190810160405280929190818152602001828054610ea690614371565b8015610ef35780601f10610ec857610100808354040283529160200191610ef3565b820191906000526020600020905b815481529060010190602001808311610ed657829003601f168201915b50505050508152602001600c82018054610f0c90614371565b80601f0160208091040260200160405190810160405280929190818152602001828054610f3890614371565b8015610f855780601f10610f5a57610100808354040283529160200191610f85565b820191906000526020600020905b815481529060010190602001808311610f6857829003601f168201915b5050509183525050600d919091015460ff161515602090910152905060005b600d548110156110535760008181526007602052604090206001015482510361104157600081815260076020908152604091829020825160c08101845281548152600182015492810192909252600281015492820192909252600382015460608201526004820154608082015260059091015460ff16151560a08201528451859083908110611035576110356144df565b60200260200101819052505b8061104b816144c6565b915050610fa4565b50505b80611060816144c6565b915050610a7b565b5092915050565b6000546001600160a01b031633146110995760405162461bcd60e51b815260040161057c90614314565b60005b6009548110156110f7576000818152600560205260409020600101546001600160a01b03908116908316036110e5576000818152600560205260409020600d01805460ff191690555b806110ef816144c6565b91505061109c565b5050565b6003602052600090815260409020805460018201805491929161111d90614371565b80601f016020809104026020016040519081016040528092919081815260200182805461114990614371565b80156111965780601f1061116b57610100808354040283529160200191611196565b820191906000526020600020905b81548152906001019060200180831161117957829003601f168201915b5050505050908060020180546111ab90614371565b80601f01602080910402602001604051908101604052809291908181526020018280546111d790614371565b80156112245780601f106111f957610100808354040283529160200191611224565b820191906000526020600020905b81548152906001019060200180831161120757829003601f168201915b50505050509080600301805461123990614371565b80601f016020809104026020016040519081016040528092919081815260200182805461126590614371565b80156112b25780601f10611287576101008083540402835291602001916112b2565b820191906000526020600020905b81548152906001019060200180831161129557829003601f168201915b5050505050908060040180546112c790614371565b80601f01602080910402602001604051908101604052809291908181526020018280546112f390614371565b80156113405780601f1061131557610100808354040283529160200191611340565b820191906000526020600020905b81548152906001019060200180831161132357829003601f168201915b50505050600583015460069093015491929160ff16905087565b6006602052600090815260409020805460018201805491929161137c90614371565b80601f01602080910402602001604051908101604052809291908181526020018280546113a890614371565b80156113f55780601f106113ca576101008083540402835291602001916113f5565b820191906000526020600020905b8154815290600101906020018083116113d857829003601f168201915b50505050509080600201549080600301805461141090614371565b80601f016020809104026020016040519081016040528092919081815260200182805461143c90614371565b80156114895780601f1061145e57610100808354040283529160200191611489565b820191906000526020600020905b81548152906001019060200180831161146c57829003601f168201915b5050506004909301549192505060ff1685565b60046020526000908152604090208054600182015460028301805492936001600160a01b03909216926114ce90614371565b80601f01602080910402602001604051908101604052809291908181526020018280546114fa90614371565b80156115475780601f1061151c57610100808354040283529160200191611547565b820191906000526020600020905b81548152906001019060200180831161152a57829003601f168201915b50505050509080600301805461155c90614371565b80601f016020809104026020016040519081016040528092919081815260200182805461158890614371565b80156115d55780601f106115aa576101008083540402835291602001916115d5565b820191906000526020600020905b8154815290600101906020018083116115b857829003601f168201915b5050505050908060040180546115ea90614371565b80601f016020809104026020016040519081016040528092919081815260200182805461161690614371565b80156116635780601f1061163857610100808354040283529160200191611663565b820191906000526020600020905b81548152906001019060200180831161164657829003601f168201915b50505050509080600501805461167890614371565b80601f01602080910402602001604051908101604052809291908181526020018280546116a490614371565b80156116f15780601f106116c6576101008083540402835291602001916116f1565b820191906000526020600020905b8154815290600101906020018083116116d457829003601f168201915b50505050600683015460079093015491929160ff16905088565b6001600160a01b03811660009081526001602052604090205460609060ff16156117505750506040805180820190915260058152641059d95b9d60da1b602082015290565b6001600160a01b03821660009081526002602052604090205460ff161561179957505060408051808201909152600c81526b436f6e747269627561626c6560a01b602082015290565b6000546001600160a01b03908116908316036117d057505060408051808201909152600581526420b236b4b760d91b602082015290565b5050604080518082019091526007815266496e636f6e6e7560c81b602082015290565b919050565b3360009081526002602052604090205460ff1661187d5760405162461bcd60e51b815260206004820152603760248201527f5365756c73206c657320636f6e747269627561626c65732070657576656e742060448201527f65666665637475657220636574746520616374696f6e2e000000000000000000606482015260840161057c565b60008281526007602052604090206005015460ff16156118df5760405162461bcd60e51b815260206004820152601f60248201527f436574746520706174656e746520612064656a61206574652070617965652e00604482015260640161057c565b6000828152600760205260409020600281015460039091015461190291906144f5565b81106119ab576000828152600760205260409081902060058101805460ff19166001908117909155818101546002830154600384015460049094015494517f76eae79300052f67aecb8436aa0f1234fd0ac466aa2ecca072227eef9efa7a359561199f9589959092899190968752602087019590955260408601939093526060850191909152608084015260a0830152151560c082015260e00190565b60405180910390a15050565b6000828152600760209081526040808320600181015460028201546003830154600490930154845189815295860192909252928401929092526060830152608082015260a0810183905260c08101919091527f76eae79300052f67aecb8436aa0f1234fd0ac466aa2ecca072227eef9efa7a359060e00161199f565b6060600060095467ffffffffffffffff811115611a4657611a46613786565b604051908082528060200260200182016040528015611af457816020015b611ae1604051806101c001604052806000815260200160006001600160a01b0316815260200160608152602001606081526020016000815260200160608152602001606081526020016060815260200160608152602001600081526020016000815260200160608152602001606081526020016000151581525090565b815260200190600190039081611a645790505b50905060005b6009548111612049576000818152600560205260409020600d015460ff16156120375760008181526005602090815260409182902082516101c0810184528154815260018201546001600160a01b0316928101929092526002810180549293919291840191611b6890614371565b80601f0160208091040260200160405190810160405280929190818152602001828054611b9490614371565b8015611be15780601f10611bb657610100808354040283529160200191611be1565b820191906000526020600020905b815481529060010190602001808311611bc457829003601f168201915b50505050508152602001600382018054611bfa90614371565b80601f0160208091040260200160405190810160405280929190818152602001828054611c2690614371565b8015611c735780601f10611c4857610100808354040283529160200191611c73565b820191906000526020600020905b815481529060010190602001808311611c5657829003601f168201915b5050505050815260200160048201548152602001600582018054611c9690614371565b80601f0160208091040260200160405190810160405280929190818152602001828054611cc290614371565b8015611d0f5780601f10611ce457610100808354040283529160200191611d0f565b820191906000526020600020905b815481529060010190602001808311611cf257829003601f168201915b50505050508152602001600682018054611d2890614371565b80601f0160208091040260200160405190810160405280929190818152602001828054611d5490614371565b8015611da15780601f10611d7657610100808354040283529160200191611da1565b820191906000526020600020905b815481529060010190602001808311611d8457829003601f168201915b50505050508152602001600782018054611dba90614371565b80601f0160208091040260200160405190810160405280929190818152602001828054611de690614371565b8015611e335780601f10611e0857610100808354040283529160200191611e33565b820191906000526020600020905b815481529060010190602001808311611e1657829003601f168201915b50505050508152602001600882018054611e4c90614371565b80601f0160208091040260200160405190810160405280929190818152602001828054611e7890614371565b8015611ec55780601f10611e9a57610100808354040283529160200191611ec5565b820191906000526020600020905b815481529060010190602001808311611ea857829003601f168201915b5050505050815260200160098201548152602001600a8201548152602001600b82018054611ef290614371565b80601f0160208091040260200160405190810160405280929190818152602001828054611f1e90614371565b8015611f6b5780601f10611f4057610100808354040283529160200191611f6b565b820191906000526020600020905b815481529060010190602001808311611f4e57829003601f168201915b50505050508152602001600c82018054611f8490614371565b80601f0160208091040260200160405190810160405280929190818152602001828054611fb090614371565b8015611ffd5780601f10611fd257610100808354040283529160200191611ffd565b820191906000526020600020905b815481529060010190602001808311611fe057829003601f168201915b5050509183525050600d919091015460ff161515602090910152825183908390811061202b5761202b6144df565b60200260200101819052505b80612041816144c6565b915050611afa565b50919050565b60056020526000908152604090208054600182015460028301805492936001600160a01b039092169261208190614371565b80601f01602080910402602001604051908101604052809291908181526020018280546120ad90614371565b80156120fa5780601f106120cf576101008083540402835291602001916120fa565b820191906000526020600020905b8154815290600101906020018083116120dd57829003601f168201915b50505050509080600301805461210f90614371565b80601f016020809104026020016040519081016040528092919081815260200182805461213b90614371565b80156121885780601f1061215d57610100808354040283529160200191612188565b820191906000526020600020905b81548152906001019060200180831161216b57829003601f168201915b5050505050908060040154908060050180546121a390614371565b80601f01602080910402602001604051908101604052809291908181526020018280546121cf90614371565b801561221c5780601f106121f15761010080835404028352916020019161221c565b820191906000526020600020905b8154815290600101906020018083116121ff57829003601f168201915b50505050509080600601805461223190614371565b80601f016020809104026020016040519081016040528092919081815260200182805461225d90614371565b80156122aa5780601f1061227f576101008083540402835291602001916122aa565b820191906000526020600020905b81548152906001019060200180831161228d57829003601f168201915b5050505050908060070180546122bf90614371565b80601f01602080910402602001604051908101604052809291908181526020018280546122eb90614371565b80156123385780601f1061230d57610100808354040283529160200191612338565b820191906000526020600020905b81548152906001019060200180831161231b57829003601f168201915b50505050509080600801805461234d90614371565b80601f016020809104026020016040519081016040528092919081815260200182805461237990614371565b80156123c65780601f1061239b576101008083540402835291602001916123c6565b820191906000526020600020905b8154815290600101906020018083116123a957829003601f168201915b50505050509080600901549080600a01549080600b0180546123e790614371565b80601f016020809104026020016040519081016040528092919081815260200182805461241390614371565b80156124605780601f1061243557610100808354040283529160200191612460565b820191906000526020600020905b81548152906001019060200180831161244357829003601f168201915b50505050509080600c01805461247590614371565b80601f01602080910402602001604051908101604052809291908181526020018280546124a190614371565b80156124ee5780601f106124c3576101008083540402835291602001916124ee565b820191906000526020600020905b8154815290600101906020018083116124d157829003601f168201915b505050600d909301549192505060ff168e565b6000546001600160a01b0316331461252b5760405162461bcd60e51b815260040161057c90614314565b60008481526006602052604090206004015460ff1661259e5760405162461bcd60e51b815260206004820152602960248201527f4365207479706520646520636f6d6d65726365206e276573742070617320656e6044820152683932b3b4b9ba39329760b91b606482015260840161057c565b6000848152600660205260409020600181016125ba85826143f0565b5060028101839055600381016125d083826143f0565b505050505050565b60606000600d5467ffffffffffffffff8111156125f7576125f7613786565b60405190808252806020026020018201604052801561266357816020015b6126506040518060c0016040528060008152602001600081526020016000815260200160008152602001600081526020016000151581525090565b8152602001906001900390816126155790505b50905060005b600d548110156120495760008181526007602052604090206005015460ff161561270757600081815260076020908152604091829020825160c08101845281548152600182015492810192909252600281015492820192909252600382015460608201526004820154608082015260059091015460ff16151560a082015282518390839081106126fb576126fb6144df565b60200260200101819052505b80612711816144c6565b915050612669565b6000546001600160a01b031633146127435760405162461bcd60e51b815260040161057c90614314565b6001600160a01b03861660009081526001602052604090205460ff16156127ac5760405162461bcd60e51b815260206004820152601e60248201527f436574206167656e74206573742064656a6120656e72656769737472652e0000604482015260640161057c565b6040805161010081018252600c805482526001600160a01b0389811660208085018281528587018c8152606087018c9052608087018b905260a087018a905260c08701899052600160e088018190526000948552808452888520805460ff1916821790559554845260049092529590912084518155945192850180546001600160a01b031916939092169290921790555190918291600282019061285090826143f0565b506060820151600382019061286590826143f0565b506080820151600482019061287a90826143f0565b5060a0820151600582019061288f90826143f0565b5060c0820151600682015560e0909101516007909101805460ff191691151591909117905560088054600181018255600082905282517ff3f7a9fe364faab93b216da50a3214154f22a0a2b415b23a84c8169e8b636ee39190920290810191825560208301517ff3f7a9fe364faab93b216da50a3214154f22a0a2b415b23a84c8169e8b636ee4820180546001600160a01b0319166001600160a01b0390921691909117905560408301518392917ff3f7a9fe364faab93b216da50a3214154f22a0a2b415b23a84c8169e8b636ee5019061296a90826143f0565b506060820151600382019061297f90826143f0565b506080820151600482019061299490826143f0565b5060a082015160058201906129a990826143f0565b5060c0820151600682015560e0909101516007909101805460ff1916911515919091179055600c80549060006129de836144c6565b919050555050505050505050565b6000546001600160a01b03163314612a165760405162461bcd60e51b815260040161057c90614314565b6040805160a081018252600b548082526020808301878152838501879052606084018690526001608085018190526000938452600690925293909120825181559251919283929091820190612a6b90826143f0565b506040820151600282015560608201516003820190612a8a90826143f0565b50608091909101516004909101805460ff1916911515919091179055600b8054906000612ab6836144c6565b919050555050505050565b6000546001600160a01b03163314612aeb5760405162461bcd60e51b815260040161057c90614314565b60005b600c548110156110f7576000818152600460205260409020600101546001600160a01b0390811690831603612b39576000908152600460205260409020600701805460ff1916905550565b80612b43816144c6565b915050612aee565b60606000600d5467ffffffffffffffff811115612b6a57612b6a613786565b604051908082528060200260200182016040528015612bd657816020015b612bc36040518060c0016040528060008152602001600081526020016000815260200160008152602001600081526020016000151581525090565b815260200190600190039081612b885790505b50905060005b600d548110156120495760008181526007602052604090206005015460ff16612c7957600081815260076020908152604091829020825160c08101845281548152600182015492810192909252600281015492820192909252600382015460608201526004820154608082015260059091015460ff16151560a08201528251839083908110612c6d57612c6d6144df565b60200260200101819052505b80612c83816144c6565b915050612bdc565b60088181548110612c9b57600080fd5b60009182526020909120600890910201805460018201546002830180549294506001600160a01b0390911692916114ce90614371565b60606000600c5467ffffffffffffffff811115612cf057612cf0613786565b604051908082528060200260200182016040528015612d7457816020015b612d616040518061010001604052806000815260200160006001600160a01b0316815260200160608152602001606081526020016060815260200160608152602001600081526020016000151581525090565b815260200190600190039081612d0e5790505b50905060005b600c548110156120495760008181526004602052604090206007015460ff161561305b576000818152600460209081526040918290208251610100810184528154815260018201546001600160a01b0316928101929092526002810180549293919291840191612de990614371565b80601f0160208091040260200160405190810160405280929190818152602001828054612e1590614371565b8015612e625780601f10612e3757610100808354040283529160200191612e62565b820191906000526020600020905b815481529060010190602001808311612e4557829003601f168201915b50505050508152602001600382018054612e7b90614371565b80601f0160208091040260200160405190810160405280929190818152602001828054612ea790614371565b8015612ef45780601f10612ec957610100808354040283529160200191612ef4565b820191906000526020600020905b815481529060010190602001808311612ed757829003601f168201915b50505050508152602001600482018054612f0d90614371565b80601f0160208091040260200160405190810160405280929190818152602001828054612f3990614371565b8015612f865780601f10612f5b57610100808354040283529160200191612f86565b820191906000526020600020905b815481529060010190602001808311612f6957829003601f168201915b50505050508152602001600582018054612f9f90614371565b80601f0160208091040260200160405190810160405280929190818152602001828054612fcb90614371565b80156130185780601f10612fed57610100808354040283529160200191613018565b820191906000526020600020905b815481529060010190602001808311612ffb57829003601f168201915b50505091835250506006820154602082015260079091015460ff161515604090910152825183908390811061304f5761304f6144df565b60200260200101819052505b80613065816144c6565b915050612d7a565b60606000600b5467ffffffffffffffff81111561308c5761308c613786565b6040519080825280602002602001820160405280156130f157816020015b6130de6040518060a00160405280600081526020016060815260200160008152602001606081526020016000151581525090565b8152602001906001900390816130aa5790505b5090506000805b600b548110156132c35760008181526006602052604090206004015460ff16156132b157600660008281526020019081526020016000206040518060a00160405290816000820154815260200160018201805461315490614371565b80601f016020809104026020016040519081016040528092919081815260200182805461318090614371565b80156131cd5780601f106131a2576101008083540402835291602001916131cd565b820191906000526020600020905b8154815290600101906020018083116131b057829003601f168201915b50505050508152602001600282015481526020016003820180546131f090614371565b80601f016020809104026020016040519081016040528092919081815260200182805461321c90614371565b80156132695780601f1061323e57610100808354040283529160200191613269565b820191906000526020600020905b81548152906001019060200180831161324c57829003601f168201915b50505091835250506004919091015460ff1615156020909101528351849084908110613297576132976144df565b602002602001018190525081806132ad906144c6565b9250505b806132bb816144c6565b9150506130f8565b509092915050565b6000546001600160a01b031633146132f55760405162461bcd60e51b815260040161057c90614314565b6001600160a01b03861660009081526001602052604090205460ff1661335d5760405162461bcd60e51b815260206004820152601f60248201527f436574206167656e74206e276573742070617320656e72656769737472652e00604482015260640161057c565b60005b600c54811015613422576000818152600460205260409020600101546001600160a01b03908116908816036134105760008181526004602052604090206001810180546001600160a01b0319166001600160a01b038a16179055600281016133c888826143f0565b50600381016133d787826143f0565b50600481016133e686826143f0565b50600581016133f585826143f0565b5060068101839055600701805460ff19166001179055613422565b8061341a816144c6565b915050613360565b50505050505050565b6000546001600160a01b031633146134555760405162461bcd60e51b815260040161057c90614314565b60008181526006602052604090206004015460ff166134c85760405162461bcd60e51b815260206004820152602960248201527f4365207479706520646520636f6d6d65726365206e276573742070617320656e6044820152683932b3b4b9ba39329760b91b606482015260840161057c565b600081815260066020526040812060048101805460ff19169055818155906134f36001830182613719565b600282016000905560038201600061350b9190613719565b50600401805460ff1916905550565b3360009081526001602052604090205460ff1661359f5760405162461bcd60e51b815260206004820152603060248201527f5365756c73206c6573206167656e74732070657576656e74206566666563747560448201527f657220636574746520616374696f6e2e00000000000000000000000000000000606482015260840161057c565b60008281526007602052604090206005015460ff16156136275760405162461bcd60e51b815260206004820152602e60248201527f556e6520706174656e746520612064656a612065746520706179656520706f7560448201527f7220636574746520616e6e65652e000000000000000000000000000000000000606482015260840161057c565b6000828152600560209081526040808320600481015480855260069093529083206002810154600a8084015493959293919291613664919061450e565b905061367160048361450e565b8110156136865761368360048361450e565b90505b6040805160c081018252600d805480835260208084018c815284860188815260608601888152608087018e8152600060a0890181815296815260079095529784208751815592516001840155905160028301555160038201559451600486015590516005909401805460ff1916941515949094179093558054919261370a836144c6565b91905055505050505050505050565b50805461372590614371565b6000825580601f10613735575050565b601f0160209004906000526020600020908101906137539190613756565b50565b5b8082111561376b5760008155600101613757565b5090565b80356001600160a01b03811681146117f357600080fd5b634e487b7160e01b600052604160045260246000fd5b600082601f8301126137ad57600080fd5b813567ffffffffffffffff808211156137c8576137c8613786565b604051601f8301601f19908116603f011681019082821181831017156137f0576137f0613786565b8160405283815286602085880101111561380957600080fd5b836020870160208301376000602085830101528094505050505092915050565b6000806000806000806000806000806101408b8d03121561384957600080fd5b6138528b61376f565b995060208b013567ffffffffffffffff8082111561386f57600080fd5b61387b8e838f0161379c565b9a5060408d0135995060608d013591508082111561389857600080fd5b6138a48e838f0161379c565b985060808d01359150808211156138ba57600080fd5b6138c68e838f0161379c565b975060a08d01359150808211156138dc57600080fd5b6138e88e838f0161379c565b965060c08d01359150808211156138fe57600080fd5b61390a8e838f0161379c565b955060e08d013594506101008d013591508082111561392857600080fd5b506139358d828e0161379c565b9250506101208b013590509295989b9194979a5092959850565b6000806000806000806000806000806000806101808d8f03121561397257600080fd5b61397b8d61376f565b9b5067ffffffffffffffff60208e0135111561399657600080fd5b6139a68e60208f01358f0161379c565b9a5067ffffffffffffffff60408e013511156139c157600080fd5b6139d18e60408f01358f0161379c565b995060608d0135985067ffffffffffffffff60808e013511156139f357600080fd5b613a038e60808f01358f0161379c565b975067ffffffffffffffff60a08e01351115613a1e57600080fd5b613a2e8e60a08f01358f0161379c565b965067ffffffffffffffff60c08e01351115613a4957600080fd5b613a598e60c08f01358f0161379c565b955067ffffffffffffffff60e08e01351115613a7457600080fd5b613a848e60e08f01358f0161379c565b94506101008d0135935067ffffffffffffffff6101208e01351115613aa857600080fd5b613ab98e6101208f01358f0161379c565b925067ffffffffffffffff6101408e01351115613ad557600080fd5b613ae68e6101408f01358f0161379c565b91506101608d013590509295989b509295989b509295989b565b600060208284031215613b1257600080fd5b613b1b8261376f565b9392505050565b602080825282518282018190526000919060409081850190868401855b82811015613b8f5781518051855286810151878601528581015186860152606080820151908601526080808201519086015260a09081015115159085015260c09093019290850190600101613b3f565b5091979650505050505050565b6000815180845260005b81811015613bc257602081850181015186830182015201613ba6565b506000602082860101526020601f19601f83011685010191505092915050565b87815260e060208201526000613bfb60e0830189613b9c565b8281036040840152613c0d8189613b9c565b90508281036060840152613c218188613b9c565b90508281036080840152613c358187613b9c565b60a0840195909552505090151560c09091015295945050505050565b600060208284031215613c6357600080fd5b5035919050565b85815260a060208201526000613c8360a0830187613b9c565b8560408401528281036060840152613c9b8186613b9c565b91505082151560808301529695505050505050565b60006101008a83526001600160a01b038a166020840152806040840152613cd98184018a613b9c565b90508281036060840152613ced8189613b9c565b90508281036080840152613d018188613b9c565b905082810360a0840152613d158187613b9c565b60c0840195909552505090151560e0909101529695505050505050565b602081526000613b1b6020830184613b9c565b60008060408385031215613d5857600080fd5b50508035926020909101359150565b60006020808301818452808551808352604092508286019150828160051b87010184880160005b83811015613ee057603f19898403018552815180518452878101516001600160a01b031688850152868101516101c088860181905290613dd082870182613b9c565b91505060608083015186830382880152613dea8382613b9c565b92505050608080830151818701525060a08083015186830382880152613e108382613b9c565b9250505060c08083015186830382880152613e2b8382613b9c565b9250505060e08083015186830382880152613e468382613b9c565b925050506101008083015186830382880152613e628382613b9c565b925050506101208083015181870152506101408083015181870152506101608083015186830382880152613e968382613b9c565b925050506101808083015186830382880152613eb28382613b9c565b925050506101a0808301519250613ecc8187018415159052565b509588019593505090860190600101613d8e565b509098975050505050505050565b8e81526001600160a01b038e1660208201526101c060408201526000613f186101c083018f613b9c565b8281036060840152613f2a818f613b9c565b90508c608084015282810360a0840152613f44818d613b9c565b905082810360c0840152613f58818c613b9c565b905082810360e0840152613f6c818b613b9c565b9050828103610100840152613f81818a613b9c565b90508761012084015286610140840152828103610160840152613fa48187613b9c565b9050828103610180840152613fb98186613b9c565b915050613fcb6101a083018415159052565b9f9e505050505050505050505050505050565b60008060008060808587031215613ff457600080fd5b84359350602085013567ffffffffffffffff8082111561401357600080fd5b61401f8883890161379c565b945060408701359350606087013591508082111561403c57600080fd5b506140498782880161379c565b91505092959194509250565b60008060008060008060c0878903121561406e57600080fd5b6140778761376f565b9550602087013567ffffffffffffffff8082111561409457600080fd5b6140a08a838b0161379c565b965060408901359150808211156140b657600080fd5b6140c28a838b0161379c565b955060608901359150808211156140d857600080fd5b6140e48a838b0161379c565b945060808901359150808211156140fa57600080fd5b5061410789828a0161379c565b92505060a087013590509295509295509295565b60008060006060848603121561413057600080fd5b833567ffffffffffffffff8082111561414857600080fd5b6141548783880161379c565b945060208601359350604086013591508082111561417157600080fd5b5061417e8682870161379c565b9150509250925092565b60006020808301818452808551808352604092508286019150828160051b87010184880160005b83811015613ee057603f19898403018552815180518452878101516001600160a01b03168885015286810151610100888601819052906141f182870182613b9c565b9150506060808301518683038288015261420b8382613b9c565b92505050608080830151868303828801526142268382613b9c565b9250505060a080830151868303828801526142418382613b9c565b9250505060c080830151818701525060e08083015192506142658187018415159052565b5095880195935050908601906001016141af565b60006020808301818452808551808352604092508286019150828160051b87010184880160005b83811015613ee057603f19898403018552815160a08151855288820151818a8701526142ce82870182613b9c565b9150508782015188860152606080830151868303828801526142f08382613b9c565b608094850151151597909401969096525050948701949250908601906001016142a0565b60208082526032908201527f5365756c206c2761646d696e697374726174657572207065757420656666656360408201527f7475657220636574746520616374696f6e2e0000000000000000000000000000606082015260800190565b600181811c9082168061438557607f821691505b60208210810361204957634e487b7160e01b600052602260045260246000fd5b601f8211156143eb57600081815260208120601f850160051c810160208610156143cc5750805b601f850160051c820191505b818110156125d0578281556001016143d8565b505050565b815167ffffffffffffffff81111561440a5761440a613786565b61441e816144188454614371565b846143a5565b602080601f831160018114614453576000841561443b5750858301515b600019600386901b1c1916600185901b1785556125d0565b600085815260208120601f198616915b8281101561448257888601518255948401946001909101908401614463565b50858210156144a05787850151600019600388901b60f8161c191681555b5050505050600190811b01905550565b634e487b7160e01b600052601160045260246000fd5b6000600182016144d8576144d86144b0565b5060010190565b634e487b7160e01b600052603260045260246000fd5b80820180821115614508576145086144b0565b92915050565b60008261452b57634e487b7160e01b600052601260045260246000fd5b50049056fea2646970667358221220bed162a28d13a9c0bd9a6d4db6afe0da55b079fb3bdfd67c227165aaacab241464736f6c63430008130033",
  "immutableReferences": {},
  "source": "// SPDX-License-Identifier: MIT\npragma solidity >=0.4.22 <0.9.0;\n\n// // Contrat pour la gestion des taxes\n\ncontract TaxManagement {\n\n\n\n  // event AgentAjoute(uint id, address indexed agentAddress, string nom, string prenom, string adresse, string email, uint256 telephone, bool estEnregister);\n  // event ContribuableAjoute(uint id, address indexed contribuableAddress, string nom, string prenom, string adresse, string email, uint256 telephone,bool estEnregister);\n  // event CommerceAjoute(uint id, string nom, string adresse, address indexed contribuableAddress, uint valeurLocative, uint activitePrincipaleId, address indexed agentAddress, bool estEnregister);\n  event patentePayer(uint id,uint contribuableId, uint droitFixe, uint droitProportionnelle, uint annePaiement, uint sommePayee, bool estPayee ); \n    address public admin;\n    \n    mapping(address => bool) public estAgent;\n    mapping(address => bool) public estContribuable;\n    mapping(address => Admin) public admins;\n    mapping(uint => Agent) public agents;\n    mapping(uint => Contribuable) public contribuables;\n    // mapping(uint => Commerce) public commerces;\n    mapping(uint => ActivitePrincipale) public activitePrincipale;\n    mapping(uint => Patente) public patentes;\n    Agent[] public allAgents;\n   \n    uint public contribuableCount = 0;\n    uint public commerceCount = 0;\n    uint public activitePrincipaleCount = 0;\n    uint public agentCount = 0; \n    uint public patentesCount= 0; \n\n    uint public currentYear = 2023; \n\n    struct Admin {\n        uint id;\n        string nom;\n        string prenom;\n        string adresse;\n        string email;\n        uint telephone;\n        bool estEnregistre;\n    }\n    \n    struct Agent {\n        uint id;\n        address ethAddress; // Adresse Ethereum de l'agent\n        string nom;\n        string prenom;\n        string adresse;\n        string email;\n        uint telephone;\n        bool estEnregistre;\n    }\n    \n    struct Contribuable {\n        uint id; \n        address ethAddress; // Adresse Ethereum du contribuable\n        string nif;\n        string denomination;\n        uint activitePrincipaleId;\n        string nom;\n        string prenom;\n        string adresse;\n        string email;\n        uint contact;\n        uint valeurLocative; \n        string typeContribuable;\n        string dateCreation; \n        bool estEnregistre;\n    }\n    \n    // struct Commerce {\n    //     uint id;\n    //     string nom;\n    //     string adresse;\n    //     address contribuableAddress; // Adresse Ethereum du contribuable qui ajoute le commerce\n    //     uint valeurLocative;\n    //     uint activitePrincipale;\n    //     address agentAddress; // Adresse \n    // Ethereum de l'agent qui ajoute le commerce\n    //     bool estEnregistre;\n    // }\n    \n    struct ActivitePrincipale {\n        uint id;\n        string nom;\n        uint droitFixeAnnuel;\n        string description; \n        bool estEnregistre;\n    }\n\n    struct Patente {\n    uint id;\n    uint contribuableId;\n    uint droitFixe;\n    uint droitProportionnel;\n    uint anneePaiement;\n    bool estPayee;\n}\n\n    \n    constructor() {\n        admin = msg.sender;\n    }\n    \n    modifier seulementAdmin() {\n        require(msg.sender == admin, \"Seul l'administrateur peut effectuer cette action.\");\n        _;\n    }\n    \n    modifier seulementAgent() {\n        require(estAgent[msg.sender], \"Seuls les agents peuvent effectuer cette action.\");\n        _;\n    }\n    \n    modifier seulementContribuable() {\n        require(estContribuable[msg.sender], \"Seuls les contribuables peuvent effectuer cette action.\");\n        _;\n    }\n    \n    function ajouterAgent(address _ethAddress, string memory _nom, string memory _prenom, string memory _adresse, string memory _email, uint _telephone) public seulementAdmin {\n        require(!estAgent[_ethAddress], \"Cet agent est deja enregistre.\");\n        \n        Agent memory nouvelAgent = Agent({\n            id: agentCount,\n            ethAddress: _ethAddress,\n            nom: _nom,\n            prenom: _prenom,\n            adresse: _adresse,\n            email: _email,\n            telephone: _telephone,\n            estEnregistre: true\n        });\n        \n        estAgent[_ethAddress] = true;\n        agents[agentCount] = nouvelAgent;\n        allAgents.push(nouvelAgent); \n            // emit AgentAjoute(agentCount, _ethAddress, _nom, _prenom, _adresse, _email, _telephone, true);\n        agentCount++;\n    }\n\n    \n    function ajouterContribuable(address  _ethAddress, string memory _nif,string memory _denomination,uint  _activitePrincipaleId,   string memory _nom, string memory _prenom, string memory _adresse, string memory _email, uint _contact, string memory _typeContribuable, string memory _dateCreation, uint  _valeurLocative) public seulementAdmin {\n        require(!estContribuable[_ethAddress], \"Ce contribuable est deja enregistre.\");\n        \n        Contribuable memory nouveauContribuable = Contribuable({\n            id: contribuableCount,\n            ethAddress: _ethAddress,\n            nif : _nif,\n            denomination: _denomination, \n            activitePrincipaleId: _activitePrincipaleId, \n            nom: _nom,\n            prenom: _prenom,\n            adresse: _adresse,\n            email: _email,\n            contact: _contact,\n            valeurLocative : _valeurLocative,\n            typeContribuable : _typeContribuable, \n            dateCreation : _dateCreation,  \n            estEnregistre: true\n        });\n        estContribuable[_ethAddress] = true;\n        contribuables[contribuableCount] = nouveauContribuable;\n            // emit ContribuableAjoute(contribuableCount, _ethAddress, _nom, _prenom, _adresse, _email, _telephone, true);\n        contribuableCount++;\n\n    }\n    \n\n    \n    function ajouterActivitePrincipale( string memory _nom, uint _droitFixeAnnuel, string memory _description) public seulementAdmin {\n        ActivitePrincipale memory nouveauActivitePrincipale = ActivitePrincipale({\n            id: activitePrincipaleCount,\n            nom: _nom,\n            droitFixeAnnuel: _droitFixeAnnuel,\n            description: _description,\n            estEnregistre: true\n        });\n        \n        activitePrincipale[activitePrincipaleCount] = nouveauActivitePrincipale;\n    //  emit ActivitePrincipaleAjoute(activitePrincipaleCount, _nom, _droitFixeAnnuel, _description, true);\n    activitePrincipaleCount++;\n    }\n\n    function creerPatente(uint contribuableId, uint anneePaiement) public seulementAgent() {\n    require(!patentes[contribuableId].estPayee, \"Une patente a deja ete payee pour cette annee.\");\n    \n    // Recuperer le contribuable correspondant\n    Contribuable storage contribuable = contribuables[contribuableId];\n    \n    // Recuperer le type de contribuable correspondant\n    uint activiteId = contribuable.activitePrincipaleId;\n    ActivitePrincipale storage activite = activitePrincipale[activiteId];\n    \n    // Calculer le droit fixe et le droit proportionnel\n    uint droitFixe = activite.droitFixeAnnuel;\n    uint droitProportionnel = contribuable.valeurLocative / 10 ;\n    \n    // Verifier que le droit proportionnel est superieur ou egal a un quart du droit fixe\n    if (droitProportionnel < (droitFixe / 4)) {\n        droitProportionnel = (droitFixe / 4);\n    }\n    \n    // Creer la patente\n    Patente memory nouvellePatente = Patente({\n        id: patentesCount,\n        contribuableId: contribuableId,\n        droitFixe: droitFixe,\n        droitProportionnel: droitProportionnel,\n        anneePaiement: anneePaiement,\n        estPayee: false\n    });\n    patentes[patentesCount] = nouvellePatente;\n    patentesCount++;\n    \n    // Stocker l'ID de la patente dans le contribuable correspondant\n    // contribuable.patenteId = nouvellePatente.id;\n}\nfunction payerPatente(uint patenteId, uint sommePayee) public seulementContribuable {\n    require(!patentes[patenteId].estPayee, \"Cette patente a deja ete payee.\");\n    \n    // Mettre  jour la proprit estPayee de la patente\n    if (sommePayee >= (patentes[patenteId].droitProportionnel + patentes[patenteId].droitFixe)) {\n      \n      patentes[patenteId].estPayee = true;\n      emit patentePayer(patenteId, patentes[patenteId].contribuableId, patentes[patenteId].droitFixe, patentes[patenteId].droitProportionnel, patentes[patenteId].anneePaiement, sommePayee, true);\n\n    } else {\n      \n      emit patentePayer(patenteId, patentes[patenteId].contribuableId, patentes[patenteId].droitFixe, patentes[patenteId].droitProportionnel, patentes[patenteId].anneePaiement, sommePayee, false);\n\n    }\n    \n    // Envoyer les fonds vers le service des impots\n    // Mettre  jour l'anne de paiement de la patente\n    // patentes[patenteId].anneePaiement = 2024; // Mettre l'anne de paiement suivante ici\n}\n\n\n    function getTypeUtilisateur(address _adresse) public view returns (string memory) {\n        if (estAgent[_adresse]) {\n            return \"Agent\";\n        } else if (estContribuable[_adresse]) {\n            return \"Contribuable\";\n        } else if (_adresse == admin) {\n            return \"Admin\";\n        } else {\n            return \"Inconnu\";\n        }\n    }\n\nfunction supprimerAgent(address _ethAddress) public seulementAdmin {\n    \n    for (uint index = 0; index < agentCount; index++) {\n        if(_ethAddress == agents[index].ethAddress){\n            agents[index].estEnregistre = false; \n            break;\n        }\n    }\n}\nfunction supprimerContribuable(address _ethAddress) public seulementAdmin {\n   for (uint index = 0; index < contribuableCount; index++) {\n          if(_ethAddress == contribuables[index].ethAddress){\n            contribuables[index].estEnregistre = false;\n        }\n    }\n}\nfunction modifierAgent(address _ethAddress, string memory _nom, string memory _prenom, string memory _adresse, string memory _email, uint _telephone) public seulementAdmin {\n    require(estAgent[_ethAddress], \"Cet agent n'est pas enregistre.\");\n        \n\n    for (uint index = 0; index < agentCount; index++) {\n        if(_ethAddress == agents[index].ethAddress){\n            // agents[index].estEnregistre = false; \n            Agent storage agent = agents[index]; \n            agent.id = agents[index].id; \n            agent.ethAddress = _ethAddress; \n            agent.nom = _nom;\n            agent.prenom = _prenom;\n            agent.adresse = _adresse;\n            agent.email = _email;\n            agent.telephone = _telephone;\n            agent.estEnregistre = true; \n            break;\n        }\n    }\n   \n}\nfunction modifierContribuable(address _ethAddress,string memory _denomination,uint _activitePrincipaleId, string memory _nom, string memory _prenom, string memory _adresse, string memory _email, uint _contact,string memory _typeContribuable,  uint _valeurLocative) public seulementAdmin {\n    require(estContribuable[_ethAddress], \"Ce contribuable n'est pas enregistre.\");\n   for (uint index = 0; index < contribuableCount; index++) {\n    if(_ethAddress == contribuables[index].ethAddress){\n    Contribuable storage contribuable = contribuables[index];\n    contribuable.nom = _nom;\n    contribuable.prenom = _prenom;\n    contribuable.adresse = _adresse;\n    contribuable.email = _email;\n    contribuable.contact = _contact;\n    contribuable.valeurLocative = _valeurLocative; \n    contribuable.activitePrincipaleId= _activitePrincipaleId; \n    contribuable.denomination = _denomination;\n    contribuable.typeContribuable = _typeContribuable;\n    }\n   }\n}\nfunction supprimerActivitePrincipale(uint _id) public seulementAdmin {\n    require(activitePrincipale[_id].estEnregistre, \"Ce type de commerce n'est pas enregistre.\");\n    activitePrincipale[_id].estEnregistre = false;\n    delete activitePrincipale[_id];\n}\nfunction modifierActivitePrincipale(uint _id, string memory _nom, uint _droitFixeAnnuel, string memory _description) public seulementAdmin {\n    require(activitePrincipale[_id].estEnregistre, \"Ce type de commerce n'est pas enregistre.\");\n    ActivitePrincipale storage typeC = activitePrincipale[_id];\n    typeC.nom = _nom;\n    typeC.droitFixeAnnuel = _droitFixeAnnuel;\n    typeC.description = _description;\n}\n\n\nfunction getAgents() public view returns (Agent[] memory) {\n    Agent[] memory agentsList = new Agent[](agentCount);\n    for (uint i = 0; i < agentCount; i++) {\n        if(agents[i].estEnregistre){\n        agentsList[i] = agents[i];}\n    }\n    return agentsList;\n}\n\nfunction getContribuables() public view returns (Contribuable[] memory) {\n    Contribuable[] memory contribuablesList = new Contribuable[](contribuableCount);\n    for (uint i = 0; i <= contribuableCount; i++) {\n        if(contribuables[i].estEnregistre){\n        contribuablesList[i] = contribuables[i];}\n    }\n    return contribuablesList;\n}\n\nfunction getPatentesPayer()public view returns (Patente[] memory){\n  Patente[] memory patenteList = new Patente[](patentesCount); \n  for (uint index = 0; index < patentesCount; index++) {\n    if (patentes[index].estPayee) {\n      patenteList[index] = patentes[index]; \n    } \n  }\n  return patenteList;\n}\n\nfunction getPatentesNonPayer()public view returns (Patente[] memory){\n  Patente[] memory patenteList = new Patente[](patentesCount); \n  for (uint index = 0; index < patentesCount; index++) {\n    if (!patentes[index].estPayee) {\n      patenteList[index] = patentes[index]; \n    } \n  }\n  return patenteList;\n}\nfunction getActivitesPrincipales() public view returns (ActivitePrincipale[] memory) {\n  ActivitePrincipale[] memory activitesPrincipalesList = new ActivitePrincipale[](activitePrincipaleCount);\n  uint counter = 0;\n  for (uint id = 0; id < activitePrincipaleCount; id++){\n    if(activitePrincipale[id].estEnregistre){\n      activitesPrincipalesList[counter] = activitePrincipale[id];\n      counter++;\n      }\n      }\n      return activitesPrincipalesList;\n}\n\n\nfunction getPatenteByContribuable(address _contribuableAdress) public view returns (Patente[] memory) {\n  require(estContribuable[_contribuableAdress], \"Ce contribuable n'est pas enregistre.\");\n\n  Patente[] memory patenteList = new Patente[](patentesCount);\n  // Contribuable memory contribuableSelect = new Contribuable(contribuableCount);\n    for (uint i = 0; i <= contribuableCount; i++) {\n    if(_contribuableAdress == contribuables[i].ethAddress){\n        Contribuable memory contribuableSelected = contribuables[i];\n        for (uint j=0 ;j<patentesCount;j++){\n          if(contribuableSelected.id==patentes[j].contribuableId){\n            patenteList[j]=patentes[j];\n          }\n        }\n    }\n  \n}\nreturn patenteList; \n}\n\n}\n",
  "sourcePath": "D:\\PFE\\pfe_block\\smartContracts\\contracts\\TaxManagement.sol",
  "compiler": {
    "name": "solc",
    "version": "0.8.19+commit.7dd6d404.Emscripten.clang"
  },
  "schemaVersion": "3.4.15",
  "updatedAt": "2023-10-22T01:03:58.043Z",
  "networkType": "ethereum",
  "devdoc": {
    "kind": "dev",
    "methods": {},
    "version": 1
  },
  "userdoc": {
    "kind": "user",
    "methods": {},
    "version": 1
  }
}